:100000000C9448030C948F030C948F030C948F036F
:100010000C948F030C948F030C948F030C948F0318
:100020000C948F030C948F030C94A6200C946220E4
:100030000C94AD260C948F030C948F030C948F03B7
:100040000C948F030C948F030C948F030C948F03E8
:100050000C94D4260C9489260C948F030C948F0353
:100060000C948F030C948F030C948F030C948F03C8
:100070000C948F030C948F030C948F030C948F03B8
:100080000C948F030C948F030C948F030C948F03A8
:100090000C948F030C948F030C948F030C948F0398
:1000A0000C948F030C948F030C948F03050109802B
:1000B000A101850319012AB700150126B700950192
:1000C00075108100C0050C0901A101850419012AE0
:1000D000A002150126A002950175108100C00660DE
:1000E000FF0961A1010962150026FF00952075082E
:1000F00081020963150026FF00952075089102C052
:1001000005010906A101050719E029E715002501E8
:10011000950875018102950175088101050719008F
:1001200029FF150026FF00950675088100050819AE
:10013000012905950575019102950175039101C08D
:10014000000101010101010101010202020202029A
:10015000020202030303030303030304040404046D
:100160000404050505050506060606060707070734
:100170000708080808090909090A0A0A0B0B0B0CE9
:100180000C0C0D0D0D0E0E0E0F0F0F101011111186
:100190001212131314141515161617171818191907
:1001A0001A1A1B1B1C1D1D1E1E1F2020212222236C
:1001B0002424252626272829292A2B2C2D2D2E2FAD
:1001C00030313232333435363738393A3B3C3D3EC4
:1001D0003F404142434445464748494A4C4D4E4FB3
:1001E00050515354555658595A5B5D5E5F61626475
:1001F000656668696B6C6D6F7072737577787A7B02
:100200007D7E8082838587888A8C8E8F9193959658
:10021000989A9C9EA0A2A3A5A7A9ABADAFB1B3B578
:10022000B7BABCBEC0C2C4C6C9CBCDCFD1D4D6D854
:10023000DBDDDFE2E4E7E9EBEEF0F3F5F8FAFDFFF2
:10024000FFAA7F55402223252628292A2C2D2F302E
:1002500032333536383A3B3D3E4042434547494AC2
:100260004C4E5051535557595A5C5E6062646668F3
:10027000696B6D6F71737577797B7D7F81838587FE
:10028000898A8C8E90929496989A9C9E9FA1A3A501
:10029000A7A8AAACAEAFB1B3B4B6B8B9BBBCBEBF29
:1002A000C1C2C3C5C6C7C9CACBCCCDCED0D1D2D2AC
:1002B000D3D4D5D6D7D7D8D9D9DADADBDBDBDCDCB7
:1002C000DCDCDCDDDDDDDDDCDCDCDCDCDBDBDBDA6F
:1002D000DAD9D9D8D7D7D6D5D4D3D2D2D1D0CECDDA
:1002E000CCCBCAC9C7C6C5C3C2C1BFBEBCBBB9B8E7
:1002F000B6B4B3B1AFAEACAAA8A7A5A3A19F9E9C6C
:100300009A98969492908E8C8A89878583817F7D36
:100310007B79777573716F6D6B6968666462605E17
:100320005C5A5957555351504E4C4A4947454342E0
:10033000403E3D3B3A3836353332302F2D2C2A297A
:1003400028262523220000000000000000000000F5
:1003500001010203040506080A0C0F1114181C20E1
:1003600024292E33393F464C535B626A7179818A66
:10037000929AA2AAB2B9C1C8CFD5DCE1E7EBF0F4FA
:10038000F7FAFCFDFEFFFEFDFCFAF7F4F0EBE7E107
:10039000DCD5CFC8C1B9B2AAA29A928A8179716A12
:1003A000625B534C463F39332E2924201C1814110C
:1003B0000F0C0A08060504030201010000000000FA
:1003C00000000000002B0014001A000800150017A0
:1003D000001C0018000C0012001300350029000456
:1003E000001600070009000A000B000D000E000FA8
:1003F0000033003400E1001D001B00060019000559
:1004000000280011001000360037003800E000E638
:10041000000000E30000002A412C420000E7000039
:10042000002F00300035021E021F0220022102228E
:10043000022302240225022602270231024C003A3E
:10044000003B003C003D003E005000510052004F78
:100450000033003400E1003F00400041004200430F
:10046000002800AB00AA00A900AE003800E000E6BA
:10047000000000E30000002A412C420000E70000D9
:10048000002D022E0235021E001F00200021002236
:10049000002300240025002600270031004C003AEC
:1004A000003B003C003D003E005000510052004F18
:1004B0000033003400E1003F0040004100420043AF
:1004C000002800AB004E004B004A004D00E000E663
:1004D000000000E30000002A412C420000E7000079
:1004E000002D002E000100010001000100010001AB
:1004F00000010001000100010001000100010001F4
:1005000000010001000100010001000100010001E3
:1005100000010001000100010001000100010001D3
:1005200000010001000100010001000100010001C3
:1005300000000001000100010001000100010000B5
:1005400000010001000000000000000000000000A9
:100550000000000000000000007E0F00D4FFFFFF3D
:10056000C70000007800000000000000002A2B28CF
:10057000000000000000000000000000000000007B
:1005800029000000002C1E34202122243426272597
:100590002E362D3738271E1F2021222324252633CF
:1005A00033362E37381F0405060708090A0B0C0DD1
:1005B0000E0F101112131415161718191A1B1C1DE3
:1005C0002F3130232D350405060708090A0B0C0DC1
:1005D0000E0F101112131415161718191A1B1C1DC3
:1005E0002F3130354C32190A00047F3F1F6432141A
:1005F000643214783C1E1E140A0509025B000301D4
:1006000000A0FA0904000001030101000921110101
:1006100000012240000705810308000A09040100C7
:100620000203000000092111010001222200070538
:1006300082032000010705030320000109040200D2
:100640000103000000092111010001223200070509
:10065000840320000A1201100100000008435134F5
:10066000410100010200010E0361006C0069007885
:100670000034003000000012037100750061006456
:1006800000630075006200650000000403090400B7
:1006900011241FBECFEFDAE0DEBFCDBF04B603FEEC
:1006A00027C08091C0029091C102A091C202B09176
:1006B000C3028730904BA740B04BD1F41092C002D8
:1006C0001092C1021092C2021092C30214BE84B7EB
:1006D000877F84BF0FB6F894A895809160008861E9
:1006E00080936000109260000FBEE0E0F8E309958F
:1006F00022E0AAE9B1E001C01D92A03CB207E1F7F7
:1007000011E0A0E0B1E0E6EAF2E502C005900D924A
:10071000AA39B107D9F70E947F210C94D7280C94ED
:100720000000E8EDF0E080818E7F80831092E2008F
:100730001092DA001092E100A0EEB0E08C9181609E
:100740008C9380818F77808319BCA7EDB0E08C916A
:100750008E7F8C9380818F7E80831092A202089579
:100760002091E4003091E50095E6A9012091EC008C
:10077000822F817020FF06C08091E80080FF06C0B4
:1007800080E008952091E80022FD1AC08091B8020F
:10079000882389F0853089F08091EB0085FD0FC0BA
:1007A0002091E4003091E50042175307F9F291508F
:1007B000E1F684E0089582E0089583E0089581E001
:1007C0000895EF92FF920F931F93CF937C018B01BB
:1007D0000E94B003C82F811117C08091E80085FDE9
:1007E0000BC08091E8008E778093E8000E94B003F0
:1007F000882399F3C82F08C0F70181917F01809366
:10080000F1000150110949F78C2FCF911F910F91E1
:10081000FF90EF900895CF932091B8022430F9F41F
:10082000C091E900CF703091EC00232F217030FD92
:1008300020E8C22B22E02093E9002091E80020FF6D
:100840000BC050E040E060E270E00E94E103809164
:10085000E8008E778093E800CF70C093E900CF91D5
:1008600008958091B00287FF13C08091E80082FF55
:1008700006C08091E8008B778093E80004C08091E7
:10088000B8028111F2CF08958091B8028823D9F37C
:100890008091E80080FFF8CF8091E8008E77ECCF60
:1008A000982F9093E900242F762F50E0891731F08C
:1008B0007091EC002091ED005091F00021FD07C0F7
:1008C0009F5F973071F78093E90081E00895309140
:1008D000EB003E7F3093EB003091ED003D7F309395
:1008E000ED003091EB0031603093EB007093EC0041
:1008F0002093ED005093F0002091EE0027FDE0CF13
:1009000080E00895CF92DF92EF92FF920F931F93B2
:10091000CF93DF93C8EDD0E088818F7E8883E7EDA9
:10092000F0E080818160808384E082BF81E08093F9
:10093000A20288818E7F888302EE10E0F801108287
:100940001092DA0081EEC82ED12CF6011082888137
:100950008F77888388818068888388818F7D88836A
:1009600019BC1092B8021092AF021092AE0210920F
:10097000AD0290EEE92EF12CF70180818B7F808310
:1009800088818160888342E060E080E00E945004BA
:10099000F60180818E7F8083F80180818160808371
:1009A000808188608083F70180818E7F8083888149
:1009B00080618883DF91CF911F910F91FF90EF901D
:1009C000DF90CF900895FC01CB012091B6023091C9
:1009D000B7022617370790F0009729F42091E80016
:1009E0002E772093E80040E0009751F4411108C0B1
:1009F0008091E80082FF31C080E00895C901F3CF03
:100A00002091B8022223A9F12530A9F12091E80014
:100A100023FD2DC02091E80022FDEACF2091E800BF
:100A200020FFE2CF3091F3002091F200009719F0FF
:100A30002830310558F041E02830310509F040E018
:100A40002091E8002E772093E800CECF419140938B
:100A5000F10001972F5F3F4FE9CF8091B8028823C3
:100A600041F0853041F08091E80083FFC1CF81E003
:100A7000089582E0089583E008950895089580918F
:100A8000A40208959C014FB7F89480919E02909122
:100A90009F02A091A002B091A1024FBF821B930BB5
:100AA00008952FB7F89480919E0290919F02A09193
:100AB000A002B091A1022FBF089580916A02811116
:100AC00010926A0208958091690290916802892BC0
:100AD00090916702892B80939A0190916A029923E1
:100AE00091F0892B80939A0120E08CE991E0FC0140
:100AF0003081019631112F5F31E0823A9307B9F7C7
:100B000021110E945D05E0917B02F0917C023097FB
:100B100031F00280F381E02D8AE991E00994089593
:100B2000ECE9F1E09191891303C0DF0111971C9268
:100B300091E0E23AF907B1F70895ACE9B1E0EFEFDF
:100B400090E02D91821751F0EF3F19F4211101C06F
:100B5000E92F9F5F9630A9F7EF3F09F408950E2E15
:100B6000000CFF0BE656FE4F82830895E82F2CE021
:100B7000929FE00D11249E2F9770E695E695E695DD
:100B800085E0E89FF0011124E85BFD4F50E040E074
:100B900080E0219130E0092E02C0369527950A9415
:100BA000E2F721703327042E01C0220F0A94EAF7DE
:100BB000822B4F5F5F4F4530510559F70895E82F5D
:100BC0002CE0929FE00D11248E2F877041E001C030
:100BD000440F8A95EAF7E695E695E69585E0E89F65
:100BE000F0011124E85BFD4F30E020E070E051910E
:100BF000DF011197CB01022E02C0969587950A94CA
:100C0000E2F7817081958527842385278C932F5F58
:100C10003F4F2530310559F7089580914702909153
:100C20001602981301C008958F5F8770FACF88234A
:100C300041F08095909169028923809369020C9418
:100C400063050895882339F090916902892B809378
:100C500069020C946305089520910D0230910E02F3
:100C60002817390771F090930E0280930D02E091DE
:100C70007B02F0917C02309721F00084F185E02D19
:100C80000994089520910B0230910C02281739071E
:100C900071F090930C0280930B02E0917B02F09133
:100CA0007C02309721F00680F781E02D09940895A9
:100CB00010926802109267020E94630590E080E043
:100CC0000E94420690E080E00C942C066093BC02E7
:100CD0007093BD028093BE029093BF020C9458069D
:100CE000CF93DF9300D000D0CDB7DEB78091BC02A8
:100CF0009091BD02A091BE02B091BF02AC01BD01B6
:100D000046705527662777279C01463051056105B7
:100D1000710591F4AD01286029833A834B835C838C
:100D200069817A818B819C810F900F900F900F9039
:100D3000DF91CF910C946606AD01277FEDCF0F9325
:100D40001F93CF93DF9300D000D0CDB7DEB741E043
:100D500050E060E070E004C0440F551F661F771F2D
:100D60008A95D2F740955095609570958091BC0218
:100D70009091BD02A091BE02B091BF028A019B0179
:100D8000082319232A233B2309831A832B833C83BB
:100D9000C901B8010F900F900F900F90DF91CF9184
:100DA0001F910F910C94660690916602809589239D
:100DB00080936602282F277071F4282F082E000CCC
:100DC000330B9217130639F08595859585950E940A
:100DD0009F061092660208950F931F93CF93DF939F
:100DE00000D000D0CDB7DEB741E050E060E070E069
:100DF00004C0440F551F661F771F8A95D2F7809154
:100E0000BC029091BD02A091BE02B091BF028A01C6
:100E10009B01082B192B2A2B3B2B09831A832B832D
:100E20003C83C901B8010F900F900F900F90DF9194
:100E3000CF911F910F910C94660660936B02709393
:100E40006C0280936D0290936E020C945806E091B0
:100E50007B02F0917C02309721F00190F081E02D2F
:100E6000099480E00895882309F452C0823871F40F
:100E70000E94270781FF4CC089E30E949D050E94C4
:100E8000630589E30E9490050C946305833859F447
:100E90000E94270780FF3CC083E50E949D050E94B9
:100EA000630583E5EFCF843859F40E94270782FF5A
:100EB0002FC087E40E949D050E94630587E4E2CF6E
:100EC0009CEF980F913AF0F290E2980F983088F4E6
:100ED000877021E030E0A90102C0440F551F8A95B8
:100EE000E2F7CA0180959091690289238093690293
:100EF000CBCF9BE5980F933020F490E080E00C94EA
:100F00004206885A873120F490E080E00C942C0649
:100F1000089510920A021092090210920802EFE658
:100F2000F0E08081816080830895CF93DF93CDB717
:100F3000DEB728970FB6F894DEBF0FBECDBF8C3753
:100F400024E1920770F469E070E00E946327CB010E
:100F500028960FB6F894DEBF0FBECDBFDF91CF91BC
:100F60000895B0E0A0E08A50974DAF4FBF4F2227C1
:100F7000382F492F5A2FCA01B90125EF38E241E035
:100F800050E00E94A62829833A834B835C83CA01E0
:100F9000B9010E9439279B01AC0169817A818B815B
:100FA0009C810E943927BB27A92F982F872F009754
:100FB00031E0A307B10561F68FEF9FEFC9CFCF9363
:100FC000DF9300D000D0CDB7DEB7803230F581118D
:100FD00025C090918000977F909380002F98282FB4
:100FE00030E0AFEFBFEF0E94C82869837A838B831C
:100FF0009C832FE130E040E050E00E94A628C90128
:101000000E94950790938D0080938C000F900F9015
:101010000F900F90DF91CF9108958FE19091800014
:10102000986090938000DBCF282F220F220F220F91
:1010300090918E029770922B90938E02987F21E070
:1010400009F420E090918E0220FB90F990938E029B
:101050000C94DF07FA0181110994FB01FDCF809107
:101060009102982F9E7F29F4817082608093910273
:1010700008958635E8F381708465F8CF8F929F924A
:10108000AF92BF92CF92DF92EF92FF920F931F9396
:10109000CF93DF93D82EC62EE901E42FF0E0E05C79
:1010A000FE4F611113C04491942FE42FE9834883CC
:1010B0009A83DF91CF911F910F91FF90EF90DF9076
:1010C000CF90BF90AF909F908F900895062F10E023
:1010D000E49186E0D89E700111242FEF30E0C70123
:1010E000B9010E9463278D2D90E0880F991FF5E5C7
:1010F000F69FA001F79F500D1124841B950B982F8C
:10110000990F890FA901401B510BE49FD001E59F66
:10111000B00D11244B2FC89E60011124CD2CDD246D
:101120005901AC18BD08EA9D6001EB9DD00C11245B
:101130009D2D4901881A9108809E5001819EB00C16
:10114000909EB00C1124AB2CBB242A193B09E29FC2
:101150008001E39F100D112463307105D1F08CEFF5
:10116000E81683E0F80670F461307105B1F0623082
:101170007105B9F08FEFE816F10408F097CF9B2FB7
:10118000412F94CF6430710579F066307105B9F361
:101190008DCF4D2D9E2FEB2F89CF4E2FED2D9B2FD9
:1011A00085CF912F4E2FF7CF9E2FE12F7FCFF89431
:1011B000E82FE295EF70F0E041A18F7021E030E080
:1011C000B90102C0660F771F8A95E2F7CB01962F0F
:1011D0009095942391A392A1892B82A3789408954A
:1011E0009091780292FF06C0282F28712830F9F4D8
:1011F000877F846093FF06C0282F28712831F1F47F
:10120000877E84612091790220FF06C0382F3871D3
:101210003830D9F4877F816021FF06C0282F2871DC
:101220002831D1F4877E816194FD877E0895282F2F
:1012300024712430F9F68B7F8860DCCF282F24714D
:10124000243101F78B7E8861DDCF382F3171313049
:1012500019F78E7F8860E0CF282F2171213121F787
:101260008E7E8861E1CFCF93DF9300D00F92CDB710
:10127000DEB79091B802943011F589836A837B833D
:101280009093E9008FEF9091E800815095FD06C0A2
:101290009AE69A95F1F700C08111F5CF8091E800A8
:1012A00085FF0DC050E040E063E070E0CE010196A4
:1012B0000E94E1038091E8008E778093E8000F9010
:1012C0000F900F90DF91CF910895BC0184E00C94B2
:1012D0003309BC0183E00C943309CF93DF93D82FFB
:1012E000C92F81E08093E9008FEF9091E800815051
:1012F00095FD06C09AE69A95F1F700C08111F5CFE9
:101300008091E80085FF16C050E040E068E070E0A2
:101310008D2F9C2F0E94E1038091E8008E778093AF
:10132000E80088E0ED2FFC2FA5EAB2E001900D92D5
:101330008A95E1F7DF91CF91089581E08093E000F5
:1013400080E28093D8001092C9008FE097E2019765
:10135000F1F700C0000087E090EBDC018093C00251
:101360009093C102A093C202B093C30288E19CE0B3
:101370000FB6F894A895809360000FBE909360001C
:10138000FFCF8091910280FD0AC0E8EAF1E011826E
:1013900010821282339651E0EC3CF507C1F7209A97
:1013A00035B13E7F25B121604FB7F89488EA91E0CE
:1013B000FC010196508168E025B957FF35B9550FFA
:1013C000000000C035B9000000C000C000C000C06F
:1013D00000C000C000C000C000C000C000C000C00D
:1013E00000C000C000C06A9539F751E08C3C9507F9
:1013F000F9F64FBF8FE292E00197F1F700C00000CD
:101400000895EF92FF921F93CF93DF93EC0188EA48
:10141000E82E81E0F82E10E08C8197014091940233
:1014200060919302810F0E943E081B5E83E0E80EEC
:10143000F11C1C3F89F70E94C1099A818C8190FFA1
:1014400008C08F5F8C83DF91CF911F91FF90EF9049
:1014500008958150F7CFCF92DF92EF92FF920F93D2
:101460001F93CF93DF93FC018281DD24DA9480FD0A
:1014700002C0DD24D39408EA11E0D0E0C0E0F80116
:1014800011821082128294E0E92EF12CC12C8091FD
:10149000A5018C0D8D30E4F16CE00E945527892F59
:1014A000082E000C990B8C179D0791F480919402E3
:1014B0008E9DA0018F9D500D1124559547955595F2
:1014C0004795980160919302809192020E943E0894
:1014D000CD0CF1E0EF1AF108D1F621960D5F1F4F08
:1014E000CC30D10561F60E94C1098091A50191E03F
:1014F000D91214C0811110C08BE08093A501DF9137
:10150000CF911F910F91FF90EF90DF90CF900895B2
:1015100087FFC6CF845FC4CF8150EFCF90E00196A4
:10152000BE010E947727E9CF0F931F93CF93DF93DC
:10153000C8EAD1E0FE01118210821282339681E066
:10154000EC3CF807C1F710E000E08091A601082EFE
:10155000000C990B081719078CF180911001082EC7
:10156000000C990B801791074CF19E014091940259
:1015700060919302809192020E943E080F5F1F4F7C
:1015800023960C30110509F70E94C10980910F01C3
:101590009091A601980F9093A60120911001280F19
:1015A00020931001121614F49B301CF08195809347
:1015B0000F01DF91CF911F910F9108951982188229
:1015C0001A82DCCFCF92DF92EF92FF920F931F939C
:1015D000CF93DF93CDB7DEB72E970FB6F894DEBF6B
:1015E0000FBECDBF8D879E87AD85BE8514961C919D
:1015F000212F30E0D9010E94C8289B01AC010E9434
:10160000932869837A838B839C83E0E2F0E0E11B7B
:10161000F109A5E5B0E09B01AC010E949328698720
:101620007A878B879C879F01DF010E9498279B0107
:10163000AC010E949E286D837E838F8398879B01D7
:10164000AC0189819A81AB81BC81280F391F4A1F67
:101650005B1F69857A858B859C850E94A628F22E62
:10166000822F90E0A9E2A21708F442C0B3E02B9FBA
:101670009001112435952795122F109598EAC92EBF
:1016800091E0D92E00E085E5E82EEF188E2D01FDC2
:101690008F2D9601412F609193020E943E080F5FAB
:1016A000F3E0CF0ED11C0C3089F70E94C109AD8543
:1016B000BE8514969C9181E0992319F0903219F41B
:1016C0008FEF8093110180911101890FED85FE85C7
:1016D00084832E960FB6F894DEBF0FBECDBFDF9188
:1016E000CF911F910F91FF90EF90DF90CF900895D1
:1016F00025E530E0F901E81BF90B9F01220F331FAC
:101700002E0F3F1F37FFB6CF2F5F3F4FB3CFEF9264
:10171000FF920F931F93CF93DF93EC0108EA11E040
:10172000F12CE12C60919302809192029C8126E041
:10173000E216F104FCF49923F9F098014091940227
:101740000E943E088FEFE81AF80A0D5F1F4F2CE049
:10175000E216F10439F70E94C1098C8190E00196EC
:10176000817099278C83DF91CF911F910F91FF900A
:10177000EF900895992309F3980140E0E1CF90910B
:10178000910290FF0CC0E8EAF1E08183608342831C
:10179000339691E0EC3CF907C1F70C94C109089528
:1017A0000F931F93CF93DF9300D00F92CDB7DEB787
:1017B0008C018091A70181110AC09E012F5F3F4FCC
:1017C0004FEF6FEF0E943E088A818093A701F801D6
:1017D0006481613049F06230F1F08091A70140E00E
:1017E000662331F040E019C06091A70140E080E03D
:1017F0000E94BF0BF801848190E0019663E070E0E5
:101800000E94772784830F900F900F90DF91CF91E4
:101810001F910F9108954091A70180E060E0E8CF0B
:10182000CF93DF9300D00F92CDB7DEB790919102A6
:1018300090FF0AC09E012F5F3F4F0E943E084B81E0
:1018400069818A810E94BF0B0F900F900F90DF91EA
:10185000CF910895CF93DF93EC01EC81F0E0EB5B47
:10186000FD4F4491E1E9F2E0628181810E94100C18
:101870008C818F5F8C83DF91CF910895CF93DF931D
:10188000EC01E1E9F2E0438162818C810E94100C5D
:101890008C818F5F8C83DF91CF9108956F927F92BF
:1018A0009F92AF92BF92CF92DF92EF92FF920F93EF
:1018B0001F93CF93DF939AE7E92E91E0F92E10E082
:1018C00000E0C0E0CC24C394D12C38E7A32E32E052
:1018D000B32ED7018D917D01F894E82FE295EF703A
:1018E000F0E021A18F70A60102C0440F551F8A9518
:1018F000E2F7CA01922F982B91A392A18095892398
:1019000082A3789450E55A95F1F7A601002E02C003
:10191000440F551F0A94E2F7BA0160957095E0E70D
:10192000F2E086E8682E81E0782ED0E021913191B6
:10193000D3019D903D01892D82958F7090E0DC014F
:1019400090968C9190E0B92DBF7002C095958795C7
:10195000BA95E2F780FD52C0C901842B952B281758
:10196000390739F09F0122503109D9018D939C9399
:10197000D1E0AE16BF06D1F6F701319780810E9403
:10198000D708CD2B0F5F1F4F0C30110509F0A1CFE9
:10199000CC23C1F181E08093A4010E945105909372
:1019A000A3018093A2018091A2019091A3010E94C2
:1019B0004205069758F180917002909171029093C0
:1019C0009702809396028091720290917302909395
:1019D000990280939802809174029091750290937D
:1019E0009B0280939A028091760290917702909365
:1019F0009D0280939C021092A40108C0C901862315
:101A00009723ADCF8091A4018111CDCF8C2FDF9191
:101A1000CF911F910F91FF90EF90DF90CF90BF90EB
:101A2000AF909F907F906F900895CF9384E090E067
:101A30000E942C28C82F81E290E00E942C28982F29
:101A40008C2FCF9108950F931F93CF93DF93C42FC3
:101A5000D0E0CC0FDD1F28E1629FC00DD11D112405
:101A600030E6839FC00DD11D1124CE0186960E94C1
:101A70002C28082F10E0102F0027CE0187960E94F7
:101A80002C289801282BC901DF91CF911F910F912C
:101A90000895462F672F843030F4743020F44C3092
:101AA00010F40C94230D90E080E00895CF93DF9321
:101AB0000E94490DEC01803E910509F45BC070F570
:101AC0008133910509F49EC090F48932910509F49F
:101AD00092C08A9709F49DC0C430D10550F591E0B9
:101AE00080E0219709F090E0C92FD82F22C08933D8
:101AF0009105C9F182389105B1F1C59709F474C017
:101B0000CF3BD10508F08CC0C83AD10508F00FC111
:101B1000C53AD10508F3A497D0640BC0843E910563
:101B200009F447C050F4823E910599F1833E910536
:101B3000A9F1CE01DF91CF910895863E910509F478
:101B400043C0873E910509F444C0811522E5920700
:101B500008F09BC0811531E5930790F2D82FCC2770
:101B6000C16FD06AE6CF80917802837011F3C0EE26
:101B7000D0E0DFCF8091780280FD0FC19091790293
:101B800090FFD7CFC3EED0E084FFD3CFD0E0C0E04A
:101B9000D0CF8091780282FDF5CFCBCF80917802B3
:101BA00082FDFEC09091790290FDE1CF84FFC1CF0C
:101BB000EDCF8091790281FFBCCF80917802C7EE92
:101BC000D0E084FDE3CFB5CF8091780283FDF7CFDD
:101BD000B0CF8091780283FDE6C09091790291FFA9
:101BE000E5CFC4EED0E0A5CF8091780285FFA1CFEC
:101BF000C9E2D0E09ECF8091780285FF9ACFC5E3FD
:101C0000D0E097CF8091780286FF93CFCAE2D0E0F0
:101C100090CF8091780286FF8CCFC1E3D0E089CF4E
:101C2000C11540E5D407A0F4C11580E4D80708F039
:101C300089C0C83ED10528F4C03ED10508F4A6CF1E
:101C400078CFCE019A9581159F4108F472CF9ECF2F
:101C5000CE01F4E096958795FA95E1F783702C2FE5
:101C600026952695237040E2249F90011124382B5D
:101C70008C2F8370C1E0D0E002C0CC0FDD1F8A95AD
:101C8000E2F7C22BD32BDC6854CFC11586E5D80709
:101C900030F5C11595E5D90708F066C0C11524E5F2
:101CA000D207C0F49C2F969596959E0123703327FA
:101CB000C115D34508F049C0C1E0D0E002C0CC0F47
:101CC000DD1F2A95E2F720E2929FC0011124C82B64
:101CD000D92BD9CFDC2FCC27C46FD06A2ACFC1151E
:101CE0003AE5D30788F4C11549E5D40708F047C0A1
:101CF000CE0198558F3F910511F008F047CFDC2FAA
:101D0000CC27C06FD06A15CFCE0190568115904276
:101D100008F03CCF8D2F8F710E94F00890E0982F33
:101D2000882788279F719C012C2BE90126C0C85A5F
:101D3000D0E0CC0FDD1FC45BDE4F0990D881C02DF1
:101D4000D464F7CEDF70D06AF4CEC1E0D0E002C038
:101D5000CC0FDD1F2A95E2F730E2939FC0011124DA
:101D6000C82BD92BDA68E5CE8C2F0E94F008C82F3B
:101D7000D0E0DC2FCC27CC27DF71D062DACE8C2FDD
:101D80008F700E94F00834E0D695C7953A95E1F738
:101D9000CF70DC2FC82FD069CCCEC9E3D0E0C9CE3C
:101DA000C2EED0E0C6CEC6EED0E0C3CEBF92CF9298
:101DB000DF92EF92FF920F931F93CF93DF938C01EB
:101DC000C090BC02D090BD02E090BE02F090BF0275
:101DD00080916B0290916C02A0916D02B0916E02A5
:101DE000C82AD92AEA2AFB2ACFE1D0E0BC2ED701A3
:101DF000C6010C2E04C0B695A795979587950A94B1
:101E0000D2F780FD0EC0219788F7B12C8B2DDF9182
:101E1000CF911F910F91FF90EF90DF90CF90BF90E7
:101E20000895B8018C2F0E94560D019761F3EECFF3
:101E3000CF93DF93D82FC92F0E94D60E6D2F7C2F02
:101E4000DF91CF910C94560D0E94180F282F892FE7
:101E50008F70392F32953F70903C80F43A30B0F457
:101E6000343020F4323090F480E008953630E1F7D9
:101E700081E0283E88F0213FB9F70EC03C3011F0D8
:101E80003F3091F7869586958695089581E0203FAD
:101E900039F018F4283E40F70895243F29F7FCCF85
:101EA00008956F927F928F929F92AF92BF92CF923E
:101EB000DF92EF92FF920F931F93CF93DF93D12C7A
:101EC000C12C3EE9A32EB12CE501C056D109360143
:101ED0001BC0F70185909490692DC8010E9440288D
:101EE000682DC80101960E94402822E0E20EF11CF4
:101EF0000E5F1F4FC017D10761F73CE0630E711CE6
:101F00006896CA15DB0559F0C301880F991F9C011B
:101F10002B533C4F79018E0108511109DACFCE01C4
:101F2000805A9F4F5C0190E3C90ED11CCE3BD1403B
:101F300059F6DF91CF911F910F91FF90EF90DF90B5
:101F4000CF90BF90AF909F908F907F906F900895AB
:101F5000682F86E090E00C94402880918E0281FFEB
:101F600011C08D7F80938E020E94A80F80916F0018
:101F70008E7F80936F0080918E02869586958695E0
:101F80000C94DF07089580918E0281FD07C0826066
:101F900080938E020E94A80F0C9489070895809167
:101FA0008E0280FD13C0816080938E02813019F40F
:101FB00089E080938E0280918E020E94A80F80910A
:101FC0008E028695869586950C94DF070895CF93AB
:101FD000DF93C6EAD1E060E0CE010E94402821965E
:101FE000C11584E0D807B9F7DF91CF910895CF9359
:101FF000C82F6FEF811161E282E290E00E944028D9
:102000006FEFC11162E083E290E00E9440286FEF21
:10201000C11165E184E290E0CF910C9440288F9249
:102020009F92AF92BF92CF92DF92EF92FF920F9367
:102030001F93CF93DF93FC01B280A48081E084835F
:10204000CCECD1E008EA11E08BE4982E882483944C
:10205000EE24EA94F12C2BE4C22ED12CA1101DC049
:102060001B821A8298014A81698188810E943E08F8
:1020700025960D5F1F4F82E0C830D80779F7DF91B2
:10208000CF911F910F91FF90EF90DF90CF90BF9075
:10209000AF909F908F900C94C1092B81222309F15E
:1020A00021502B833C81892D821B311101C0822F4D
:1020B00090919402899FC0011124B6010E94632768
:1020C0006A83211104C0332311F01C829B8222E019
:1020D0002B1540F28091920288838091930289832C
:1020E000C1CF0E940F28823091400CF0BBCF82E01C
:1020F0008B15C0F40E940F28B7010E9477278883B0
:1021000022E02B1590F40E940F282091930226952F
:10211000622F70E00E947727280F29831A829B8202
:102120008C82A0CF80919202EACF20919302F5CFCA
:1021300090E080E00E943A289C0181E02C3E3E4FD6
:1021400009F080E008956CEE7EEF90E080E00E9460
:102150005E2860E082E090E00E94402860E083E03A
:1021600090E00E94402810926B0210926C02109234
:102170006D0210926E0260E084E090E00E944028C0
:1021800060E081E290E00E94402860E085E090E01D
:102190000E94402860E086E090E00E9440286FEFB7
:1021A00087E090E00E94402840E050E0BA0188E0DB
:1021B00090E00E94522860E08DE090E00E9440286C
:1021C00040E050E0BA0188E190E00E94522860E0CF
:1021D00087E190E00E94402840E050E0BA018CE1A5
:1021E00090E00E94522860E080E290E00E94402847
:1021F00040E050E0BA0188E190E00E94522840E0BF
:1022000050E0BA018FE090E00E94522840E050E098
:10221000BA0183E190E00C9452280E949810811139
:1022200002C00E94A31086E090E00E942C28982F04
:1022300080938E02817090FF04C0892F86958695C9
:1022400086950C94DF070F931F93CF93DF938B0139
:10225000D82FC92F0E942F08A8016D2F7C2F88E04E
:1022600090E0DF91CF911F910F910C9452285F92D3
:102270006F927F928F929F92AF92BF92CF92DF9296
:10228000EF92FF920F931F93CF93DF9300D000D074
:1022900000D00F92CDB7DEB7182F762E042F622E06
:1022A0009091910290FF2BC0E92FE695AE2FB0E000
:1022B000AF5DBE4F8C9180938F029E7F9230A9F5C7
:1022C0009E012F5F3F4F812F0E943E084B81698105
:1022D0008A810E94BF0B1093920270929302009326
:1022E0009402662061F08091910290919202A091F7
:1022F0009302B0919402BC01CD010E942311279654
:102300000FB6F894DEBF0FBECDBFDF91CF911F9106
:102310000F91FF90EF90DF90CF90BF90AF909F9084
:102320008F907F906F905F900895823019F40091A4
:102330009402D1CF863019F410919202CCCF89301B
:10234000D9F3893141F6E9518E2F8170582EE695E7
:10235000F0E0E05CFD4FA590B490BB2488EAE82E45
:1023600081E0F82ED12CC12C9CE0892E912CC60145
:10237000B4010E946327812F511013C0860F97016B
:10238000402F672D0E943E08CA0CDB1C93E0E90E2B
:10239000F11CACECEA16A1E0FA0649F70E94C1096B
:1023A0009ACF861BECCFE1E9F2E043812AE0421BA1
:1023B00008F440E021E0628181810C943711E1E969
:1023C000F2E043812AE0420F08F44FEF21E06281FE
:1023D00081810C943711E1E9F2E062812AE0621B0D
:1023E00008F460E021E0438181810C943711E1E938
:1023F000F2E062812AE0620F08F46FEF21E043818E
:1024000081810C943711E1E9F2E0818121E043817F
:1024100062818A500C943711E1E9F2E0818121E078
:1024200043816281865F0C943711CF93DF9300D094
:1024300000D0CDB7DEB780919502882319F0815086
:10244000809395028091910290919202A0919302C3
:10245000B091940289839A83AB83BC83BC01CD0184
:102460000F900F900F900F90DF91CF910C9423114C
:10247000CF93DF9300D000D0CDB7DEB78091950227
:10248000833018F48F5F8093950280919102909130
:102490009202A0919302B091940289839A83AB83B4
:1024A000BC83BC01CD010F900F900F900F90DF9176
:1024B000CF910C942311CF93DF9300D000D0CDB7F0
:1024C000DEB7E1E9F2E083E0808311828FEF82835F
:1024D0008383148280819181A281B38189839A83CD
:1024E000AB83BC83BC01CD010F900F900F900F9078
:1024F000DF91CF910C94231110926902ECE9F1E085
:1025000086E0DF011D928A95E9F70C9458061F9327
:10251000CF93DF93CDB7DEB7AA970FB6F894DEBF9F
:102520000FBECDBF80EB92E0FC0101962091F1003F
:10253000208322E0883B9207B9F78091B10289306D
:1025400009F456C0C8F4823009F4B2C0833009F4EB
:1025500081C0813071F18091E80083FF35C18091A5
:10256000B0029091B1029A3008F02EC1E92FF0E04C
:10257000E752F74D0C948B278A3009F488C08B30D2
:1025800051F78091B002813231F78091B40290917D
:10259000B502892B01F78091E800877F8093E800DE
:1025A0000E9431048091B20280931C010E947C122F
:1025B000D2CF8091B002813A71F68091E800877F96
:1025C0008093E8008091B4029091B502892B61F468
:1025D00068E085EA92E070E00E94E3048091E80000
:1025E0008B778093E800B7CF60E090E080E0F3CF96
:1025F0008091B002813209F0AECF8091B402909107
:10260000B5028D7F892B09F0A6CF8091E800877FE6
:102610008093E8008091E80082FF17C09091F3005A
:102620008091F200029729F48091F1008B7F813034
:1026300021F48091F1008093A4028091E8008B77CF
:102640008093E8000E94310486CF8091B802811106
:10265000E1CF81CF8091B002813A09F07CCF8091A7
:10266000B4029091B502892B09F075CF8091E800F2
:10267000877F8093E8008091E80080FFFCCF809105
:102680001C018093F1008091E8008E77D9CF809172
:10269000B002813209F05FCF8091E800877F80939C
:1026A000E8000E9431048091B3028093A30253CFCB
:1026B0008091B002813A09F04ECF8091E800877F87
:1026C0008093E8008091E80080FFFCCF8091A30216
:1026D000D8CF803899F0823809F076C08091B40262
:1026E0008F70873008F070C08093E9008091EB0014
:1026F00085FB882780F91092E90006C08091AD0221
:102700009091AE02911182609091E800977F909332
:10271000E8008093F1001092F1008091E8008E773C
:10272000B4C1882309F4A1C1823009F04DC0809161
:10273000B2028111A5C18091B4028F702FEF280FD2
:10274000263008F041C08093E9002091EB0020FF83
:1027500097C1933031F48091EB0080628093EB005D
:102760008FC19091EB0090619093EB0021E030E0FD
:1027700001C0220F8A95EAF72093EA001092EA003E
:102780008091EB008860EACF81111EC01091B202E7
:102790001F778091E3008078812B8093E300809104
:1027A000E800877F8093E8000E9431048091E80070
:1027B00080FFFCCF8091E30080688093E30082E09B
:1027C000111183E08093B8028091E80083FF0AC072
:1027D0008091E800877F8093E8008091EB00806221
:1027E0008093EB00AA960FB6F894DEBF0FBECDBF64
:1027F000DF91CF911F9108958058823028F7409142
:10280000B2025091B3024C3D83E05807A1F583E03A
:102810008A838AE289834FB7F894DE01139620E019
:102820003EE051E2E32FF0E050935700E49120FFA7
:1028300003C0E295EF703F5FEF708E2F90E0EA30BB
:10284000C0F0C7968D939D932F5F243159F74FBFEA
:102850008091E800877F8093E8006AE270E0CE0113
:1028600001960E94E3048091E8008B778093E80052
:10287000ABCFC096E7CF8091B4029091B502252FDF
:1028800033272330310509F44AC078F5213031056A
:1028900009F479C08BE590E0EAEFF5E022303105EC
:1028A00009F092CF2091E800277F2093E800209143
:1028B000B6023091B7028217930708F49C0140E0FA
:1028C0002115310509F064C0411162C08091E80012
:1028D00082FDC9CF8091B802882329F2853019F290
:1028E0008091E80083FFF2CFBECF2132310509F499
:1028F0003BC02232310509F067CF8330910508F0E3
:1029000063CFFC01EE0FFF1FE357FE4F0190F081F4
:10291000E02D86579E4FDC018C9190E011C0CA01DA
:102920009927413089F082309105B1F0892B09F067
:102930004BCFEBE8F6E0E4918E2F90E0EBE8F6E089
:10294000009709F441CFAECFE7E7F6E0E4918E2F90
:1029500090E0E7E7F6E0F4CFE7E6F6E0E4918E2FCB
:1029600090E0E7E6F6E0ECCF8330910508F02CCF5D
:10297000880F991FFC01ED56FE4F0190F081E02D6C
:1029800089E090E08FCF82E190E0E5E5F6E08ACF44
:102990008091B802882309F466CF853009F463CFAB
:1029A0008091E80083FD5FCF8091E80082FD8ECFAB
:1029B0008091E80080FF84CF9091F3008091F20035
:1029C0002115310519F08830910550F041E0089744
:1029D00009F040E08091E8008E778093E80070CFA6
:1029E00044914093F1003196215031090196E8CF8E
:1029F000803809F0E9CE8091E800877F8093E80075
:102A00008091AF028093F10088CE8111DDCE1091CC
:102A1000B202123008F0D8CE8091E800877F809310
:102A2000E8001093AF020E943104112311F084E0FA
:102A300005C08091E30087FDFACF81E08093B80262
:102A400042E061EC81E00E94500442E261EC84E0EB
:102A50000E94500442E261EC82E00E94500442E293
:102A600060EC83E00E945004AFCE8091B2028130CE
:102A700009F0AACE81E0933009F080E08093AE02A5
:102A80001092E9008091E800877F8093E8000E941F
:102A900031049ACE0F931F93CF93DF9300D000D0D1
:102AA000CDB7DEB741E050E060E070E08A019B0105
:102AB00004C0000F111F221F331F8A95D2F709830C
:102AC0001A832B833C83C901B8010E941D070F9014
:102AD0000F900F900F90DF91CF911F910F910C9459
:102AE0007C128B3258F48530C0F0EBEFE80FE63201
:102AF000A0F4F0E0ED51F74D0C948B27833450F4A3
:102B00008A3308F05BC0853309F454C0883329F454
:102B100081E00895833409F44DC080E008950E9457
:102B2000A310F6CF80918502807F8093850281E09B
:102B300080936F0208950E947C122FE78AE196E04D
:102B4000215080409040E1F700C000000E949D09A4
:102B500090918502892F8E7F90FF816080938502FE
:102B600080FDD6CF817F80938502D2CF9091850260
:102B7000892F8D7F91FF82608093850281FFC8CF6E
:102B8000809185028160EFCF90918502892F8B7FA4
:102B900092FF84608093850282FDF2CFB9CF90913D
:102BA0008502892F877F93FF88608093850283FD4C
:102BB000E7CFAECF80E00E944A15AACF8953FBCF62
:102BC0008D51F9CFCF93C82F882309F469C082387B
:102BD000C1F40E94270781FD63C089E30E949D051F
:102BE0000E9463052FEF30E782E0215030408040A3
:102BF000E1F700C0000089E30E949005CF910C949A
:102C000063058338A1F40E94270780FD49C083E54E
:102C10000E949D050E9463059FEF20E732E09150DE
:102C200020403040E1F700C0000083E5E5CF843864
:102C3000A1F40E94270782FD33C087E40E949D050E
:102C40000E9463058FEF90E722E081509040204082
:102C5000E1F700C0000087E4CFCF8CEF8C0F813A02
:102C6000B8F580916F02882391F08130D9F01092ED
:102C70006F02ECE9F1E08191C81709F453C031E02B
:102C8000E23AF307C1F78C2F0E949D05B7CF8091E0
:102C90006902823271F78C2F0E947115882349F3E3
:102CA000CF910895809169028232A9F3C93269F007
:102CB00038F481E0CB3039F0C43139F080E003C022
:102CC00081E0C833D9F78170E9CF10926F02F6CF57
:102CD00080E28C0F883068F4C77021E030E001C0DA
:102CE000220FCA95EAF780916902822B80936902CC
:102CF00085CF8BE58C0F833038F42C2F2452330B87
:102D0000C901CF910C944206C85AC73148F6EC2F3E
:102D1000F0E0EE0FFF1FE45BFE4F80819181CF91C9
:102D20000C942C068C2F0E9490050E946305ABCF5B
:102D3000CF93C82F0E94E215C93349F42FEF83EFD8
:102D400091E0215080409040E1F700C000008C2FBE
:102D5000CF910C943307FF920F931F93CF93DF9380
:102D6000C62FD42F122FFC0182818823A9F06093F3
:102D7000BB020E9451059093BA028093B902C770BA
:102D800081E001C0880FCA95EAF7DF91CF911F91CA
:102D90000F91FF900C9422068091BB02681334C0FF
:102DA0008091B9029091BA020E944205883C910537
:102DB00058F500E20D0FCD17A9F0C770FF24F3946A
:102DC0008F2D01C0880FCA95EAF70E9417060830B8
:102DD00048F48D2F877001C0FF0C8A95EAF78F2D7C
:102DE0000E942206812F0E9498160830A0F4D77006
:102DF00081E001C0880FDA95EAF7DF91CF911F914A
:102E00000F91FF900C941706C77081E001C0880FE6
:102E1000CA95EAF7F2CFDF91CF911F910F91FF9002
:102E20000895CF93DF9300D000D0CDB7DEB7909157
:102E3000910290FF49C09170811135C092609093CA
:102E40009102662381F08091910290919202A0916B
:102E50009302B091940289839A83AB83BC83BC01B3
:102E6000CD010E94231160919102669570E04BE0C4
:102E700050E084E091E00E941F28892BD9F0109245
:102E8000900281E08093810220E040919402609161
:102E90009302809192020F900F900F900F90DF910C
:102EA000CF910C9437118B3210F09465C8CF880FF6
:102EB000982BC5CF81E0809390020E94510590939A
:102EC0007F0280937E02DDCF0F900F900F900F90C6
:102ED000DF91CF9108959091910296958FEF890F90
:102EE000913009F48AE261E00C941117809191020B
:102EF00086958F5F8B3208F081E061E00C941117AA
:102F00009091910290FF07C09695981720F0961720
:102F100010F40C94761761E00C9411175F926F9285
:102F20007F928F929F92AF92BF92CF92DF92EF9259
:102F3000FF920F931F93CF93DF93CDB7DEB72997FF
:102F40000FB6F894DEBF0FBECDBF7C01DC01139637
:102F50008D919C911497892B39F08C9111969C91AD
:102F600089238F3F09F03AC629960FB6F894DEBF41
:102F70000FBECDBFDF91CF911F910F91FF90EF90CA
:102F8000DF90CF90BF90AF909F908F907F906F9089
:102F90005F9008950E94D60E182F682F89819A811C
:102FA0000E94DF0569817A81812F0E94490D8C0181
:102FB000F7019281992309F4C0C5980122513F4538
:102FC0002031310508F0A5C58FEF93E00E942C2831
:102FD000025136EA832E99249394882381F18091BB
:102FE0006602877009F4C0CFD70112968C918823AE
:102FF00009F4BACF82E029960FB6F894DEBF0FBE6F
:10300000CDBFDF91CF911F910F91FF90EF90DF9097
:10301000CF90BF90AF909F908F907F906F905F9078
:103020000C94D4068114F4E09F06C9F2C4010E94F6
:103030002C28811101C001501FEF811A910A011142
:10304000F1CF80911D0190911E01A0911F01B091BF
:10305000200189839A83AB83BC83662463942AE02E
:10306000522E84010F5F1F4FC4010E942C288983B8
:103070001A82882309F4B3CF9FEF980F933020F57D
:103080008A83698222E0820E911CC8010E942C284A
:103090008B83882309F4A3CF8E010F5F1F4FD801C4
:1030A0002C912223F1F2213009F046C011969C9117
:1030B000119712968C91913049F40E5F1F4F0E9428
:1030C00098160F5F1F4FEBCF4801E6CF923029F4DF
:1030D0000E5F1F4F0E94E215F4CF933029F40E5F6C
:1030E0001F4F0E943307EDCF943019F00F5F1F4F31
:1030F000E8CF0E5F1F4F30E020E0B8016F5F7F4FD9
:10310000F80141818053990B8A30910550F021508C
:103110003109B8F28FEC97E00197F1F700C0000099
:10312000F6CF529EF001539EF00D11249C012E0FFC
:103130003F1F842F8B01E1CFE22FF0E0EB59FA4FD4
:103140007490822F86958695869590E0FC01EB5AC7
:10315000FA4FA4902770B12C022E02C0B594A79408
:103160000A94E2F7A1E0AA22BB24FC01EB5BFA4F30
:10317000C490D12C02C0D594C7942A95E2F7B1E04F
:10318000CB22DD24A114B10419F081EE0E94E215D6
:10319000C114D10419F086EE0E94E215872D0E9419
:1031A0009816CD2819F086EE0E943307AB2809F453
:1031B00088CF81EE96CF81E00E94EC060E947006D7
:1031C0000ECF81E00E949F06F9CF82E0F5CF82E02A
:1031D000F9CF8FE10E94140880918E020E94A80FFF
:1031E000FECE80E0F7CF80918E02982F987F885096
:1031F000911126C080918E028695869586950E94B3
:10320000DF07EDCE80918E02982F987F983F19F0BE
:10321000885F80938E0280918E0281601BC08091B6
:103220008E0280FF07C08E7F80938E020E94A80FBF
:1032300080E0E5CF0E94CF0FD2CE80918E02885FD2
:1032400080938E02887F91E009F490E080918E0255
:1032500090FB80F980938E020E94A80FCBCF8091C3
:103260008E0281FF03C00E94AD0FB9CE0E94C30F32
:10327000B6CE063F5CE51507E1F0073F6CE51607A3
:10328000E1F027E245EE64EE053F7CE5170709F023
:1032900076C4C7010E94AB16A2CE26E241EE61EED3
:1032A000F8CF27E245EE65EEF4CF26E241EE60EE80
:1032B000F0CF26E241EE62EEECCF27E245EE66EE7D
:1032C000E8CF98012B5F3C452930310508F466C4EE
:1032D0000631BCE51B0709F0B7C0809169028A7A04
:1032E00091E009F490E090930F028111A9C089E266
:1032F0000E949D050E94630572CEF801E350FC45D3
:10330000809178028160E331F10590F4E75FF64D3A
:103310000C948B270B5F1C450930110508F04EC437
:10332000045E164DF8010C948B2780917802826020
:103330008093780243C4809178028460F9CF8091B1
:1033400078028860F5CF809179028160809379025C
:1033500035C4809179028260F9CF809178028061D2
:10336000E7CF809178028062E3CF80917802806419
:10337000DFCF0E947C12809178028068D9CF809143
:1033800078028C60D5CF809179028360DFCF809105
:1033900078028E7FCDCF809178028D7FC9CF8091CA
:1033A00078028B7FC5CF80917802877FC1CF8091D3
:1033B00079028E7FCBCF809179028D7FC7CF8091AC
:1033C00078028F7EB5CF809178028F7DB1CF8091CA
:1033D00078028F7BADCF0E947C12809178028F772C
:1033E000A7CF80917802837FA3CF809179028C7FD1
:1033F000ADCF8091780282FB992790F921E0922746
:1034000090FB82F990FB83F993CF80917902982FFA
:10341000909591708E7F892B90FB81F997CF0E94B8
:103420007C1290917802892F97FB87F9805880CF82
:1034300061E08EE090E00E944028C0C360E0F9CFD8
:1034400085E356CF85E3E6C3809169028272F80175
:10345000E35CFC45E431F10508F082C0EB5DF64D1C
:103460000C948B278091910280FF21C08E7F8093E6
:103470009102009191021091920220919302309159
:1034800094020E831F8328873987C901B8010E94DF
:103490002311109290021FE728E331E011502040E1
:1034A0003040E1F700C000000E94C10998CD816062
:1034B0008093910261E086950E94111790CD4BE6B2
:1034C00057E166E777E10E942A0889CD46E757E190
:1034D0006BE677E1F8CF43E052E16CE072E1F3CFC5
:1034E0004CE052E163E072E1EECF4BEE51E167EF69
:1034F00071E1E9CF47EF51E16BEE71E1E4CF43EDCC
:1035000051E16FED71E1DFCF4FED51E163ED71E11D
:10351000DACF45E152E168E372E1D5CF48E352E109
:1035200065E172E1D0CF61E081E0C6CF65E082E085
:103530000E94801754CD68E086E0FACF6EE089E003
:10354000F7CF64E18FE0F4CF67E185E1F1CF61E08F
:1035500088E1B2CF62E289E1EBCF61E083E2ACCFF8
:10356000992349F001154CE5140709F46CC00F3D8F
:103570001C4509F475C0F701C080D180992309F476
:1035800072C0C6010E94D60E182F682FC6010E9475
:10359000DF05B601812F0E94560D8C01982ED701B0
:1035A0001596CC901597C2949FE0C9221296DC9094
:1035B000D1101092680280916602877099F0DD2028
:1035C00089F0812F807F803421F080E2800F883065
:1035D00048F082E00E94D406809166028770AA2497
:1035E000A3948111A12CB12EB2948FE0B822B8E03F
:1035F000BB1609F41AC1BB1508F472C0E3E0EB1561
:10360000B8F1812F807F1F70F1E0FB1508F07BC0BF
:10361000803211F01295107F992009F4ADC051E06D
:10362000951609F4CAC0DD2009F4D4C0CC2009F4F1
:10363000CAC0D70115968C91159780FF7AC08F70FC
:1036400015968C93C0C00E947C126FE77AE186E0E9
:10365000615070408040E1F700C000000E949D0969
:103660000E94A310BCCCC6010E94B605182F91CFB2
:1036700024E0B21609F4BFC0AB2DA850BB0B1497C1
:1036800010F40E942707AA2009F46ECC80916602EC
:1036900080FD6ACCF70112828595859585950E94FB
:1036A000EC06C7010E948E1780916602859585956C
:1036B000859529960FB6F894DEBF0FBECDBFDF917A
:1036C000CF911F910F91FF90EF90DF90CF90BF901F
:1036D000AF909F908F907F906F905F900C949F061B
:1036E00039E0B31609F48FC186E08B0D8F708230FC
:1036F00018F6802F42EF941295C1812F8F71DD2033
:1037000009F4D4C18CC1882311F01295107F802F49
:10371000DD20C9F0112369F090E2900F983010F08D
:1037200001110BC080916902182B109369020E944D
:103730006305802F0E94E2159FCF80916802182BAD
:1037400010936802F4CF0E943307112309F494CF39
:103750001095005E083010F0911008C08091690249
:103760001823109369020E94630586CF8091680236
:10377000182310936802F7CFDD2091F090916A0230
:10378000812F892BC11003C00E94220675CF61E0F2
:10379000C612FACF981709F46FCF80936A026CCFE4
:1037A000C11006C00E945D05812F0E94170664CFDC
:1037B00071E0C71609F460CFF5CFDD2031F085E068
:1037C0008C1508F459CF812FDFCF94E09C1508F4B5
:1037D00053CFEACFCC2041F3093349F4BFEFE3EFF5
:1037E000F1E0B150E040F040E1F700C00000802F70
:1037F0000E94330741CF812F86958695837061F0B3
:10380000813009F039CFC8019370D11002C090E027
:1038100080E00E942C0630CFC8019370D11002C006
:1038200090E080E00E94420627CF812F837009F04C
:1038300072C0D11021CF202F229526952770220FFC
:10384000220F402F4F7050E070E060E0022E04C065
:10385000440F551F661F771F0A94D2F780E090E04F
:10386000DC0104FF0FC08FE090E0A0E0B0E004C0F6
:10387000880F991FAA1FBB1F2A95D2F78095909594
:10388000A095B095E12FE695E695E370E23051F111
:10389000E33009F100916B0210916C0220916D02EE
:1038A00030916E02E13099F0842B952BA62BB72B2B
:1038B000AC01BD0140235123622373234E835F83F8
:1038C00068877987CB01BA010E941D07D5CE402BAE
:1038D000512B622B732B8A019B01082B192B2A2B4E
:1038E0003B2B12C0842B952BA62BB72B40916B0240
:1038F00050916C0260916D0270916E028C019D017D
:1039000004271527262737270E831F832887398703
:10391000C901B801D9CF8695DD2011F0812F8170C2
:10392000882309F4A9CE202F229526952770220FEF
:10393000220F402F4F7050E070E060E0022E04C074
:10394000440F551F661F771F0A94D2F780E090E05E
:10395000DC0104FF0FC08FE090E0A0E0B0E004C005
:10396000880F991FAA1FBB1F2A95D2F780959095A3
:10397000A095B095E12FE695E695E370E23081F1F0
:10398000E330F9F00091BC021091BD022091BE021B
:103990003091BF02E13089F0842B952BA62BB72BF9
:1039A000AC01BD0140235123622373234E835F8307
:1039B00068877987CB01BA0110C0402B512B622B4D
:1039C000732B8A019B01082B192B2A2B3B2B0E836F
:1039D0001F8328873987C901B8010E9466064CCE2B
:1039E000842B952BA62BB72B4091BC025091BD0286
:1039F0006091BE027091BF028C019D0104271527C2
:103A000026273727E4CF1F70DD2029F0812F0E9461
:103A1000EC06802FB9CE802F0E941706812F0E94BE
:103A20009F062ACE22EF291570F030EF931609F188
:103A300041EF9416B1F1DD2009F45BC0C11079CEDD
:103A4000812F8F7133C053EF951699F164EF961261
:103A5000F2CFDD2009F442C01F71812F0E94EC06D5
:103A600058E0159FC0011124836080936602812F66
:103A70001DC0DD2089F074E07C1508F4FDCD1F71B8
:103A800081E090E0A0E0B0E004C0880F991FAA1F79
:103A9000BB1F1A95D2F7A8CF25E02C1508F4ECCD62
:103AA000EECF812F8F71DD2009F4B9CF0E94EC0693
:103AB000E3CD60E070E0CB01DD2009F48ECF1F7113
:103AC00081E090E0A0E0B0E0AC01BD0104C0440F93
:103AD000551F661F771F1A95D2F768CF81E00E94A5
:103AE000D40661E06C1508F0C7CD82E00E94D406D0
:103AF000C3CDCC2059F0893309F079CE7FEF83EF25
:103B000091E0715080409040E1F76FCE812F8F712E
:103B100086CF0031FFE51F0709F44DCB01312FE5BA
:103B2000120709F452CBF801EC5BFC45E730F105D4
:103B300070F4E75CF64D0C948B2700313FE51307DA
:103B400009F43FCB01314FE5140709F440CB043FA2
:103B5000ECE51E0709F4A9CB08F08BCB093D2CE559
:103B6000120709F49ECB28E241E00A3D3CE5130729
:103B700009F499CB083D4CE5140709F48ECB992341
:103B800009F43FC01092BB0206318CE5180708F01B
:103B900098CB0230ACE51A0708F456CC0E94150DFC
:103BA00090937902809378020631BCE51B0708F0F8
:103BB000B1CB0230ECE51E0708F09FCB6091780294
:103BC0001091790284E090E00E944028612F81E208
:103BD00090E00E9440280E947C1201CA85E0F70113
:103BE000DE01119601900D928A95E1F7D7011296A8
:103BF0002C9189819A812111CDC90E94B605182F77
:103C0000D1C906311C4509F0B6CC80910F02811153
:103C100019CC89E20E9490056DCB1F93CF93DF935F
:103C200080911502807FA9F480911202882389F087
:103C300080914702D091160260911002709111029A
:103C4000A0911302B0911402C62FC72316E0D81317
:103C500004C0DF91CF911F91089590E0109711F06B
:103C6000CF3F19F401968770F2CF189F9001199FEA
:103C7000300D1124F901E95EFD4F41814713F2CF68
:103C800040814613EFCF42814111ECCF43815481F3
:103C90004A1B5B0B483C510528F7809115028F7039
:103CA000806180931502F901E45EFD4F80818F7081
:103CB0008061808380E192E00E948E17DF91CF9136
:103CC0001F910C940D06AF92BF92CF92DF92EF92AC
:103CD000FF920F931F93CF93DF93CDB7DEB72B9750
:103CE0000FB6F894DEBF0FBECDBF8C0185E0F801A2
:103CF000DE01179601900D928A95E1F7F801808117
:103D00009181E28020E1A22E22E0B22E6091130286
:103D1000709114026115710509F421C130911002EE
:103D200040911102242F23232F3F09F418C1C3808F
:103D3000D480F0901202F601E61BF70BFF2009F485
:103D4000DFC020911502522F507FE83CF10508F0AA
:103D5000BAC0511177C0FE2C491321C038131FC0BF
:103D6000E1101DC02F70206120931502C5010E9433
:103D70008E1780911502F80185838F2D2B960FB633
:103D8000F894DEBF0FBECDBFDF91CF911F910F9191
:103D9000FF90EF90DF90CF90BF90AF900895CD2827
:103DA00029F0282F29232F3F09F0F7C020E0F22F18
:103DB000F170DF2EE09147024091160256E020FD9F
:103DC0001CC0EE20D1F28091150281608093150213
:103DD000F12CD3CF2E2F30E05E9FF0011124E95E4D
:103DE000FD4F6181961306C06081861303C0628116
:103DF000E612E7CFF9013196E770E413EBCF8F833A
:103E000098878F8198850E94180F292F22952F70EF
:103E1000903260F0225F2F70223078F49F7051F062
:103E2000F8019581907F31F4D12C0AC09F7011F078
:103E30008823D1F3805E8830B8F3C8010E948E17C2
:103E4000FD2C9BCF491312C0381310C0E1100EC0D7
:103E5000F8012583C8010E948E1786E0F801A0E1D1
:103E6000B2E001900D928A95E1F787CF8F83988712
:103E70008F8198850E94240F882309F1EE20F9F0A4
:103E800080911502803270F0209110023091110261
:103E90003A8329831B82DD82CC828E83CE010196F8
:103EA0000E948E1786E0F801A0E1B2E001900D9229
:103EB0008A95E1F70E940D1EFF24F3945ECFC8019E
:103EC0000E948E17F9CF51110AC080E192E00E9442
:103ED0008E1786E0F50111928A95E9F779CF49139B
:103EE000C5CF3813C3CFE110C1CFF8012583C80176
:103EF0000E948E1786E0F50111928A95E9F73DCF71
:103F0000E83CF105B8F7FE2CEE20C9F2491316C0C3
:103F1000381314C08091150280FD9FCF982F907F99
:103F200009F49BCFF8018583903F09F493CF982F34
:103F3000907F905F8F70892B85838CCF8F8398873C
:103F40008F8198850E94240F8111ACCF809115023A
:103F5000816080931502C8010E948E170ECFEE205B
:103F600009F4ADCF8F8398878F8198850E94240FA5
:103F7000F82E882309F4A3CF86E0F801A0E1B2E08F
:103F800001900D928A95E1F78091100290911102B3
:103F90000E94180F0E940D1EF0CE21E02E2507CFA3
:103FA0001F93CF93DF93CDB7DEB767970FB6F89423
:103FB000DEBF0FBECDBF4B8B5C8B6D8B7E8B8F8B33
:103FC0001A8A85E0FE017396DE011D9601900D921E
:103FD0008A95E1F786E0FE013D96DE011796019095
:103FE0000D928A95E1F7CE0107960E94631E882301
:103FF00089F016E0809147029091160289134FC014
:1040000067960FB6F894DEBF0FBECDBFDF91CF919C
:104010001F91089586E0FE013796DE01119601900A
:104020000D928A95E1F74A855B854115510509F3A3
:104030007F816885862F87238F3FD9F220911602D2
:1040400030E0C901019687709927E0914702E8178F
:10405000190671F40E947C12109216021092470207
:1040600086E0E0E1F2E0DF011D928A95E9F7C1CF39
:1040700079836A835D834C8396E0929FD001939FFE
:10408000B00D1124A95EBD4FFE01319601900D9235
:104090009A95E1F7809316020E940D06AACF819FA0
:1040A000C0011124895E9D4F0E94631E882309F47C
:1040B000A7CF8091470290E001968770992780935F
:1040C000470298CF1F920F920FB60F9211242F9391
:1040D0003F934F935F936F937F938F939F93AF9390
:1040E000BF93CF93DF93EF93FF93D091E900DF70FD
:1040F0008091EC00C82FC17080FDC0E81092E900EB
:104100008091F000877F8093F00078940E9487125E
:104110001092E9008091F00088608093F000CD2B30
:10412000CF70C093E900FF91EF91DF91CF91BF91E4
:10413000AF919F918F917F916F915F914F913F913F
:104140002F910F900FBE0F901F9018951F920F92F6
:104150000FB60F9211242F933F934F935F936F935A
:104160007F938F939F93AF93BF93EF93FF93809130
:10417000E10082FF09C08091E20082FF05C08091CA
:10418000E1008B7F8093E1008091DA0080FF23C003
:104190008091D80080FF1FC08091DA008E7F8093CD
:1041A000DA008091D90019BC80FF9CC082E089BDF3
:1041B00009B400FEFDCF81E08093B8028091A20295
:1041C000811109C00E9491030E9482048091E20043
:1041D00084608093E2008091E10080FF17C08091AD
:1041E000E20080FF13C08091E2008E7F8093E200A6
:1041F0008091E20080618093E2008091D80080622B
:104200008093D80019BC85E08093B8028091E100CA
:1042100084FF2CC08091E20084FF28C019BC82E09A
:1042200089BD09B400FEFDCF8091D8008F7D8093B9
:10423000D8008091E1008F7E8093E1008091E200C0
:104240008F7E8093E2008091E20081608093E200A3
:104250008091AF02882309F44AC084E08093B802B9
:104260000E947C120E940D110E9427078091E1009C
:1042700083FF27C08091E20083FF23C08091E1008B
:10428000877F8093E10082E08093B8021092AF02B2
:104290008091E1008E7F8093E1008091E2008E7F2B
:1042A0008093E2008091E20080618093E20042E02E
:1042B00060E080E00E9450048091F000886080936C
:1042C000F000FF91EF91BF91AF919F918F917F91FE
:1042D0006F915F914F913F912F910F900FBE0F9073
:1042E0001F9018951092B8021092A20274CF80917C
:1042F000E30087FD02C081E0B1CF83E0AFCFCDB74F
:10430000DEB7A4970FB6F894DEBF0FBECDBF84B75B
:10431000877F84BF0FB6F894A8958091600088616C
:1043200080936000109260000FBE80E890E00FB6AE
:10433000F89480936100909361000FBE85B7806808
:1043400085BF85B7806885BF0E9491030E94820463
:104350008091E20084608093E20078948091B802BA
:104360008823A1F01091E9001F709091EC00892F33
:10437000817090FD80E8182B1092E9008091E80090
:1043800083FD0E9487121F701093E90082E084BDB4
:1043900093E095BD9DE797BD80936E000AE711E01D
:1043A000E6E8EE2EE1E0FE2ED8018D918D010E940F
:1043B000D708E016F106C1F787E90E94D70886E61C
:1043C0000E94D70887E60E94D70885E30E94D70895
:1043D000109271021092700210929702109296023F
:1043E0001092730210927202109299021092980227
:1043F000109275021092740210929B0210929A020F
:10440000109277021092760210929D0210929C02F6
:104410000E944E0CEFE1FEE43197F1F700C000007E
:104420000E944E0C8091960280FF0BC080E00E949B
:10443000F70F6FEF7FEF90E080E00E945E280E9410
:104440009D090E949810811102C00E94A310279A12
:104450002F988AE08093800089E1809381008FEF1C
:104460009FEF90938700809386000E940D118091AA
:104470008E0281FD0E948907809191028160809364
:10448000910261E086950E94111721E04FEF60E0F4
:1044900080E00E9437110E94CF0F0E94890782E2BC
:1044A00090E00E942C28813209F01DC483E290E044
:1044B0000E942C28823009F016C484E290E00E9409
:1044C0002C28853109F00FC40E949810811102C078
:1044D0000E94A31082E090E00E942C288093850225
:1044E0000E94150D909379028093780283E090E00A
:1044F0000E942C28282F30E050E040E029A33AA366
:104500004BA35CA3CA01B9010E941D070E940D11B3
:1045100080917A02811133C00E949810811104C0E9
:104520000E94A3100E945B1288E090E00E94342851
:1045300060939102709392028093930290939402FD
:104540006E7F71F40E945B1288E090E00E94342834
:1045500060939102709392028093930290939402DD
:104560000E942F08109290028091910280FF04C057
:1045700060E086950E94111781E080937A0282E1C3
:1045800091E090937C0280937B025FE1E52EF12C19
:10459000CC24CA94D12C78EE672E75E0772E8091CA
:1045A000B802853009F4B7C00E944E0CA6E9B2E00B
:1045B000E6E8F2E010E000E0702F8D919D912191EE
:1045C00031912817390709F4EAC02827392760E014
:1045D000AA24A394B12CA9014A215B21452B09F4FB
:1045E000D8C069837A839C012A213B2191E0232B47
:1045F00009F490E09B830E9451058160782F9D8390
:104600008C8349815A816B818D810E94D01F000F5C
:10461000111FF801EA57FD4F80819181A826B92624
:10462000B182A08280919002882309F441C08091D8
:104630008F02E0919102E695E81BE09380028230C0
:1046400009F0C4C0F0E0EA50FA4FE4910E2F10E0F8
:104650008AE2A82E8CE0B82E80918102882389F00E
:10466000109281020E945105980120953095280FE3
:10467000391F30937F0220937E02109283021092A2
:10468000820280917E0290917F020E9442058017F3
:10469000910770F0E0917E02F0917F020E0F1F1FD4
:1046A00010937F0200937E028EE792E0F501099558
:1046B0000E94270790918402891721F00E94270702
:1046C000809384028091B802843009F068CF83E03F
:1046D0008093E9008091E80082FF61CF8091E8003B
:1046E00090E085FF06C00E94B003882309F4D9C07A
:1046F00091E08091E8008B778093E800992309F49A
:104700004ECFE981E150E33108F04CC1F0E0E05CCC
:10471000F64D0C948B278091B802843039F11092B9
:104720007D0288E190E020E40FB6F894A89580938C
:1047300060000FBE2093600080E00E94DF0783B717
:10474000817F846083BF83B7816083BF78948895BD
:1047500083B78E7F83BF0FB6F894A89580916000D1
:10476000886180936000109260000FBE8091AE025D
:10477000882309F414CF0E944E0CE6E9F2E08191FF
:104780009191892B09F09AC232E0EE39F307B9F71B
:1047900006CF6F5FAA0CBB1C6C3009F01CCF0F5FFB
:1047A0001F4F0430110509F007CF8FEF89838A83EB
:1047B0001B820E9451058160782F9D838C834981E3
:1047C0005A816B818D810E94D01F2CCF863059F485
:1047D000F0E0ED50FA4FE4910E2F10E0BEE3AB2E67
:1047E000BCE0BB2E39CF893061F4E695F0E0E051B2
:1047F000FA4FE4910E2F10E0A1E0AA2EAAE0BA2E03
:104800002BCF8F3061F4E695F0E0E351FA4FE4915D
:104810000E2F10E0FBE2AF2EFAE0BF2E1DCF853148
:1048200059F4F0E0E651FA4FE4910E2F10E0E4E97C
:10483000AE2EEAE0BE2E10CF08E210E052EEA52E1A
:104840005AE0B52E883109F407CF833241F4F301E1
:104850000591149170EDA72E7BE0B72EFDCE04EFED
:1048600011E047E8A42E4BE0B42E843209F4F4CED4
:1048700000ED17E03DE3A32E35E0B32E853209F0BD
:10488000EBCE8E2F63E00E944927E92FF0E0EB5139
:10489000FA4FE4910E2F10E06FE0A62E60E1B62EE5
:1048A000DBCE00E210E09E012F5F3F4F5901809167
:1048B000E80085FD0AC08091E8008B778093E800CE
:1048C0000E94B003882399F313CF8091F100D501A2
:1048D0008D935D010150110951F70ACF1A8289E0C9
:1048E0008B8347C08A81823009F40AC28330E9F0A1
:1048F000813009F057C08FB7F89420919E02309113
:104900009F024091A0025091A10229A33AA34BA378
:104910005CA38FBF69A17AA18BA19CA10E94912762
:104920006B837C838D839E8324C0809196029091BB
:1049300097029827892798279C838B8380919802D8
:10494000909199029827892798279E838D8380913B
:104950009A0290919B0298278927982798878F839E
:1049600080919C0290919D029827892798279A8789
:104970008987CE0101960E940B0411CE8A81823074
:1049800089F48B819C81AD81BE8189A39AA3ABA35D
:10499000BCA3BC01CD010E94912785E290E00E945A
:1049A0004028E7CF8FEF8983E4CF4C816B818A81E8
:1049B0000E94230D9827892798279E838D83D9CF1E
:1049C000AD80BE80BA24AB24BA248A810B8198E1E1
:1049D000099F80011124A0E68A9F000D111D11245A
:1049E0008C8190E0880F991F080F191F6B2DC8014B
:1049F00086960E9440286A2DC8018796D0CF0E94D3
:104A0000510FB7CF8A81893031F18A3081F18A81A3
:104A1000823809F44FC0A0F58038D9F1813809F007
:104A2000A8CF60E08B810E9411179B818091910239
:104A3000911138C08E7F8093910210929002EFE71F
:104A4000F8E321E0E150F0402040E1F700C0000031
:104A50000E94C1098ECF8B81BFE18B9FC0011124C1
:104A6000B6010E946327862F0E941408D0CF8B8145
:104A7000811103C00E94AD0FCACF0E94C30FC7CFE0
:104A8000833809F076CF20E0409194026C818B81CD
:104A900006C020E04B8160919302809192020E94B7
:104AA000371167CF81608093910260E086950E9404
:104AB00011175FCF8B81809395025BCF8A818930FC
:104AC00059F08A30B9F0813831F1C8F4803809F0F2
:104AD00050CF8091940204CF80918E028695869566
:104AE00086953FEF839FC0011124B7010E94632781
:104AF0006B833FCF80918E0286958170F1CE823894
:104B000091F0833809F035CF809192028B838091A8
:104B100093028C832ECF8091910280FF02C08695F4
:104B2000DFCE80E0DDCE80919502DACE80918E02DC
:104B30000E94A80F8091910290919202A0919302FD
:104B4000B091940289A39AA3ABA3BCA3BC01CD01ED
:104B50000E9423110ECF80E18A830BCF82E08A83EB
:104B60008AE5BECEAA80BB80BA24AB24BA248E01CB
:104B70000F5F1F4F8C80800E912E911CC5018A55AE
:104B80009E4F0815190509F4F4CEAAE5AA16A2E06D
:104B9000BA0650F40E942C28F8018483BFEFAB1AA8
:104BA000BB0A0F5F1F4FEACFD80114961C92F6CFB5
:104BB0000A811B81102701271027FE0131964F0122
:104BC000AC80A00EB12EB11CC8018A559E4F0A15AB
:104BD0001B0509F4CECE0A35F2E01F0728F4D401F4
:104BE00014966C910E944028BFEF8B1A9B0A0F5FAE
:104BF0001F4FEACF0E94E70FBCCE84E0ADCFAA8062
:104C0000BB80BA24AB24BA248E010F5F1F4F8C8067
:104C1000800E912E911CC50186968016910609F48E
:104C2000A8CEE0E8AE16E1E0BE0658F40E942C28BB
:104C3000D80114968C93FFEFAF1ABF0A0F5F1F4F76
:104C4000EACFF8011482F7CF0A811B8110270127D0
:104C500010279E012F5F3F4F4901AC80A00EB12E5F
:104C6000B11CC80186960A151B0509F482CE0038CE
:104C700031E0130728F4D40114966C910E94402867
:104C8000BFEF8B1A9B0A0F5F1F4FEBCF80E00E9494
:104C9000F70F6FEF7FEF90E080E00E945E2869CE13
:104CA000CE0101960E940B04EFEFF0E722E0E15005
:104CB000F0402040E1F700C00000C1CB19BC82E009
:104CC00089BD09B400FEFDCF8091D8008F7D80930F
:104CD000D8008091E00082608093E0008091E00045
:104CE00081FDFCCF5CCC60E085E290E00E94402832
:104CF0000E94510F0E94E70F81E00E94F70FE4CB62
:104D000085E290E00E942C281B821C821D828E83EB
:104D100030CE78941F921FB61F9211248F939F93C9
:104D2000AF93BF9380919E0290919F02A091A002A9
:104D3000B091A1020196A11DB11D80939E02909396
:104D40009F02A093A002B093A102BF91AF919F9147
:104D50008F911F901FBE1F9018951F921FB61F9214
:104D600011248F939F93AF93BF9380917D02811104
:104D700013C080919E0290919F02A091A002B091D9
:104D8000A1024196A11DB11D80939E0290939F02A6
:104D9000A093A002B093A102BF91AF919F918F9178
:104DA0001F901FBE1F9018951F920F920FB60F9263
:104DB00011242F933F934F935F936F937F938F9320
:104DC0009F93AF93BF93EF93FF93809109029091CC
:104DD0000A02019668EB75E00E94632790930A022D
:104DE000809309026BE070E00E9463276F778091E7
:104DF0000802823041F4603451F480916F008E7F5C
:104E000080936F0004C0813011F46F37B1F3E62F47
:104E1000F0E0EB5BFC4FE49121E031E0E29FC00168
:104E2000E39F900D11246FE170E00E946327809151
:104E30008E02869586958695282F269FC001279FEE
:104E4000900D11240E94950790938D0080938C0003
:104E5000FF91EF91BF91AF919F918F917F916F9152
:104E60005F914F913F912F910F900FBE0F901F9028
:104E70001895DB018F939F930E949328BF91AF9168
:104E8000A29F800D911DA39F900DB29F900D1124A4
:104E90000895991B79E004C0991F961708F0961B96
:104EA000881F7A95C9F78095089587FB082E0626F6
:104EB00087FD819567FD61950E9449270EF49195C4
:104EC00007FC81950895AA1BBB1B51E107C0AA1FCF
:104ED000BB1FA617B70710F0A61BB70B881F991F9B
:104EE0005A95A9F780959095BC01CD01089597FB3F
:104EF000072E16F4009407D077FD09D00E9463278F
:104F000007FC05D03EF4909581959F4F08957095CC
:104F100061957F4F0895EE0FFF1F0590F491E02DEE
:104F2000099469279627692778278727782708957E
:104F30000E94C828332312F48A1B9B0B0C94A227CF
:104F40000E94C828B7FF0895821B930B0895CF9243
:104F5000DF92EF92FF92CF93DF93CDB7DEB72A9720
:104F60000FB6F894DEBF0FBECDBF89879A87A9859B
:104F7000BA852D913D914D915C9129833A834B8364
:104F80005C83232B242B252B41F424E239ED4BE5C4
:104F900057E029833A834B835C8369817A818B81D3
:104FA0009C812DE133EF41E050E00E9474286901BB
:104FB0007A01A7EAB1E49B01AC010E9493286983BE
:104FC0007A838B839C83ACEEB4EFA70196010E9499
:104FD000A1289B01AC0189819A81AB81BC81820FA0
:104FE000931FA41FB51FB7FF03C00197A109B048C5
:104FF000E985FA8580839183A283B3839F772A967C
:105000000FB6F894DEBF0FBECDBFDF91CF91FF90FA
:10501000EF90DF90CF9008950E94A727089580E039
:1050200091E00E94A7270895B0E0A0E080930001DE
:1050300090930101A0930201B09303010895FC0134
:105040004150504030F001900616D1F73197CF0112
:105050000895882799270895F999FECF92BD81BDBB
:10506000F89A992780B50895A6E1B0E044E050E0B1
:105070000C946628A8E1B0E042E050E00C94662869
:10508000262FF999FECF92BD81BDF89A019700B401
:10509000021639F01FBA20BD0FB6F894FA9AF99AA1
:1050A0000FBE08950396272F0E9441280E94402892
:1050B000252F0E944128242F0C9441280196272F48
:1050C0000E9441280C944028DC01CB01FC01F99995
:1050D000FECF06C0F2BDE1BDF89A319600B40D9244
:1050E00041505040B8F70895052E97FB1EF40094E8
:1050F0000E948B2857FD07D00E94A62807FC03D0EA
:105100004EF40C948B2850954095309521953F4F47
:105110004F4F5F4F089590958095709561957F4FA3
:105120008F4F9F4F08950E94C828A59F900DB49F50
:10513000900DA49F800D911D11240895B7FF0C942C
:1051400093280E949328821B930B0895A1E21A2EA4
:10515000AA1BBB1BFD010DC0AA1FBB1FEE1FFF1F1B
:10516000A217B307E407F50720F0A21BB30BE40B6B
:10517000F50B661F771F881F991F1A9469F76095B2
:105180007095809590959B01AC01BD01CF0108956C
:10519000A29FB001B39FC001A39F700D811D112478
:1051A000911DB29F700D811D1124911D0895F894D9
:1051B000FFCF69139113E4139113E413C413FC1389
:1051C000E413F81405159B159215A81588158D156F
:1051D0008D1588158D158D15C4158D15CF158D154B
:1051E0008D158D158D158D1588158D158D158815B9
:1051F0008D15B6158D158D15E015E015E015E0152A
:10520000E015E015E015E015E015DA158D159B1594
:105210008F1595199B199F19AD19B119B519B919A0
:10522000BF19C719CB19CF19D319DF19E319E7191A
:10523000EB19F1190F1AF919A319A919D719DB19C3
:10524000C319F519051A181A1E1A321A5F1A661AA6
:105250006B1A701A751A7A1A7F1A841A891A8E1A9A
:10526000931A961A9B1A9E1AA11AA41AA71AAA1A76
:10527000AD1AE918F118F31802190F191D192F1991
:105280006E247224BE24D524E024FF2402255E254A
:10529000962546265026AB25AE25B225D825FA25DB
:0652A000FD25FF25242678
:1052A6000100000001191A1B1C1D1E1F20212201CE
:1052B60002013F056D093E05690965090100000007
:1052C6000000010202020206060609090909090987
:1052D6000F0F0F0F0F0F1515151819191919191981
:1052E600191919192324252525252525E200E90064
:1052F600EA00B500B600B700CD008301CC008A01F4
:105306009201940121022302240225022602270289
:105316002A02B300B4006F007000F7F6F5F4F1F05E
:10532600909192939596976667354022320001DEFA
:0A53360000AC000C06250645060039
:00000001FF
