:100000000C942C030C947E030C947E030C947E03BE
:100010000C947E030C947E030C947E030C947E035C
:100020000C947E030C947E030C946F260C943F2753
:100030000C94C1200C947E030C947E030C947E03DC
:100040000C947E030C947E030C947E030C947E032C
:100050000C9449110C940C210C947E030C947E0397
:100060000C947E030C947E030C947E030C947E030C
:100070000C947E030C947E030C947E030C947E03FC
:100080000C947E030C947E030C947E030C947E03EC
:100090000C947E030C947E030C947E030C947E03DC
:1000A0000C947E030C947E030C947E032B001400AE
:1000B0001A000800150017001C0018000C001200A0
:1000C00013003500290004001600070009000A008B
:1000D0000B000D000E000F0033003400E1001D0086
:1000E0001B00060019000500280011001000360052
:1000F00037003800E000E6000000E30000002A417D
:100100002C420000E70000002F00300035021E02E4
:100110001F022002210222022302240225022602BB
:10012000270231024C003A003B003C003D003E00FB
:100130005000510052004F0033003400E1003F00F6
:1001400040004100420043002800AB00AA00A90083
:10015000AE003800E000E6000000E30000002A41A5
:100160002C420000E70000002D022E0235021E0086
:100170001F0020002100220023002400250026006B
:10018000270031004C003A003B003C003D003E009F
:100190005000510052004F0033003400E1003F0096
:1001A00040004100420043002800AB004E004B00DD
:1001B0004A004D00E000E6000000E30000002A4194
:1001C0002C420000E70000002D002E0032190A002A
:1001D000047F3F1F643214643214783C1E1E140ADC
:1001E000052223252628292A2C2D2F303233353677
:1001F000383A3B3D3E4042434547494A4C4E5051B8
:10020000535557595A5C5E6062646668696B6D6FDE
:1002100071737577797B7D7F81838587898A8C8EE1
:1002200090929496989A9C9E9FA1A3A5A7A8AAACE9
:10023000AEAFB1B3B4B6B8B9BBBCBEBFC1C2C3C523
:10024000C6C7C9CACBCCCDCED0D1D2D2D3D4D5D6C5
:10025000D7D7D8D9D9DADADBDBDBDCDCDCDCDCDDF8
:10026000DDDDDDDCDCDCDCDCDBDBDBDADAD9D9D8DC
:10027000D7D7D6D5D4D3D2D2D1D0CECDCCCBCAC974
:10028000C7C6C5C3C2C1BFBEBCBBB9B8B6B4B3B1A3
:10029000AFAEACAAA8A7A5A3A19F9E9C9A9896943E
:1002A00092908E8C8A89878583817F7D7B79777513
:1002B00073716F6D6B6968666462605E5C5A5957F2
:1002C000555351504E4C4A4947454342403E3D3BB1
:1002D0003A3836353332302F2D2C2A29282625233B
:1002E00022FFAA7F5540000000000000000000002F
:1002F0000001010203040506080A0C0F1114181C62
:100300002024292E33393F464C535B626A71798130
:100310008A929AA2AAB2B9C1C8CFD5DCE1E7EBF0C4
:10032000F4F7FAFCFDFEFFFEFDFCFAF7F4F0EBE754
:10033000E1DCD5CFC8C1B9B2AAA29A928A817971FB
:100340006A625B534C463F39332E2924201C181413
:10035000110F0C0A08060504030201010000000049
:100360000000000000000001010101010101010184
:100370000202020202020202020303030303030356
:100380000304040404040404050505050506060623
:100390000606070707070708080808090909090AE0
:1003A0000A0A0B0B0B0C0C0C0D0D0D0E0E0E0F0F85
:1003B0000F10101111111212131314141515161613
:1003C0001717181819191A1A1B1B1C1D1D1E1E1F82
:1003D0002020212222232424252626272829292AD1
:1003E0002B2C2D2D2E2F30313232333435363738F9
:1003F000393A3B3C3D3E3F404142434445464748F5
:10040000494A4C4D4E4F50515354555658595A5BCA
:100410005D5E5F616264656668696B6C6D6F70726A
:10042000737577787A7B7D7E8082838587888A8CD6
:100430008E8F91939596989A9C9EA0A2A3A5A7A90A
:10044000ABADAFB1B3B5B7BABCBEC0C2C4C6C9CB01
:10045000CDCFD1D4D6D8DBDDDFE2E4E7E9EBEEF0B7
:10046000F3F5F8FAFDFF0A0361006C0069007800FB
:1004700000001E0354006F006B0079006F00200025
:100480004B006500790062006F006100720064003B
:1004900000000403090409023B00020100A0FA095C
:1004A00004000001030101000921110100012240A3
:1004B000000705810308000A090401000103000088
:1004C00000092111010001223200070582032000EA
:1004D0000A1201100100000008EDFE606001000139
:1004E00002000105010980A101850319012AB70055
:1004F000150126B700950175108100C0050C090192
:10050000A101850419012AA002150126A002950166
:1005100075108100C005010906A101050719E02930
:10052000E71500250195087501810295017508817F
:10053000010507190029FF150026FF00950675081B
:10054000810005081901290595057501910295019C
:1005500075039101C041542B424C45484944434FD7
:100560004E54524F4C4B45593D307825303478002D
:1005700041542B424C454B4559424F415244434F05
:1005800044453D253032782D30302D253032782DC0
:10059000253032782D253032782D253032782D25B2
:1005A0003032782D253032780041542B4741504766
:1005B0004554434F4E4E0041542B4556454E5445ED
:1005C0004E41424C453D3078320041542B45564512
:1005D0004E54454E41424C453D307831004C061357
:1005E0000639062B06EB050406000641542B424C47
:1005F00045504F5745524C4556454C3D2D313200E4
:1006000041545A0041542B424C4542415454454EAA
:100610003D310041542B474150494E5445525641BB
:100620004C533D31302C33302C2C0041542B424C58
:1006300045484944454E3D310041542B47415044C3
:1006400045564E414D453D616C6978004154453DEC
:1006500030004F4B00004D2F11241FBECFEFDAE0CA
:10066000DEBFCDBF04B603FE27C080919D049091EC
:100670009E04A0919F04B091A0048730904BA740A6
:10068000B04BD1F410929D0410929E0410929F04DE
:100690001092A00414BE84B7877F84BF0FB6F8946D
:1006A000A89580916000886180936000109260003E
:1006B0000FBEE0E0F8E3099511E0A0E0B1E0EAE464
:1006C000F9E602C005900D92A03DB107D9F724E0EC
:1006D000A0EDB1E001C01D92AD39B207E1F713E022
:1006E000CCE2D3E004C02197FE010E94CA2FCB3296
:1006F000D107C9F70E94DC230C942C340C94000021
:100700000C9474060E94340E4FEF60E080E00E946B
:10071000B60A0E9421100C9434110E9473060C94A6
:10072000820381E0089581E008950C949303089575
:100730000C9497031F93CF93DF9300D000D00F92B8
:10074000CDB7DEB749835A836B83309131028981FB
:100750009A8131111DC06623B9F02223A9F00E94AD
:10076000531E182F682F89819A810E94FC1D698170
:100770007A81812F0F900F900F900F900F90DF9143
:10078000CF911F910C9471040E942A1E182FEFCF55
:100790000E94531E69817A81EDCFFC01262F408192
:1007A00051816281738184810C949A03CF93DF938A
:1007B000D82FC92F60E00E94CD036D2F7C2FDF91D1
:1007C000CF910C9498030E9456210E94A81F81117A
:1007D00002C00E9455200E94B7110C948D030C9406
:1007E000800308950E94A9180E94F1032FE78AE16F
:1007F00096E0215080409040E1F700C000000C944A
:1008000030210F931F93CF93DF938C0161E00E94FF
:10081000CD03EC01B8010E949503882309F442C07E
:10082000B801CE010E9484108823E1F1B801CE0105
:100830000E9472128823B1F1B801CE010E94C71242
:10084000882381F1B801CE010E949A13882351F1C7
:10085000B801CE010E943E0F882321F1F801828168
:10086000882369F0CE3DFCE5DF0711F178F4C1156E
:10087000ECE5DE07A9F080E0CD3DDC45D1F0C80114
:10088000DF91CF911F910F910C949103CF3D8CE597
:10089000D80791F0C03EDC4591F70E94552002C078
:1008A0000E94F20380E0DF91CF911F910F91089594
:1008B00082E00E945B2AF6CF83E0FBCF08950C9480
:1008C0005E0481E008950C946104CF93C82F0E94C8
:1008D0005F048C2FCF910C94630490E080E0089526
:1008E0000895972F70E02CE0929F600D711D1124E8
:1008F000FB0190E3899FE00DF11D1124EE0FFF1F16
:10090000E455FF4F859194910895FC01EE0FFF1F70
:10091000E453FE4F859194910895CF93DF930E9405
:1009200071040E949805EC01811521E5920708F0F9
:1009300048C0811530E5930708F0AFC0803E9105AF
:1009400018F5803C910508F096C0883A910570F43E
:10095000853A910508F08CC08130910531F10497FA
:10096000813A910510F1D0E0C0E01FC08F3B9105A6
:10097000D1F3C85AD0E0CC0FDD1FC85DDE4F09901F
:10098000D881C02DD46411C0811540E3940788F448
:10099000C11580E2D80708F074C0C83ED10528F020
:1009A000CE019A9581159F41F0F6CE01DF91CF914E
:1009B0000895811530E4930708F466C0DF70D06AAB
:1009C000F4CF8115964560F5C11585E5D80708F087
:1009D00096C0C11594E5D907F0F4C11523E5D207F7
:1009E00008F079C0C11532E5D30708F46FC0CE0115
:1009F0008370992721E030E002C0220F331F8A95CF
:100A0000E2F7C695C69540E2C49FE0011124C22BCF
:100A1000D32BDC68CACFDC2FCC27C46FD06AC5CFFC
:100A2000C1158AE5D80788F4C11599E5D90708F0FA
:100A300071C0CE0198558F3F910511F008F093CF0A
:100A4000DC2FCC27C06FD06AB0CFCE019056811575
:100A5000904208F088CF8D2F8F710E94300690E071
:100A6000982F882788279F719C012C2BE90150C063
:100A7000A497D0649ACF805C91090E948504EC0110
:100A800094CFCE019F70F9CF9927D3FF03C0EC011B
:100A9000D86C8BCFEC01D06C88CF74E0969587959D
:100AA0007A95E1F783702C2F26952695237040E2E6
:100AB000249F90011124382B8C2F8370C1E0D0E04B
:100AC00002C0CC0FDD1F8A95E2F7A1CFDC2FCC2727
:100AD000C16FD06A6ACFCE018370992721E030E0E0
:100AE00002C0220F331F8A95E2F7C695C69580E2B1
:100AF000C89FE0011124C22BD32BDA6856CF8C2F6C
:100B00000E943006C82FD0E0DC2FCC27CC27DF7125
:100B1000D0624BCF8C2F8F700E94300634E0D69578
:100B2000C7953A95E1F7CF70DC2FC82FD0693DCF3C
:100B3000803E910599F1C8F48133910509F476C09E
:100B400048F48932910509F46AC08A32910509F4A2
:100B500074C0089589339105D1F082389105B9F0B8
:100B60008533910509F454C00895843E910599F1A7
:100B700038F4823E9105F9F0833E910509F108951C
:100B8000863E910599F1873E9105B9F1089520912E
:100B90008E042370A1F080EE90E0089520918E04E1
:100BA00020FD52C030918F0430FF09C024FF4FC098
:100BB00090E080E004C020918E0422FDF7CF0895DC
:100BC00020918E0422FD46C030918F0430FDE3CF8A
:100BD00024FFF5CFEDCF20918F0421FFF0CF80913E
:100BE0008E0484FDE5CF87EE90E0089520918E0479
:100BF00023FFE5CF24FDDCCFF6CF20918E0423FD2B
:100C00002CC030918F0431FFE3CF84EE90E0089543
:100C100020918E0425FFD3CF89E290E008952091A2
:100C20008E0425FFCCCF85E390E0089520918E04BB
:100C300026FFC5CF8AE290E0089520918E0426FF1A
:100C4000BECF81E390E0089589E390E0089583EEBC
:100C500090E0089582EE90E0089586EE90E0089589
:100C600090918E0492FF06C0282F28712830F9F445
:100C7000877F846093FF06C0282F28712831F1F404
:100C8000877E846120918F0420FF06C0382F387141
:100C90003830D9F4877F816021FF06C0282F287162
:100CA0002831D1F4877E816194FD877E0895282FB5
:100CB00024712430F9F68B7F8860DCCF282F2471D3
:100CC000243101F78B7E8861DDCF382F31713130CF
:100CD00019F78E7F8860E0CF282F2171213121F70D
:100CE0008E7E8861E1CF08950895E82FF0E0EE0F41
:100CF000FF1FE85AFB4F808191810895089580E598
:100D00008A95F1F70895F894E82FE295EF70F0E0F6
:100D100041A18F7021E030E0B90102C0660F771F5A
:100D20008A95E2F7CB01962F9095942391A392A1F7
:100D3000892B82A378940895CF93DF93C6E5D1E001
:100D400089910E94830681E0C236D807C9F787E9F6
:100D50000E94830686E60E94830687E60E94830639
:100D600085E30E9483061092510410925004109261
:100D70005904109258041092530410925204109285
:100D80005B0410925A04109255041092540410926D
:100D90005D0410925C041092570410925604109255
:100DA0005F0410925E0484E00E947007DF91CF918F
:100DB0000C94E3036F927F929F92AF92BF92CF9277
:100DC000DF92EF92FF920F931F93CF93DF9396E5FD
:100DD000E92E91E0F92E10E000E0C0E0CC24C394AD
:100DE000D12C38E5A32E34E0B32ED7018D917D01AF
:100DF000F894E82FE295EF70F0E021A18F70A60142
:100E000002C0440F551F8A95E2F7CA01922F982B12
:100E100091A392A18095892382A378940E947F0652
:100E2000A601002E02C0440F551F0A94E2F7BA0132
:100E300060957095E0E5F4E082E6682E81E0782E1A
:100E4000D0E021913191D3019D903D01892D829572
:100E50008F7090E0DC0190968C9190E0B92DBF707E
:100E600002C095958795BA95E2F780FD35C0C90116
:100E7000842B952B2817390739F09F01225031090F
:100E8000D9018D939C93D1E0AE16BF06D1F6F70140
:100E9000319780810E948306CD2B0F5F1F4F0C304E
:100EA000110509F0A2CF2C2F44E068E574E080E53D
:100EB00094E00E9471070E94EF038C2FDF91CF9185
:100EC0001F910F91FF90EF90DF90CF90BF90AF9068
:100ED0009F907F906F900895C90186239723CACF72
:100EE0000895FF920F931F93CF93DF93F82E092F4E
:100EF000162FD72FC42F222349F081E08093D201EF
:100F00000E94F1209093D1018093D0018091D20171
:100F10008823A1F08091D0019091D1010E94FD2001
:100F2000069760F0EF2DF02FA12FBD2F90E080E00D
:100F3000D0E08C179D0744F01092D201DF91CF9141
:100F40001F910F91FF900895219131912D933D9321
:100F50000196EFCFCF92DF92EF92FF920F931F9304
:100F6000CF93DF93D62FC72F982F711113C044232F
:100F700029F0E82FF0E0EA59FC4F9491692F792F7E
:100F8000892FDF91CF911F910F91FF90EF90DF900C
:100F9000CF900895272F30E0E82FF0E0442321F090
:100FA000EA59FC4FE491F0E086E0D89F70011124EB
:100FB0000FEF10E0C701B8010E94802F8D2F90E045
:100FC000880F991FA5E5A69FA001A79F500D11248A
:100FD000841B950BD82EDD0CD80EC801821B930BF9
:100FE0008E9FA0018F9F500D9E9F500D1124952F15
:100FF000DC9EE0011124CD2FDD27D801AC1BBD0BF9
:10100000ED01CE9FD001CF9FB00DDE9FB00D11241A
:101010008B2FE801CD19D1096E01C29EE001C39E5C
:10102000D00DD29ED00D1124CD2FDD270C1B1D0B12
:101030000E9FE0010F9FD00D1E9FD00D11242E2F6B
:1010400063307105D9F03CEFE31633E0F30668F442
:1010500061307105B9F062307105C1F0AFEFEA1689
:10106000F10448F4852F9D2F06C06430710589F086
:1010700066307105B9F3692F722F83CF9B2F8E2FA6
:10108000252FF9CF9E2F2B2F852FF5CF8D2F9E2F1C
:10109000F7CF8E2F2D2FEFCF41E00C94AA070895A4
:1010A0000C944C08CF93DF93982F762F842FE9016F
:1010B000692F0E945008798368838A83DF91CF91DA
:1010C000089580916004982F9E7F29F4817082603A
:1010D0008093600408958635E8F381708465F8CFC5
:1010E00088E090E00C9496330F931F93CF93DF9397
:1010F0008B01D82FC92F0E946108A8016D2F7C2F6A
:1011000088E090E0DF91CF911F910F910C94B43360
:10111000CF93DF9300D000D0CDB7DEB7E0E6F4E0A8
:1011200083E0808311828FEF8283838314828081A6
:101130009181A281B38189839A83AB83BC83BC01F3
:10114000CD010F900F900F900F90DF91CF910C94E5
:1011500074088091600480FF02C08695089580E045
:101160000895CF93DF9300D000D0CDB7DEB7909134
:101170006404933018F49F5F909364048823B1F063
:101180008091600490916104A0916204B091630425
:1011900089839A83AB83BC83BC01CD010F900F90F0
:1011A0000F900F90DF91CF910C9474080F900F90D7
:1011B0000F900F90DF91CF91089581E00C94B108CA
:1011C000CF93DF9300D000D0CDB7DEB79091640409
:1011D000992319F09150909364048823B1F0809181
:1011E000600490916104A0916204B09163048983CA
:1011F0009A83AB83BC83BC01CD010F900F900F90FD
:101200000F90DF91CF910C9474080F900F900F9076
:101210000F90DF91CF91089581E00C94E00870E089
:101220000C94CD11609108018091600480FF0AC088
:101230008091070123E0829FC00111248B599B4FAD
:101240000C940F098091090190910A0123E0829F7B
:10125000F0011124EB59FB4F891750F711821082CE
:1012600012828F5F3396F8CF9091600490FF14C084
:101270009091090120910A0133E0939FF00111241C
:10128000EB59FB4F921710F00C9412098183608385
:1012900042839F5F3396F6CF0895CF93DF9300D0BC
:1012A0000F92CDB7DEB79091600490FF0AC09E0107
:1012B0002F5F3F4F0E9452084B8169818A810E94B3
:1012C00034090F900F900F90DF91CF910895CF9335
:1012D000DF93EC01EC81F0E0EF51FE4F4491E0E64A
:1012E000F4E0628181810E944D098C818F5F8C8343
:1012F000DF91CF910895CF93DF93EC01E0E6F4E026
:10130000438162818C810E944D098C818F5F8C8327
:10131000DF91CF9108950F931F93CF93DF9300D068
:101320000F92CDB7DEB78C018091D30181110AC035
:101330009E012F5F3F4F4FEF6FEF0E9452088A814F
:101340008093D301F8016481613049F06230F1F09B
:101350008091D30140E0662331F040E019C06091F4
:10136000D30140E080E00E943409F801848190E0DC
:10137000019663E070E00E94942F84830F900F9099
:101380000F90DF91CF911F910F9108954091D3015C
:1013900080E060E0E8CFAF92BF92CF92DF92EF9211
:1013A000FF920F931F93CF93DF9300D000D000D014
:1013B0000F92CDB7DEB7182FF62E042FD22E9091B4
:1013C000600490FF2BC0E92FE695AE2FB0E0AA593C
:1013D000BE4F8C91809319029E7F923081F59E01C1
:1013E0002F5F3F4F812F0E9452084B8169818A8174
:1013F0000E94340910936104F09262040093630424
:10140000DD2061F08091600490916104A0916204FC
:10141000B0916304BC01CD010E94740827960FB6F9
:10142000F894DEBF0FBECDBFDF91CF911F910F911A
:10143000FF90EF90DF90CF90BF90AF9008958230F3
:1014400019F400916304D6CF863019F41091610429
:10145000D1CF8930D9F3893169F6E9518E2F817066
:10146000C82EE695F0E0EF51FD4FA590B490E12C29
:10147000BB2460910B01E61618F00E941209BACF46
:101480002E2D30E0EA9CC001EB9C900D112470E001
:101490000E94802F812FC11013C0860F4091090137
:1014A000420F532F511D9A01220F331F240F351F56
:1014B0002B593B4F402F6F2D0E945208E394D9CFF8
:1014C000861BECCF282FE0E6F4E081814381628126
:1014D000865F0C94CB0981E00C94620A282FE0E629
:1014E000F4E08181438162818A500C94CB0981E0D0
:1014F0000C946E0A282FE0E6F4E062813AE0630F74
:1015000008F46FEF438181810C94CB0981E00C9446
:101510007A0A282FE0E6F4E062813AE0631B08F4DF
:1015200060E0438181810C94CB0981E00C94890AAD
:10153000282FE0E6F4E043813AE0430F08F44FEF50
:10154000628181810C94CB0981E00C94980A282F48
:10155000E0E6F4E043813AE0431B08F440E06281B6
:1015600081810C94CB0981E00C94A70A21E00C94B2
:10157000CB0920E00C94CB09EF92FF921F93CF93FD
:10158000DF93EC0110E0EE24EA94F12C60910B0162
:10159000161770F00E9412099A818C8190FF27C063
:1015A0008F5F8C83DF91CF911F91FF90EF90089513
:1015B00020910901422F410F5527551FCA019A0159
:1015C000220F331F280F391F2B593B4F70E0C701E3
:1015D0000E94942F962F8C81409163046091620445
:1015E000199F800D11240E9452081F5FCFCF815098
:1015F000D8CFBF92CF92DF92EF92FF920F931F93BB
:10160000CF93DF93FC0182810FEF80FF01E010E0B8
:1016100080910B011817C0F00E9412098091D5012A
:10162000013009F054C0811102C080910B0181503A
:101630008093D501DF91CF911F910F91FF90EF9093
:10164000DF90CF90BF900895C0910901C12ED12C99
:10165000CC0DDD2DD11DCE01880F991FC80FD91FCC
:10166000CB59DB4F198218821A8234E0E32EF12C19
:10167000B12C8091D5018B0D8D301CF16CE00E9456
:10168000722F892F082E000C990BC816D90691F4D9
:10169000809163048E9DA0018F9D500D112455955E
:1016A0004795559547959E0160916204809161042C
:1016B0000E945208B00EF1E0EF1AF108D1F61F5F58
:1016C000A7CF87FFDFCF90910B01890FDBCF90E091
:1016D000019660910B0170E00E94942FA9CF0F93A7
:1016E0001F93CF93DF938091090190910A0123E02A
:1016F000829FF0011124EB59FB4F891740F1C0E0A4
:10170000D3E060910B01C61740F10E9412092091AD
:1017100005018091D401820F8093D401909106013C
:10172000920F90930601191654F4082E000C990B91
:1017300040910B014150550B841795071CF02195E2
:1017400020930501DF91CF911F910F910895118290
:10175000108212828F5F3396D0CF0C2F10E070E092
:10176000C8010E94942F20910901820F482F50E058
:101770002091D401022E000C330B02171307BCF08A
:1017800020910601022E000C330B201731077CF04C
:101790008D9F900111242B593B4F40916304609120
:1017A0006204809161040E945208CF5FAACFFA01BF
:1017B000EE0FFF1FE40FF51FEB59FB4F1182108254
:1017C0001282F3CFEF92FF920F931F93CF93DF9389
:1017D000CDB7DEB72E970FB6F894DEBF0FBECDBFE4
:1017E0008D879E87AD85BE8514961C91212F30E094
:1017F000D9010E94D82F9B01AC010E94EE2F698372
:101800007A838B839C83E0E2F0E0E11BF109A5E59C
:10181000B0E09B01AC010E94EE2F69877A878B872D
:101820009C879F01DF010E94D02F6D837E838F8371
:1018300098879B01AC010E94F92F9B01AC01698143
:101840007A818B819C81260F371F481F591F69851C
:101850007A858B859C850E94A82FF22E822F90E09E
:1018600079E2721788F183E0289F90011124359561
:101870002795122F109500E085E5E82EEF1880914E
:101880000B01081780F10E941209AD85BE851496E0
:101890009C9181E0992319F0903219F48FEF809395
:1018A000040180910401890FED85FE8584832E96C5
:1018B0000FB6F894DEBF0FBECDBFDF91CF911F9161
:1018C0000F91FF90EF90089525E530E0D901A81B16
:1018D000B90B9D01220F331F2A0F3B1F37FFC7CFC4
:1018E0002F5F3F4FC4CF8E2D01FD8F2D2091090119
:1018F000E22FE00FFF27FF1F9F01220F331F2E0F44
:101900003F1F2B593B4F412F609162040E945208A8
:101910000F5FB5CF0F931F93CF93DF93EC0110E0D0
:1019200000E090910B019017110609F06CF40E94F1
:1019300012098C8190E00196817099278C83DF9148
:10194000CF911F910F91089520910901A801420F95
:10195000511D9A01220F331F240F351F2B593B4F66
:101960004C816091620480916104969590171106F4
:1019700051F04CF0442349F0409163040E94520816
:101980000F5F1F4FCECF4423B9F340E0F7CF8F92C4
:101990009F92AF92BF92CF92DF92EF92FF920F93FE
:1019A0001F93CF93DF93FC01B280948081E0848306
:1019B00000E015E05BE4A52E88248394EE24EA94ED
:1019C000F12C7BE4C72ED12C80910B01081770F00D
:1019D000DF91CF911F910F91FF90EF90DF90CF900B
:1019E000BF90AF909F908F900C941209C02FD0E0C1
:1019F0001C9FF0011D9FF00D1124EA52FE4F911023
:101A00001CC01382128220910901CE01820F911D08
:101A10009C01220F331F280F391F2B593B4F1C9F4E
:101A2000F0011D9FF00D1124EA52FE4F42816181A9
:101A300080810E9452080F5FC7CF2381222379F152
:101A40002150238334818A2D821B311101C0822FC2
:101A50001C9FF0011D9FF00D1124EA52FE4F909142
:101A60006304899FC0011124B6010E94802F628304
:101A7000211104C0332311F01482A38222E02B151C
:101A800010F21C9FF0011D9FF00D1124EA52FE4F31
:101A9000809161048083809162048183B4CF0E942D
:101AA0006930823091400CF0AECF82E08B1530F57A
:101AB0000E946930B7010E94942F1C9FF0011D9F66
:101AC000F00D1124EA52FE4F808322E02B15C8F45A
:101AD0000E946930209162042695622F70E00E9476
:101AE000942F280F1C9FF0011D9FF00D1124EA5226
:101AF000FE4F21831282A382848285CF809161046C
:101B0000DCCF20916204EECFCF93DF9300D000D0E2
:101B1000CDB7DEB7E0E6F4E080818E7F8083808100
:101B20009181A281B38189839A83AB83BC83BC01F9
:101B3000CD010E94740810921A029FE7A8E3B1E059
:101B40009150A040B040E1F700C000000F900F900E
:101B50000F900F90DF91CF910C9412096091600467
:101B6000669570E04BE050E08CE091E00E94B93067
:101B7000892B19F481E080931A020E94F12090933E
:101B80001302809312020895CF93DF9300D000D008
:101B9000CDB7DEB79091600490FF41C09170811184
:101BA00034C0926090936004662381F08091600459
:101BB00090916104A0916204B091630489839A8337
:101BC000AB83BC83BC01CD010E94740860916004AA
:101BD000669570E04BE050E08CE091E00E94B930F7
:101BE000892BD1F010921A0281E080931502409166
:101BF000630460916204809161040F900F900F90D4
:101C00000F90DF91CF910C94B90A8B3210F094654C
:101C1000C9CF880F982BC6CF0E94AE0DE5CF0F908D
:101C20000F900F900F90DF91CF910895682F8091C2
:101C3000600486958F5F8B3208F081E00C94C40DB0
:101C400081E00C94160E682F9091600496958FEFAA
:101C5000890F913009F48AE20C94C40D81E00C9450
:101C6000230E61E00C94C40DE0E6F4E08081816015
:101C7000808386950C94310E8091600480FD0C94D5
:101C8000840D0C94340E60E00C94C40D8091180205
:101C900081112EC00E94A81F811104C00E945520EE
:101CA0000E9488080E947008609360047093610429
:101CB00080936204909363046E7F61F40E948808AD
:101CC0000E947008609360047093610480936204C2
:101CD000909363040E94610810921A02809160043C
:101CE00080FF03C086950E94430E81E08093180216
:101CF00008950F931F93CF93DF9380911A02882347
:101D000009F49DC080911902E0916004E695E81BFA
:101D1000E09314028230C9F5F0E0E352FE4FE49103
:101D2000CE2FD0E007E619E080911502882389F0D4
:101D3000109215020E94F1209E0120953095280FE7
:101D4000391F30931302209312021092170210923F
:101D5000160280911202909113020E94FD208C17AE
:101D60009D0708F46CC0E0911202F0911302CE0FAF
:101D7000DF1FD0931302C093120282E192E0F801B8
:101D8000DF91CF911F910F910994863049F4F0E0D3
:101D9000E652FE4FE491CE2FD0E00BE719E0C4CF1E
:101DA000893051F4E695F0E0E952FE4FE491CE2FF0
:101DB000D0E00CEB1AE0B8CF8F3051F4E695F0E0AC
:101DC000EC52FE4FE491CE2FD0E009EF1AE0ACCFF9
:101DD000853149F4F0E0EF52FE4FE491CE2FD0E090
:101DE0000FE61BE0A1CFC8E2D0E002EE1BE0883195
:101DF00009F49ACF833239F4EFECF1E0C591D49134
:101E00000BE819E091CFC4EFD1E00AE81CE084327E
:101E100009F48ACFC0EDD7E00FE418E0853209F06D
:101E200083CF8E2F63E00E94662FE92FF0E0E4530A
:101E3000FE4FE491CE2FD0E007EC1CE075CFDF9190
:101E4000CF911F910F910895FA0181110994FB011F
:101E5000FDCFCF93DF93C82FD62F0E94A9088C17F0
:101E600040F00E94A9088D1720F4DF91CF910C94C7
:101E7000200E8C2FDF91CF910C94310E0F931F9376
:101E8000CF938C01FB01C281CC2309F465C00E9471
:101E9000F01E8272F801E35CFC45E431F10538F490
:101EA000E25DFB4C0C94CA2F0E943C0EC0E08C2FCC
:101EB000CF911F910F9108954EE25EE060E27EE0C7
:101EC0000E94240FF3CF40E25EE06EE27EE0F8CFA6
:101ED00047E75AE06BE67AE0F3CF4BE65AE067E774
:101EE0007AE0EECF45E95AE066E87AE0E9CF46E8E5
:101EF0005AE065E97AE0E4CF43EB5AE064EA7AE03D
:101F0000DFCF44EA5AE063EB7AE0DACF4CE059E005
:101F10006DED78E0D5CF4DED58E06CE079E0D0CFB5
:101F200081E00E94310EC2CF65E082E00E94290F5D
:101F3000BDCF68E086E0FACF6EE089E0F7CF64E1DC
:101F40008FE0F4CF67E185E1F1CF88E1EACF62E28B
:101F500089E1ECCF83E2E5CFC1E0A9CF809189048C
:101F600086958695869508958091890481FD07C0A0
:101F70008260809389040E94DA1F0C9434110895C2
:101F80008091890481FF07C08D7F809389040E941E
:101F9000DA1F0C94401108958091890481FD0C94FE
:101FA000C00F0C94B40F80918904869581700895B8
:101FB0008091170108950E94A81F811102C00E94FC
:101FC00055200E94D61F982F80938904817090FF1E
:101FD00004C0892F8695869586950C94FA10809179
:101FE0008904982F987F983F19F0885F809389041F
:101FF000809189048160809389040E94DA1F809116
:1020000089048695869586950C94FA1080918904AA
:10201000982F987F79F0885080938904887F91E089
:1020200009F490E08091890490FB80F98093890401
:102030000E94DA1F809189048695869586950C9476
:10204000FA108091890480FD13C081608093890417
:10205000813019F489E080938904809189040E9479
:10206000DA1F809189048695869586950C94FA10DE
:1020700008958091890480FF08C08E7F8093890431
:102080000E94DA1F80E00C94FA1008958091890470
:1020900080FD0C9439100C94211080918904885F84
:1020A00080938904887F91E009F490E0809189040D
:1020B00090FB80F9809389040E94DA1F8091890443
:1020C0008695869586950C94FA10803208F08FE1FB
:1020D000909189049770282F220F220F220F922BA4
:1020E00090938904987F21E009F420E0909189047D
:1020F00020FB90F9909389040C94FA100E946510CB
:10210000809189040C94DA1FFC01DB0112968C91FA
:102110008823F9F0EC5BFC45E730F105D8F4EE5B81
:10212000FB4C0C94CA2F8FE10E947E1080E0089532
:1021300080E0FACF0E940610F9CF0E94EF0FF6CF91
:102140000E944610F3CF0E944D10F0CF0E94CC0F9A
:10215000EDCF81E00895279A2F9808952F9808953C
:10216000CF93DF93CDB7DEB728970FB6F894DEBFD5
:102170000FBECDBF8C3724E1920770F469E070E0A8
:102180000E94802FCB0128960FB6F894DEBF0FBEB9
:10219000CDBFDF91CF910895B0E0A0E08A50974D78
:1021A000AF4FBF4F2227382F492F5A2FCA01B901ED
:1021B00025EF38E241E050E00E94A82F29833A83BE
:1021C0004B835C83CA01B9010E94562F9B01AC016D
:1021D00069817A818B819C810E94562FBB27A92F10
:1021E000982F872F009731E0A307B10561F68FEF95
:1021F0009FEFC9CFCF93DF9300D000D0CDB7DEB72C
:102200008983803240F5811128C080918000877FCA
:10221000809380000E94AE108981282F30E0AFEFBC
:10222000BFEF0E94D82F69837A838B839C832FE131
:1022300030E040E050E00E94A82FC9010E94B01099
:1022400090938D0080938C000F900F900F900F90C3
:10225000DF91CF9108958FE189838091800088601C
:1022600080938000D9CF089510921C0210921B0217
:1022700010921D02EFE6F0E0808181608083089576
:10228000EFE6F0E080818E7F80830E94AE0F0C9499
:10229000FA101F920F920FB60F9211242F933F93B3
:1022A0004F935F936F937F938F939F93AF93BF935E
:1022B000CF93EF93FF930E94D80F282F80911B029A
:1022C00090911C02019644EF249F90011124B901C2
:1022D0000E94802F90931C0280931B02B901660F0D
:1022E000672F661F770B71950E94802F6F77809103
:1022F0001D02823041F4603451F480916F008E7F72
:1023000080936F0004C0813011F46F37B1F3E62F72
:10231000F0E0EA51FD4FC4910E94AE0F282F41E03A
:1023200051E0C49FC001C59F900D11246FE170E082
:102330000E94802F269FC001279F900D11240E948C
:10234000B01090938D0080938C00FF91EF91CF910E
:10235000BF91AF919F918F917F916F915F914F91BD
:102360003F912F910F900FBE0F901F9018950E94D4
:10237000AB108AE08093800089E1809381008FEF29
:102380009FEF90938700809386000E94DB0F0E944E
:10239000D30F81110C94341108959C01AB01209A44
:1023A00065B16E7F75B17160EFB7F894CA01880F9F
:1023B000991F840F951F820F931F8217930741F473
:1023C000EFBF8FE292E00197F1F700C0000008959F
:1023D000D9014D919D0158E075B947FF65B9440F8A
:1023E000000000C065B9000000C000C000C000C00F
:1023F00000C000C000C000C000C000C000C000C0DD
:1024000000C000C000C05A9539F7D7CF0F931F9373
:10241000CF93DF93C42FD22FFC0182818823C9F090
:10242000409320020E94F12090931F0280931E028D
:1024300080E28C0F883008F050C0C77081E001C086
:10244000880FCA95EAF7DF91CF911F910F910C94F5
:10245000FE1510912002141335C080911E02909138
:102460001F020E94FD20883C910560F5C0E2CD0F5F
:102470001D17B9F080E2810F883040F4177081E0B9
:1024800001C0880F1A95EAF70E940516C83048F473
:1024900081E09D2F977001C0880F9A95EAF70E94FE
:1024A000FE15802F0E94EB15C830B8F4D77081E07C
:1024B00001C0880FDA95EAF7DF91CF911F910F9154
:1024C0000C94051680E28C0F883038F4C77081E0D8
:1024D00001C0880FCA95EAF7EFCFDF91CF911F9126
:1024E0000F9108950F939C01CB01253F4CE53407D4
:1024F000A1F190F4293DFCE53F0749F12A3D4CE567
:102500003407E9F1283D3C45C1F0FC018281882374
:10251000E1F11092200219C0273FFCE53F0719F1B5
:10252000283F4CE5340729F1263F3C4571F707E287
:1025300025EE44EE66EF7CE505C006E221EE41EEB5
:1025400068ED7CE50E94061280E00F91089507E295
:1025500025EE45EE69ED7CE5F5CF06E221EE40EE95
:1025600065EF7CE5EFCF06E221EE42EE67EF7CE51A
:10257000E9CF07E225EE46EE68EF7CE5E3CF08E21F
:1025800021E045EE6AED7CE5DDCF81E0DECFCF9343
:10259000DF93EC01FB018281882309F4C9C0C631B5
:1025A000FCE5DF07E0F4C2309CE5D907F0F00E94BB
:1025B000BB1F90938F0480938E04C631ECE5DE0739
:1025C00020F5C230FCE5DF0798F480918E049091ED
:1025D0008F040E94C91F0E94A91880E006C09E01B6
:1025E0002C5F3C452930310510F3DF91CF910895E0
:1025F000FE01E350FC4580918E048160E331F105DA
:1026000088F4E75BFB4C0C94CA2FCC5FDC45C930E7
:10261000D105D8F6C45ADB4CFE010C94CA2F809128
:102620008E04826080938E04D0CF80918E0484606B
:10263000F9CF80918E048860F5CF80918F048160FE
:1026400080938F04C2CF80918F048260F9CF8091F4
:102650008E048061E7CF80918E048062E3CF809109
:102660008E048064DFCF0E94A91880918E04806858
:10267000D9CF80918E048C60D5CF80918F048360F8
:10268000DFCF80918E048E7FCDCF80918E048D7FA1
:10269000C9CF80918E048B7FC5CF80918E04877FB8
:1026A000C1CF80918F048E7FCBCF80918F048D7F9F
:1026B000C7CF80918E048F7EB5CF80918E048F7DA1
:1026C000B1CF80918E048F7BADCF0E94A9188091ED
:1026D0008E048F77A7CF80918E04837FA3CF8091C4
:1026E0008F048C7FADCF80918E0482FB992790F967
:1026F00021E0922790FB82F990FB83F993CF8091A0
:102700008F04982F909591708E7F892B90FB81F983
:1027100097CF0E94A91890918E04892F97FB87F973
:10272000805880CF81E00E9457204FCF80E0FBCFC0
:1027300081E05BCFCF93DF93EB0186319C4511F5B0
:102740000E94F01E9A81992399F08A7A91E009F407
:1027500090E090932102811109C089E20E94CB1E72
:102760000E943F1F80E0DF91CF91089585E3F6CF6F
:1027700080912102811104C089E20E94D21EF0CF13
:1027800085E3FBCF81E0EFCF909327028093260271
:102790000895E0912602F0912702309721F00190F0
:1027A000F081E02D099480E00895E0912602F091F7
:1027B0002702309721F00280F381E02D09940895DB
:1027C00020912402309125022817390771F0909347
:1027D000250280932402E0912602F091270230978F
:1027E00021F00680F781E02D0994089520912202BE
:1027F000309123022817390771F0909323028093B8
:102800002202E0912602F0912702309721F0008405
:10281000F185E02D0994089585B7806885BF85B757
:10282000806885BF0895089508950C941314089541
:102830000C9417140E940C140E9414140C94151478
:1028400081E008950C942014089508950E94E820D2
:102850000E949C060E946A210E94DB0F0E94460E85
:102860000C9418149F92AF92BF92CF92DF92EF9286
:10287000FF920F931F93CF93DF9300D000D00F925E
:10288000CDB7DEB70E9424140E9425140E94DA06F8
:102890000E942214882309F471C059E2A52E52E047
:1028A000B52E10E000E0902E802F0E9475067C016E
:1028B000F501C190D1905F01C816D90609F458C03E
:1028C00080919D0281FD0E947E0696012E253F2566
:1028D00080E0CC24C394D12CA9014C215D21452B4F
:1028E00009F440C089839A82EC20FD2081E0EF2822
:1028F00009F480E08B830E94F1208160782F9D8312
:102900008C8349815A816B818D810E94E014000F74
:10291000111FF801E75DFD4F80819181C826D926FE
:10292000D182C0820E94790E0E9433110E94C91385
:1029300090912802891799F10E94C9138093280267
:102940000F900F900F900F900F90DF91CF911F91EC
:102950000F91FF90EF90DF90CF90BF90AF909F903E
:102960000C9465048F5FCC0CDD1C8C3009F0B4CF67
:102970000F5F1F4F0430110509F095CF8FEF89834A
:102980008A831B820E94F1208160782F9D838C8333
:1029900049815A816B818D810E94E014C3CF0F90D1
:1029A0000F900F900F900F90DF91CF911F910F918B
:1029B000FF90EF90DF90CF90BF90AF909F900895E1
:1029C000CF93DF93CDB7DEB72B970FB6F894DEBF6A
:1029D0000FBECDBF4F83588769877A878B871E824A
:1029E00085E0FE013796DE01119601900D928A95E1
:1029F000E1F749815A816B817C818D819E812B9683
:102A00000FB6F894DEBF0FBECDBFDF91CF910C940F
:102A10000C1BFC01808191810C94951ECF93C82FD3
:102A2000882309F487C08238C1F40E94C91381FD4C
:102A300081C089E30E94CB1E0E943F1F2FEF30E729
:102A400082E0215030408040E1F700C0000089E37F
:102A50000E94D21ECF910C943F1F8338A1F40E9494
:102A6000C91380FD67C083E50E94CB1E0E943F1FF3
:102A70009FEF20E732E0915020403040E1F700C066
:102A8000000083E5E5CF8438A1F40E94C91382FDDC
:102A900051C087E40E94CB1E0E943F1F8FEF90E73A
:102AA00022E0815090402040E1F700C0000087E420
:102AB000CFCF8CEF8C0F813AB8F48C2F0E9432224A
:102AC000811138C06C2F80911801909119010E94DA
:102AD0006E20882329F08C2F0E94D21E0E943F1F57
:102AE0008C2F0E94CB1EB6CF80E28C0F883048F42A
:102AF000C77081E001C0880FCA95EAF70E94F31EF3
:102B0000A9CF8BE58C0F833038F42C2F2452330B54
:102B1000C901CF910C94E013C85AC73158F4EC2F77
:102B2000F0E0EE0FFF1FEF56FE4F80819181CF91B5
:102B30000C94F613CF910895882309F44BC0823882
:102B400071F40E94C91381FF45C089E30E94CB1E26
:102B50000E943F1F89E30E94D21E0C943F1F8338BE
:102B600059F40E94C91380FF35C083E50E94CB1E33
:102B70000E943F1F83E5EFCF843859F40E94C913A8
:102B800082FF28C087E40E94CB1E0E943F1F87E47B
:102B9000E2CF9CEF980F913AF0F290E2980F9830C4
:102BA00050F4877091E001C0990F8A95EAF7892F58
:102BB0000E94F91ED2CF9BE5980F933020F490E04D
:102BC00080E00C94E013885A873120F490E080E094
:102BD0000C94F6130895CF93C82F0E940E15C93395
:102BE00049F42FEF83EF91E0215080409040E1F7CE
:102BF00000C000008C2FCF910C949C15882321F0ED
:102C00000E94F31E0C943F1F0895882321F00E9418
:102C1000F91E0C943F1F0895AF92BF92CF92DF929E
:102C2000EF92FF920F931F93CF93DF9300D000D0CA
:102C30000F92CDB7DEB76C016D837983FC010581FE
:102C400002950F70128111110E94121F0E94E91E3D
:102C5000E82E882391F01123D1F08981807F803480
:102C600021F08D81805E883090F082E00E948A1F82
:102C70000E94E91E91E0E82EE926A980A2949FE037
:102C8000A922B12CF501EB59FB4C0C94CA2FE12C75
:102C9000F4CF09810F70F981F07F11F00295007F68
:102CA0001123B1F0002361F08D81805E883018F02F
:102CB0002D81211109C0802F0E94F31E0E943F1F09
:102CC0008D810E940E1515C0802F0E94041FF6CF23
:102CD0008D810E949C15002361F08D81805E88307B
:102CE00018F04D81411133C0802F0E94F91E0E94BF
:102CF0003F1F58E0A51AB10864E0A616B10420F4FD
:102D00000E94C9130E946504EE2009F4C1C10E940B
:102D1000E51E80FDBDC1F60112820E94DF1E0E94E9
:102D2000EC1CC6010E946F180E94DF1E0F900F90CE
:102D30000F900F900F90DF91CF911F910F91FF9007
:102D4000EF90DF90CF90BF90AF900C941D1D802F1F
:102D50000E940A1FCCCF59815F70F52E6981607F78
:102D6000603219F0F29480EFF8227D81772369F0C8
:102D7000713049F1112391F1002351F1F601858160
:102D800080FF9ECF8F70858323C0112381F00111B6
:102D900006C00E94261F8F290E94FE15AACF01306F
:102DA000C1F70E94261F8F290E942C1FA2CF01115C
:102DB00006C00E94351F8F2D0E9405169ACF013044
:102DC00009F497CFF6CF112329F0063008F091CF00
:102DD0008F2DE2CF053008F08CCFEDCF002359F3D3
:102DE000FD81F93349F42FEF43EF51E0215040408A
:102DF0005040E1F700C000008D810E949C1579CF02
:102E0000898186958695837069F0813009F071CF4C
:102E10008D8199819370111102C090E080E00E9431
:102E2000F61367CF8D8199819370111102C090E0E4
:102E300080E00E94E0135DCF8981837009F050C06B
:102E4000111157CF4D81429546954770440F440F5D
:102E50008D818F7090E0B0E0A0E0042E04C0880F58
:102E6000991FAA1FBB1F0A94D2F76D8100E010E0E2
:102E7000980164FF0FC00FE010E020E030E004C0D4
:102E8000000F111F221F331F4A95D2F7009510958E
:102E90002095309579817695769573707D83B9010B
:102EA000A801482B592B6A2B7B2B49835A836B83B0
:102EB0007C835D8169817A818B819C81523051F064
:102EC000533059F0513019F00E94621C12CF0E9409
:102ED0003A1C0FCF0E948A1C0CCF0E94381C09CFCD
:102EE0008695112311F089818170882309F401CF1F
:102EF0004D81429546954770440F440F8D818F70E8
:102F000090E0B0E0A0E0042E04C0880F991FAA1F33
:102F1000BB1F0A94D2F76D8100E010E0980164FFB6
:102F20000FC00FE010E020E030E004C0000F111FE0
:102F3000221F331F4A95D2F70095109520953095A2
:102F400079817695769573707D83B901A801482BB8
:102F5000592B6A2B7B2B49835A836B837C835D813E
:102F600069817A818B819C81523051F0533059F0C4
:102F7000513019F00E94AB1DBCCE0E94831DB9CE0A
:102F80000E94D31DB6CE0E94B61CB3CE69816F706D
:102F90006983112329F0862F0E94EC1C8D81FCCEC1
:102FA0008D810E94051689810E941D1DA2CE7D8102
:102FB000723FA1F160F4703FE1F0713F41F11123E4
:102FC00009F445C001117CCE89818F7124C08D81A7
:102FD000833F49F1843F99F7112379F199819F71DA
:102FE0009983892F0E94EC1C63E089810E94751FE0
:102FF00080CE112341F0053008F07BCE89818F719E
:103000000E94521D76CE063008F073CEF7CF89812C
:103010008F71112349F20E94EC1C6BCE89818F7154
:103020001123C9F3C1CF112329F089818F710E9427
:10303000C71C5FCE0E94C21C5CCE81E00E948A1F2A
:10304000023008F456CE82E00E948A1F52CE00233E
:1030500061F0ED81E93309F0CFCEFFEF23EF41E0DE
:10306000F15020404040E1F7C5CE89818F719CCF5F
:1030700049814F706D81C6010E946D040E94AC1B96
:1030800038CE49814F706D81C6010E94700431CEE7
:103090000F900F900F900F900F90DF91CF911F9195
:1030A0000F91FF90EF90DF90CF90BF90AF90089579
:1030B0000F931F93CF93DF93EC01688179818A810D
:1030C0000E94A11E8C010E94FB1D0E94371CB801AA
:1030D000CE01DF91CF911F910F910C940C16CF93DD
:1030E000DF93EC018B819C81892B29F08881998168
:1030F00089238F3F59F4DF91CF910895CE010E942B
:103100005818CE01DF91CF910C94D603CE010E94C6
:1031100001048111F3CF0E94E91E882361F38A81A3
:10312000882349F382E0DF91CF910C948A1F0E949B
:10313000121F0E94231F0E943F1F90E080E00E9408
:10314000E01390E080E00C94F6130E94D91E0C94DA
:1031500097180E94011F0C94A518282F892F82957B
:103160008F70903C80F48A30B0F4843020F4823048
:1031700090F480E008958630E1F781E0283E88F001
:10318000213FB9F70EC08C3011F08F3091F793FBCF
:10319000882780F9089581E0203F39F018F4283E0F
:1031A00040F70895243F29F7FCCF08950E94951E0B
:1031B0000C94AD18CF93DF9300D000D00F92CDB711
:1031C000DEB70F900F900F900F900F90DF91CF917F
:1031D0000895CF93DF9300D000D000D0CDB7DEB7F5
:1031E00026960FB6F894DEBF0FBECDBFDF91CF910C
:1031F00008951F93CF93DF93E091320216E0809100
:1032000033028E1304C0DF91CF911F910895CE2F0A
:10321000D0E01E9FF0011124EC5CFD4F40815181F4
:1032200062817381848195810E94E918FE01319643
:10323000E770E5CF409164025091650260916602AB
:103240007091670280916802909169020C94E9186C
:103250001F93CF93DF9380916902807FA9F48091BF
:103260006602882389F080913202C0913302609116
:10327000640270916502A0916702B0916802D62F36
:10328000D72316E0C81304C0DF91CF911F91089592
:1032900090E0109711F0DF3F19F401968770F2CF9C
:1032A000189F9001199F300D1124F901EC5CFD4F1E
:1032B00041814713F2CF40814613EFCF4281411144
:1032C000ECCF438154814A1B5B0B483C510528F7E6
:1032D000809169028F70806180936902F901E75CD7
:1032E000FD4F80818F708061808384E692E00E9430
:1032F0006F18DF91CF911F910C94F918AF92BF9284
:10330000CF92DF92EF92FF920F931F93CF93DF93B1
:10331000CDB7DEB72B970FB6F894DEBF0FBECDBF8B
:103320008C0185E0F801DE01179601900D928A95D7
:10333000E1F7F80140815181E28084E6C82E82E005
:10334000D82E60916702709168026115710509F4C9
:1033500044C19091640220916502822F89238F3F9E
:1033600009F43BC1A380B480F0906602F501E61B2E
:10337000F70BFF2009F4E0C080916902382F307FFD
:10338000E83CF10508F0B2C0311179C0FE2C2513DC
:1033900023C0941321C0E1101FC08F7080618093FF
:1033A00069020E941A19C6010E946F188091690271
:1033B000F80185838F2D2B960FB6F894DEBF0FBED4
:1033C000CDBFDF91CF911F910F91FF90EF90DF90D4
:1033D000CF90BF90AF900895AB2829F0842F85231C
:1033E0008F3F09F016C180E0F82FF170DF2EE091D9
:1033F00032022091330236E080FD1CC0EE20D1F273
:1034000080916902816080936902F12CD3CF8E2F65
:1034100090E03E9FF0011124EC5CFD4F618165134B
:1034200006C06081641303C06281E612E7CFFC012D
:103430003196E770E213EBCF4F8358878F819885E1
:103440000E94951E292F22952F70903260F0225FE6
:103450002F70223078F49F7051F0F8019581907FA1
:1034600031F4D12C0AC09F7011F08823D1F3805E13
:103470008830B8F3C8010E946F18FD2C9BCF25132C
:1034800006C0941304C0F801EE2009F470C04F8305
:1034900058878F8198850E94D618882319F1EE20CD
:1034A00009F180916902803270F0209164023091BC
:1034B00065023A8329831B82BD82AC828E83CE0152
:1034C00001960E946F1886E0F801A4E6B2E0019030
:1034D0000D928A95E1F70E9428190E941A19FF247B
:1034E000F39468CFC8010E946F18F9CF311113C04F
:1034F0007A2DBB86AA866E2D8B850E94DA1884E60B
:1035000092E00E946F1886E0F60111928A95E9F721
:103510000E941A197ACF2513BACF9413B8CFE110AD
:10352000B6CFF8018583C8010E946F1886E0F601C6
:1035300011928A95E9F73ECFE83CF10508F040C0CA
:10354000FE2CEE2079F225132AC0941328C0809116
:10355000690280FD1BC0982F907FC1F0F801858320
:10356000903F31F0982F907F905F8F70892B8583EB
:10357000C8010E946F1886E0F801A4E6B2E001904D
:103580000D928A95E1F70E941A1914CF86E0F8018E
:10359000A4E6B2E001900D928A95E1F70BCF4F833C
:1035A00058878F8198850E94D61881118CCF809181
:1035B0006902816080936902C8010E946F18FACE87
:1035C0007A2DBB86AA866E2D8B850E94DA1886E03E
:1035D000F60111928A95E9F7D6CFEE2009F482CF51
:1035E0004F8358878F8198850E94D618F82E88239C
:1035F00009F478CF86E0F801A4E6B2E001900D92DC
:103600008A95E1F784E692E00E9409150E94281944
:10361000BACF81E08E25E8CE1F93CF93DF93CDB74D
:10362000DEB72C970FB6F894DEBF0FBECDBF4F8329
:10363000588769877A878B879C87CE0107960E9477
:103640007E19882369F08A859B85892B39F04F8103
:103650005885842F85238F3F09F077C016E065C019
:1036600086E0FE013796DE01119601900D928A9553
:10367000E1F76A857B856115710581F35F81488576
:10368000842F85238F3F51F32091330230E0C9010D
:10369000019687709927E0913202E817190671F4B4
:1036A0000E94A918109233021092320286E0E4E6DA
:1036B000F2E0DF011D928A95E9F7D0CF59834A8362
:1036C0007D836C8396E0929FD001939FB00D11246F
:1036D000AC5CBD4FFE01319601900D929A95E1F7D9
:1036E000809333020E94F918B9CF819FC001112441
:1036F0008C5C9D4F0E947E198823E9F0E091320294
:103700001E9FF0011124EC5CFD4F408151816281CC
:103710007381848195810E94E9188091320290E042
:10372000019687709927809332028091320290919E
:1037300033028913DACF2C960FB6F894DEBF0FBE92
:10374000CDBFDF91CF911F91089569857A858B85D3
:103750009C850E94E91882CFEF92FF920F931F93EE
:10376000CF93DF938C01892B89F0F12CEE24E39425
:10377000E8012196F8018491843709F457C0A0F438
:10378000823009F43EC048F48130D1F0DF91CF910E
:103790001F910F91FF90EF9008959CEF980F903735
:1037A000A8F70E940E150AC0853709F44CC09CE7A3
:1037B000980F903758F78F770E949C158E0116C08E
:1037C0000E5F1F4FFE01849190E2980F983060F4D5
:1037D0008770FE2D01C0FF0F8A95EAF78F2F0E9498
:1037E000151F0E943F1F02C00E940E158F2D815091
:1037F00008F4BECFEFECF7E03197F1F700C000001E
:10380000F6CF0E5F1F4FFE01849190E2980F983023
:1038100050F48770FE2D01C0FF0F8A95EAF78F2FB5
:103820000E941B1FDECF0E949C15E0CF0E5F1F4F32
:10383000FE01C491C150D0F28FEC97E00197F1F7EF
:1038400000C00000F7CF0E5F1F4FFE01F490CECFF7
:1038500008950C94281C0E94291C60938C0270937C
:103860008D0280938E0290938F020C949718089586
:103870000C942B1CCF93DF9300D000D0CDB7DEB7D4
:1038800069837A838B839C8380918C0290918D02D3
:10389000A0918E02B0918F0229813A814B815C8187
:1038A000282B392B4A2B5B2B29833A834B835C8350
:1038B000CA01B9010F900F900F900F90DF91CF9137
:1038C0000C942B1CCF93DF9300D000D0CDB7DEB784
:1038D00069837A838B839C8380918C0290918D0283
:1038E000A0918E02B0918F0229813A814B815C8137
:1038F000282339234A235B2329833A834B835C8320
:10390000CA01B9010F900F900F900F90DF91CF91E6
:103910000C942B1CCF93DF9300D000D0CDB7DEB733
:1039200069837A838B839C8380918C0290918D0232
:10393000A0918E02B0918F0229813A814B815C81E6
:10394000282739274A275B2729833A834B835C83BF
:10395000CA01B9010F900F900F900F90DF91CF9196
:103960000C942B1C0C94281C0C94B21C0E94B41CAC
:10397000609388027093890280938A0290938B02ED
:103980000C94971860E070E0CB010C94B61C0F9378
:103990001F93CF93DF9300D000D0CDB7DEB741E0C7
:1039A00050E060E070E08A019B0104C0000F111F2D
:1039B000221F331F8A95D2F709831A832B833C83F6
:1039C000C901B8010F900F900F900F90DF91CF9128
:1039D0001F910F910C94B61C0F931F93CF93DF93FD
:1039E00000D000D0CDB7DEB741E050E060E070E03D
:1039F00004C0440F551F661F771F8A95D2F7809128
:103A0000880290918902A0918A02B0918B028A016A
:103A10009B01082B192B2A2B3B2B09831A832B8301
:103A20003C83C901B8010F900F900F900F90DF9168
:103A3000CF911F910F910C94B61C0F931F93CF93AE
:103A4000DF9300D000D0CDB7DEB741E050E060E0BA
:103A500070E004C0440F551F661F771F8A95D2F788
:103A6000409550956095709580918802909189025B
:103A7000A0918A02B0918B028A019B01082319232D
:103A80002A233B2309831A832B833C83C901B80172
:103A90000F900F900F900F90DF91CF911F910F918A
:103AA0000C94B61C0F931F93CF93DF9300D000D0DC
:103AB000CDB7DEB741E050E060E070E004C0440FF5
:103AC000551F661F771F8A95D2F7809188029091C3
:103AD0008902A0918A02B0918B028A019B0108277A
:103AE00019272A273B2709831A832B833C83C90183
:103AF000B8010F900F900F900F90DF91CF911F9111
:103B00000F910C94B61CCF93DF9300D000D0CDB7AB
:103B1000DEB769837A838B839C838091880290913E
:103B20008902A0918A02B0918B0229813A814B814E
:103B30005C81282B392B4A2B5B2B29833A834B83BF
:103B40005C83CA01B9010F900F900F900F90DF9125
:103B5000CF910C94B61CCF93DF9300D000D0CDB79B
:103B6000DEB769837A838B839C83809188029091EE
:103B70008902A0918A02B0918B0229813A814B81FE
:103B80005C81282339234A235B2329833A834B838F
:103B90005C83CA01B9010F900F900F900F90DF91D5
:103BA000CF910C94B61CCF93DF9300D000D0CDB74B
:103BB000DEB769837A838B839C838091880290919E
:103BC0008902A0918A02B0918B0229813A814B81AE
:103BD0005C81282739274A275B2729833A834B832F
:103BE0005C83CA01B9010F900F900F900F90DF9185
:103BF000CF910C94B61C0895E82F2CE0929FE00D15
:103C000011248E2F877041E001C0440F8A95EAF796
:103C1000E695E695E69585E0E89FF0011124E659E2
:103C2000FD4F30E020E070E05191DF011197CB01B2
:103C3000022E02C0969587950A94E2F781708195CD
:103C40008527842385278C932F5F3F4F25303105AF
:103C500059F70895E82F2CE0929FE00D11249E2F34
:103C60009770E695E695E69585E0E89FF0011124CA
:103C7000E659FD4F50E040E080E0219130E0092E10
:103C800002C0369527950A94E2F721703327042E57
:103C900001C0220F0A94EAF7822B4F5F5F4F453035
:103CA000510559F70895BF92CF92DF92EF92FF929C
:103CB0000F931F93CF93DF938C01C0908802D09015
:103CC0008902E0908A02F0908B0280918C029091A0
:103CD0008D02A0918E02B0918F02C82AD92AEA2AB9
:103CE000FB2ACFE1D0E0BC2ED701C6010C2E04C0C8
:103CF000B695A795979587950A94D2F780FD0EC043
:103D0000219788F7B12C8B2DDF91CF911F910F91C7
:103D1000FF90EF90DF90CF90BF900895B8018C2F67
:103D20000E948D04019761F3EECFCF93DF93D82FDC
:103D3000C92F0E94531E6D2F7C2FDF91CF910C94C1
:103D40008D041F93CF93DF93162FD72F90913102BD
:103D5000992339F0862F972FDF91CF911F910C94E3
:103D6000951E882391F0862F972F0E94531EC82FEF
:103D7000682F812F9D2F0E94FC1D612F7D2F8C2F7E
:103D8000DF91CF911F910C948D04862F972F0E9465
:103D90002A1EC82FF2CF682F809118019091190127
:103DA0000C94A820682F80911801909119010C940F
:103DB000AA2080911801909119010C94AC20809157
:103DC00090028595859585950895809190028770DC
:103DD000089590919002977081E009F480E0089531
:103DE00080919C02089590919C02982B90939C0244
:103DF0000895982F909580919C02892380939C022E
:103E0000089510929C02089590919B02982B909394
:103E10009B020895982F909580919B02892380930F
:103E20009B02089510929B02089590919A02982BFC
:103E300090939A020895982F909580919A028923E1
:103E400080939A02089510929A02089580919102A7
:103E5000089508950C94291F90919102981721F0CC
:103E6000809391020C942A1F0895809191028823D7
:103E700029F01092910280E00C942A1F0895E0919D
:103E80001801F091190180919C028083E091180142
:103E9000F0911901808190919B02892B8083E091A0
:103EA0001801F0911901808190919A02892B8083E9
:103EB00090919102992381F0E0911801F0911901FC
:103EC0008081892B808380911801909119010E9433
:103ED0005C2081110E94351F809118019091190179
:103EE0000C94D51308950C94721F98E0899F90014B
:103EF0001124622B609390020E94EC1C809190022E
:103F00008595859585950C94731F1092900280E09D
:103F10000C94731F90919002809589238093900256
:103F2000282F277071F4282F082E000C330B9217BE
:103F3000130639F08595859585950E941D1D0C9475
:103F4000851F08956FEF7FEF90E080E00C94C03301
:103F500090E080E00E949C339C0181E02C3E3E4F2B
:103F600009F080E0089582E090E00C948E3383E0C5
:103F700090E00C948E33CF9384E090E00E948E33D7
:103F8000C82F81E290E00E948E33982F8C2FCF9122
:103F90000895CF93682FC92F84E090E00E94A23348
:103FA0006C2F81E290E0CF910C94A23386E090E0F8
:103FB0000C948E33682F86E090E00C94A233AB0112
:103FC000BC018FE090E00C94B433AB01BC0183E101
:103FD00090E00C94B43360E070E0CB010C94E51FEA
:103FE00060E070E0CB010E94DF1F0C94EB1F6CEED1
:103FF0007EEF90E080E00E94C03360E082E090E0DD
:104000000E94A23360E083E090E00E94A23310920D
:104010008C0210928D0210928E0210928F0260E03C
:1040200084E090E00E94A23360E081E290E00E9490
:10403000A23360E085E090E00E94A23360E086E079
:1040400090E00E94A2336FEF87E090E00E94A233DD
:1040500040E050E0BA0188E090E00E94B43360E0B4
:104060008DE090E00E94A23340E050E0BA0188E188
:1040700090E00E94B43360E087E190E00E94A233B8
:1040800040E050E0BA018CE190E00E94B43360E07F
:1040900080E290E00E94A23340E050E0BA0188E163
:1040A00090E00E94B4330C94F01F0C94F71F682F1B
:1040B0008EE090E00C94A233AC019C012E5F3F4F48
:1040C000485F5F4F80E02417350709F40895F90130
:1040D00091919F019923B9F38F5FF5CF9C016623DE
:1040E00051F0FC013296285F3F4F8191861729F0ED
:1040F000E217F307D1F780E0089581E008959C016D
:10410000FC0132968FEF90E04191461751F08F3FBE
:1041100019F4411101C0892F9F5F9630A9F78F3F95
:1041200009F40895280F311D87FD3A95F90162833E
:1041300008959C01FC013296285F3F4F81918613C0
:1041400003C0DF0111971C92E217F307B9F7089536
:104150000C947F200C949920FC01329686E0DF01BC
:104160001D928A95E9F7089508950C94B4200E9451
:10417000A9180E94DB0F0E94C9130E9465040C94C9
:10418000B5201F921FB61F9211248F939F93AF9358
:10419000BF9380919E02811113C080918A049091F7
:1041A0008B04A0918C04B0918D044196A11DB11D8A
:1041B00080938A0490938B04A0938C04B0938D0415
:1041C000BF91AF919F918F911F901FBE1F90189527
:1041D00082E084BD93E095BD9DE797BD80936E001E
:1041E00008952FB7F89480918A0490918B04A09140
:1041F0008C04B0918D042FBF08959C014FB7F894A3
:1042000080918A0490918B04A0918C04B0918D04CC
:104210004FBF821B930B089578941F921FB61F9275
:1042200011248F939F93AF93BF9380918A049091B1
:104230008B04A0918C04B0918D040196A11DB11D39
:1042400080938A0490938B04A0938C04B0938D0484
:10425000BF91AF919F918F911F901FBE1F90189596
:1042600081E08093E00080E28093D8001092C90042
:104270008FE097E20197F1F700C0000087E090EB34
:10428000DC0180939D0490939E04A0939F04B093BF
:10429000A00488E19CE00FB6F894A8958093600094
:1042A0000FBE90936000FFCF0C94A21F0E94DA060D
:1042B0008FE19EE40197F1F700C000000E94DA064A
:1042C00080E00E94750680FF04C00E9454210C9477
:1042D00030210895CF93DF9300D000D0CDB7DEB763
:1042E0000E94A81F811102C00E9455200E94B31F86
:1042F00080939D020E94BB1F90938F0480938E0435
:104300000E94B71F282F30E050E040E0CA01B901F9
:104310000E94381C8091880290918902A0918A02A3
:10432000B0918B0289839A83AB83BC83BC01CD019E
:104330000F900F900F900F90DF91CF910C94B41CC1
:104340000F931F93CF93DF9300D000D0CDB7DEB78C
:1043500041E050E060E070E08A019B0104C0000F82
:10436000111F221F331F8A95D2F709831A832B83CB
:104370003C83C901B8010E94381C0F900F900F9028
:104380000F90DF91CF911F910F910C94A9188B3250
:1043900058F48530C0F0EBEFE80FE632A0F4F0E01F
:1043A000EB58FB4C0C94CA2F833450F48A3308F03A
:1043B00051C0853309F44AC0883329F481E0089557
:1043C000833409F443C080E008950E945520F6CF5D
:1043D00080919D02807F80939D0281E080939F0267
:1043E00008950E94F203EACF90919D02892F8E7F5B
:1043F00090FF816080939D0280FDE0CF817F80935C
:104400009D02DCCF90919D02892F8D7F91FF82606C
:1044100080939D0281FFD2CF80919D028160EFCF7A
:1044200090919D02892F8B7F92FF846080939D02E3
:1044300082FDF2CFC3CF90919D02892F877F93FF9A
:10444000886080939D0283FDE7CFB8CF80E00E9413
:10445000A021B4CF8953FBCF8D51F9CF80E00895CF
:104460000C942E22CF93C82F80919F02882331F085
:10447000813099F010929F0280E00DC00E94F01EE2
:104480008232D1F78C2F0E942E22811119C08C2FDD
:104490000E94C7218170CF9108950E94F01E823240
:1044A00089F38C2F0E943022811112C0C93229F069
:1044B00050F4CB3069F0C43169F710929F0206C006
:1044C00081E090E0E7CF81E0C83321F380E0E2CFE4
:1044D00081E0E0CF8091A80208950895CF93DF9303
:1044E00000D00F92CDB7DEB790919404943019F5B7
:1044F00089836A837B8382E08093E9008FEF9091C8
:10450000E800815095FD06C09AE69A95F1F700C043
:104510008111F5CF8091E80085FF0DC050E040E0AB
:1045200063E070E0CE0101960E946C248091E80067
:104530008E778093E8000F900F900F90DF91CF91CE
:1045400008951F93CF93DF93D82F192F0E946D2AC0
:10455000C82F8DEF8C0F823070F48D2F912F0E9419
:10456000232FC43051F46D2F712F84E0DF91CF9150
:104570001F910C946E22C230B1F3DF91CF911F9145
:104580000895BC0183E00C946E221F93CF93DF93B8
:10459000EC010E946D2A182F8DEF810F823088F573
:1045A00046E0BE016E5F7F4F88810E94C12E1430AD
:1045B00051F581E08093E9008FEF9091E800815000
:1045C00095FD06C09AE69A95F1F700C08111F5CFE6
:1045D0008091E80085FF17C050E040E068E070E09F
:1045E000CE010E946C248091E8008E778093E800D1
:1045F00088E0FE01A0EAB2E001900D928A95E1F711
:1046000002C01230B1F2DF91CF911F9108958091D5
:104610009304811109C00E94F4250E9451268091C3
:10462000E20084608093E20008951092930408955C
:10463000089508950C94B72042E061EC81E00E9457
:10464000702542E261EC82E00C9470258091960422
:10465000893089F148F4823009F49DC0833009F42F
:1046600058C0813041F008958A3009F484C08B30FD
:1046700009F46AC0089580919504813A09F048C010
:104680008091E800877F8093E80080919904909161
:104690009A04892B61F468E080EA92E070E00E945D
:1046A000BB248091E8008B778093E800089560E058
:1046B00090E080E0F3CF80919504813249F58091BC
:1046C000990490919A04029718F58091E800877FE9
:1046D0008093E8008091E80082FF16C09091F3007B
:1046E0008091F200029729F48091F1008B7F813054
:1046F00021F48091F1008093A8028091E8008B77EB
:104700008093E8000C94A425809194048111E2CF59
:10471000089580919504813AD9F7809199049091F8
:104720009A04892BA9F78091E800877F8093E8009D
:104730008091E80080FFFCCF809124018093F100FC
:104740008091E8008E77DCCF80919504813201F76B
:104750008091990490919A04892BD1F68091E80078
:10476000877F8093E8000E94A4258091970480931E
:1047700024010C94A91880919504813249F6809106
:10478000E800877F8093E8000E94A4258091980428
:104790008093A902089580919504813A09F0B8CFD9
:1047A0008091E800877F8093E8008091E80080FF97
:1047B000FCCF8091A902C2CF84B7877F84BF0FB698
:1047C000F894A895809160008861809360001092B1
:1047D00060000FBE80E890E00FB6F894809361000F
:1047E000909361000FBE0E941A140E94F4250E944B
:1047F00051268091E20084608093E20078940E94C8
:10480000D6280E9426148AE191E00E94C4130E94D7
:1048100032140E94CD2D0E9424140E942514F7CF3B
:104820000C941224FC01CB01DA012F2F3327233003
:104830003105D1F070F42130310509F43EC0223049
:10484000310569F48BE390E026E934E02D933C9345
:10485000089521323105E9F02232310521F190E04D
:1048600080E030E020E0F2CFCF019927E13059F02D
:104870008230910559F0E2E9F4E0892B81F78491C7
:1048800090E09F01E3CFE2E7F4E0F9CFE6E6F4E061
:10489000F6CF892BB9F06130710509F789E090E016
:1048A00021EC34E0D3CF892B91F061307105B9F65A
:1048B00082E390E023EE34E0C9CF82E190E021ED85
:1048C00034E0C4CF89E090E028EA34E0BFCF80E450
:1048D00090E025E135E0BACFAF92BF92CF92DF9260
:1048E000FF920F931F93CF93DF936C01EB018A012B
:1048F0000E94C325F82E811123C00115110539F03E
:10490000F80180819181C81BD90BC80ED91EB12C2A
:10491000A12C2097A9F08091E80085FD22C080910C
:10492000E8008E778093E80001151105A1F0F801E9
:1049300080819181A80EB91EB182A08285E0F82EF7
:104940008F2DDF91CF911F910F91FF90DF90CF902E
:10495000BF90AF9008950E94C3258823D1F2F82E0E
:10496000EFCFF60181916F018093F1002197FFEF66
:10497000AF1ABF0ACECFFC01CB0120919B0430912E
:104980009C042617370790F0009729F42091E8003F
:104990002E772093E80040E0009751F4411108C0C1
:1049A0008091E80082FF31C080E00895C901F3CF13
:1049B000209194042223A9F12530A9F12091E80047
:1049C00023FD2DC02091E80022FDEACF2091E800D0
:1049D00020FFE2CF3091F3002091F200009719F010
:1049E0002830310558F041E02830310509F040E029
:1049F0002091E8002E772093E800CECF419140939C
:104A0000F10001972F5F3F4FE9CF809194048823F5
:104A100041F0853041F08091E80083FFC1CF81E013
:104A2000089582E0089583E00895FC01CB01209170
:104A30009B0430919C042617370790F0009729F4C7
:104A40002091E8002E772093E80040E0009751F491
:104A5000411108C08091E80082FF32C080E00895D3
:104A6000C901F3CF209194042223B1F12530B1F193
:104A70002091E80023FD2EC02091E80022FDEACF1E
:104A80002091E80020FFE2CF3091F3002091F20066
:104A9000009719F02830310558F041E028303105F1
:104AA00009F040E02091E8002E772093E800CECF77
:104AB00044914093F100319601972F5F3F4FE8CF2B
:104AC00080919404882341F0853041F08091E80082
:104AD00083FFC0CF81E0089582E0089583E00895C8
:104AE000982F973028F08F708093E90081E0089527
:104AF0009093E900242F762F50E0981731F07091B1
:104B0000EC002091ED005091F00021FD02C09F5F6C
:104B1000E8CF3091EB003E7F3093EB003091ED0019
:104B20003D7F3093ED003091EB0031603093EB002E
:104B30007093EC002093ED005093F0002091EE0074
:104B400027FDE5CF80E008958091950487FF13C08D
:104B50008091E80082FF06C08091E8008B77809307
:104B6000E80004C0809194048111F2CF08958091EF
:104B700094048823D9F38091E80080FFF8CF8091D6
:104B8000E8008E77ECCF2091E4003091E50095E6C7
:104B9000A9012091EC00822F817020FF06C0809136
:104BA000E80080FF06C080E008952091E80022FD23
:104BB0001AC080919404882389F0853089F080910F
:104BC000EB0085FD0FC02091E4003091E500421715
:104BD0005307F9F29150E1F684E0089582E00895D8
:104BE00083E0089581E008950E9462260E946A266B
:104BF000E0EEF0E0808181608083E8EDF0E080818C
:104C00008F77808319BCA7EDB0E08C918E7F8C9359
:104C100080818F7E80831092930408950F931F9359
:104C2000CF93DF930E9462260E946A26C8EDD0E0EF
:104C300088818F77888388818068888388818F7D49
:104C4000888319BC109294041092900410929204DC
:104C50001092910400EE10E0F80180818B7F808338
:104C600088818160888342E060E080E00E94702556
:104C7000E1EEF0E080818E7F8083E2EEF0E08081E3
:104C800081608083808188608083F80180818E7F4D
:104C90008083888180618883DF91CF911F910F91FC
:104CA0000895E8EDF0E080818F7E8083E7EDF0E00D
:104CB00080818160808384E082BF81E0809393045F
:104CC0000C940E26E8EDF0E080818E7F80831092B8
:104CD000E20008951092DA001092E10008951F9208
:104CE0000F920FB60F9211242F933F934F935F9320
:104CF0006F937F938F939F93AF93BF93EF93FF93A4
:104D00008091E10082FF0BC08091E20082FF07C02A
:104D10008091E1008B7F8093E1000E94D5288091F3
:104D2000DA0080FF18C08091D80080FF14C0809105
:104D3000DA008E7F8093DA008091D90019BC80FF61
:104D400091C082E089BD09B400FEFDCF81E080936F
:104D500094040E9407238091E10080FF19C0809194
:104D6000E20080FF15C08091E2008E7F8093E20018
:104D70008091E20080618093E2008091D80080629F
:104D80008093D80019BC85E0809394040E94192375
:104D90008091E10084FF28C08091E20084FF24C05C
:104DA00019BC82E089BD09B400FEFDCF8091D80016
:104DB0008F7D8093D8008091E1008F7E8093E10009
:104DC0008091E2008F7E8093E2008091E20081601A
:104DD0008093E20080919004882309F448C084E025
:104DE000809394040E941A238091E10083FF29C0DC
:104DF0008091E20083FF25C08091E100877F80934E
:104E0000E10082E080939404109290048091E1008C
:104E10008E7F8093E1008091E2008E7F8093E2009C
:104E20008091E20080618093E20042E060E080E0F7
:104E30000E9470258091F00088608093F0000E94AD
:104E40001823FF91EF91BF91AF919F918F917F9127
:104E50006F915F914F913F912F910F900FBE0F90E7
:104E60001F901895109294040E94152374CF80917E
:104E7000E30087FD02C081E0B3CF83E0B1CF1F9292
:104E80000F920FB60F9211242F933F934F935F937E
:104E90006F937F938F939F93AF93BF93CF93DF9342
:104EA000EF93FF93D091E900DF708091EC00C82F61
:104EB000C17080FDC0E81092E9008091F000877F0A
:104EC0008093F00078940E9483271092E9008091EB
:104ED000F00088608093F000CD2BCF70C093E90084
:104EE000FF91EF91DF91CF91BF91AF919F918F9102
:104EF0007F916F915F914F913F912F910F900FBED6
:104F00000F901F9018951F93CF93DF93CDB7DEB707
:104F1000AA970FB6F894DEBF0FBECDBF85E994E027
:104F2000FC0101962091F100208324E08D39920745
:104F3000B9F70E9426238091E80083FF1EC180916B
:104F40009504909196049A3008F017C1E92FF0E08B
:104F5000E556FB4C0C94CA2F803899F0823809F042
:104F60000CC1809199048F70873008F006C180933E
:104F7000E9008091EB0085FB882780F91092E90019
:104F800006C0809191049091920491118260909159
:104F9000E800977F9093E8008093F1001092F10071
:104FA0008091E8008E77E5C0882309F4D3C0823071
:104FB00009F0E3C0809197048111D6C080919904D3
:104FC0008F702FEF280F263008F0D7C08093E900AC
:104FD0002091EB0020FFC8C0933031F48091EB00AA
:104FE00080628093EB00C0C09091EB009061909341
:104FF000EB0021E030E001C0220F8A95EAF7209310
:10500000EA001092EA008091EB008860EACF8111FB
:10501000B4C0109197041F778091E3008078812BB2
:105020008093E3008091E800877F8093E8000E94EE
:10503000A4258091E80080FFFCCF8091E300806888
:105040008093E30082E0111183E08093940495C083
:105050008058823008F091C0809197049091980414
:105060008C3D23E09207A1F583E08A838AE289835D
:105070004FB7F894DE01139620E03EE051E2E32FB3
:10508000F0E050935700E49120FF03C0E295EF70E9
:105090003F5FEF708E2F90E0EA30C0F0C7968D939F
:1050A0009D932F5F243159F74FBF8091E800877F90
:1050B0008093E8006AE270E0CE0101960E94BB2472
:1050C0008091E8008B778093E80057C0C096E7CFC7
:1050D0006091990470919A04AE014F5F5F4F0E94F6
:1050E0001024BC01892B09F448C08091E800877F17
:1050F0008093E80089819A810E941525E1CF80384C
:10510000E1F58091E800877F8093E800809190042A
:105110008093F10045CF811130C090919704923077
:1051200060F58091E800877F8093E8009093900479
:105130000E94A42580919004882311F084E005C08A
:105140008091E30087FDFACF81E0809394040E9470
:105150001C2313C080919704813079F481E093304F
:1051600009F080E0809392041092E9008091E800B9
:10517000877F8093E8000E94A4258091E80083FF48
:105180000AC08091E800877F8093E8008091EB005F
:1051900080628093EB00AA960FB6F894DEBF0FBE34
:1051A000CDBFDF91CF911F9108950895CF93809146
:1051B00094048823A1F0C091E900CF709091EC0095
:1051C000892F817090FD80E8C82B1092E9008091B2
:1051D000E80083FD0E948327CF70C093E900CF9140
:1051E0000895289A219A229A23982B9880E58CBDBD
:1051F0000895F901909125019F3F09F074C08F3FF8
:1052000009F471C061114AC01092AB029091AB02D7
:10521000423009F447C0433009F448C0946041303B
:1052200009F441C021E030E02E173F0708F440C0E8
:105230009091AB022032310509F450C0E0F52830DE
:10524000310509F446C02031310509F445C022304A
:105250003105D9F19CB52091AB02922B9CBD909168
:10526000AA02992319F09DB591609DBD80932501F7
:10527000E82FE295EF70F0E031A1282F2F7081E048
:1052800090E001C0880F2A95EAF7932F982B91A3FD
:1052900092A18095892382A381E0089590E2909362
:1052A000AB02B4CF98609093AB02BCCF9C60FBCFB5
:1052B000220F331FB9CF2034310599F09360203885
:1052C000310541F69093AB02C5CF91E09093AA02CD
:1052D000C1CF21E02093AA029160F4CF21E0209376
:1052E000AA029260EFCF80E00895CF93DF938EBD46
:1052F0000E94F120EC010DB407FE05C08EB590E0D0
:10530000DF91CF9108950E94F1208C1B9D0B843674
:10531000910588F38EEF9FEFF3CFCF93DF931EBC01
:105320000E94F120EC010DB407FE05C08EB590E09F
:10533000DF91CF9108950E94F1208C1B9D0B843644
:10534000910588F38EEF9FEFF3CF0F931F93CF93C9
:10535000DF93EC018C01060F171FC017D10719F45A
:1053600090E080E005C089910E94752997FFF5CFF4
:10537000DF91CF911F910F9108950F931F93CF93BA
:10538000DF93EC018C01060F171FC017D10739F40A
:1053900090E080E0DF91CF911F910F9108950E94DE
:1053A0008D2997FDF7CF8993F0CF809125018F3F0D
:1053B00029F1E82FE295EF70F0E041A18F7021E034
:1053C00030E0B90102C0660F771F8A95E2F7CB0182
:1053D000942F982B91A392A1892B82A38FEF809376
:1053E00025018DB58E7F8DBD9CB58091AB028095DA
:1053F00089238CBD1092AB021092AA020895803FBF
:1054000009F188F4843901F140F48533F9F08633E9
:10541000F9F0843339F583E208958639D9F0873974
:1054200009F582E20895853FB9F030F4813FB1F08B
:10543000843FC1F484E00895863F91F0873F91F462
:1054400087E0089580E0089580E2089584E2089559
:1054500085E2089581E2089585E0089581E0089548
:1054600086E008958FE1089595E890937A00982F4B
:105470009072906890937B008F7190912601892B98
:1054800080937C0080917A00806480937A00809180
:105490007A0086FDFCCF8091780020917900909170
:1054A0007A009F7790937A00922F08950E94FF29A7
:1054B0000C94342A0895CF93C82F0E945A2AC0937F
:1054C0002701CF91089580919404843021F00E94A7
:1054D0005C2D83E0089582E0089580912701811179
:1054E00002C00C94632A0895EF92FF920F931F93CA
:1054F000CF93DF93EC018B0122E030E040E060E0ED
:1055000084E30E94F9280E94F1207C0188810E9496
:1055100075298E3F9105F1F40E94D52982E48A9580
:10552000F1F700C022E030E040E060E084E30E9458
:10553000F928C7010E94FD208017910738F3C0E0C9
:105540000E94D5298C2FDF91CF911F910F91FF9051
:10555000EF9008956B816F7770E06D5F7F4FCE01A4
:1055600001960E94A529C1E0EBCFEF92FF920F9325
:105570001F93CF93DF93EC018B010E94F120F82E53
:10558000E92E669925C082E08A95F1F700C08F2D3B
:105590009E2D0E94FD208017910798F3C0E08C2F6C
:1055A000DF91CF911F910F91FF90EF90089563E0ED
:1055B00070E0CE0101960E94BD296B816F77613149
:1055C00028F470E0CE0104960E94BD29C1E021C0FC
:1055D00022E030E040E060E084E30E94F9280E948D
:1055E0008D2988838E3F18F30E94D52982E48A95FD
:1055F000F1F700C022E030E040E060E084E30E9488
:10560000F9288F2D9E2D0E94FD208017910738F3D9
:10561000C0E00E94D529C3CF1F93CF93DF93CDB7AE
:10562000DEB764970FB6F894DEBF0FBECDBF182F5C
:10563000E091B1028091B002E81721F1669B2CC085
:1056400066E970E0CE0101960E94B52A8823D1F068
:105650008C8187FD0DC02091B1028091B002281786
:1056600089F030E02F5F3F4F217033272093B10244
:10567000112341F09091B1028091B002981711F07E
:105680006699DECF64960FB6F894DEBF0FBECDBF2D
:10569000DF91CF911F910895F0E0EE0FFF1FE455C9
:1056A000FD4F808191810E94FD208D32914050F309
:1056B0008091B1029091B002891721F390E0019698
:1056C000817099278093B102DDCF5F926F927F92B4
:1056D0008F929F92AF92BF92CF92DF92EF92FF9202
:1056E0000F931F93CF93DF93CDB7DEB7A8970FB675
:1056F000F894DEBF0FBECDBF8C017B015A0149017A
:10570000FC0101900020E9F7CF0101976C01672BA4
:1057100061F09091B0028091B102981721F081E080
:105720000E940C2BF6CFF701108290E1792E2AE02F
:10573000622E30E9532EA601401B510B4131510519
:10574000C4F07D8A1E8A6F8A588EF801DE01599650
:10575000872D01900D928A95E1F7B401CE0145960F
:105760000E94742A811102C010E03BC0005F1F4FED
:10577000E2CF80E18D8B1E8A8AE08F8BCA018F7702
:105780009927888F5527B801CE0149960E94C630C7
:10579000B401CE0145960E94742A182F882321F364
:1057A000E114F104A9F50E94F120F82E092FE091EF
:1057B000B002F0E09F012F5F3F4F217033278091AF
:1057C000B102821304C080E00E940C2BF0CFEE0FD8
:1057D000FF1FE455FD4FF08201832093B0020E9429
:1057E000F120812FA8960FB6F894DEBF0FBECDBF73
:1057F000DF91CF911F910F91FF90EF90DF90CF90AD
:10580000BF90AF909F908F907F906F905F90089522
:10581000AE0CBF1C87016CE271E0CE0101960E94C4
:10582000B52A882309F4A0CF8981803219F0F701C5
:1058300010829ACF8C818F77CA2CC01A8C1508F4ED
:10584000C82ECC2051F0D12CA601BE016B5F7F4F3A
:10585000C8010E94C6300C0D1D1D8C8187FDDBCF59
:10586000F801108201501109E016F10630F4F80138
:1058700080818A30A9F38D3099F36AE070E0C70126
:105880000E94CF30009721F07C01FFEFEF1AFF0A52
:1058900062E576E0C7010E94A03011E0892B09F48F
:1058A000A0CF62CFAF92BF92CF92DF92EF92FF92E2
:1058B0000F931F93CF93DF9300D0CDB7DEB78C014A
:1058C0007B016A012DB73EB73A8329830E94B0302D
:1058D00001962DB73EB7281B390B0FB6F8943EBF83
:1058E0000FBE2DBF8DB79EB701965C01B8010E9417
:1058F000A93026E930E0A601B701C5010E94652B59
:1059000029813A810FB6F8943EBF0FBE2DBF0F908C
:105910000F90DF91CF911F910F91FF90EF90DF904B
:10592000CF90BF90AF9008959F92AF92BF92CF92C9
:10593000DF92EF92FF920F931F93CF93DF93CDB738
:10594000DEB7CA57D1090FB6F894DEBF0FBECDBF80
:105950008C019091B0028091B102981335C0809172
:10596000430490914204891779F12AE0289FC001ED
:1059700011248E549D4FFC01DE01AF58BF4F0190A2
:105980000D922A95E1F7FC01F080D580C680B780A2
:10599000A08491840E94F12090934F0480934E0440
:1059A000FF2029F1F1E0FF1609F467C0809143045C
:1059B00090914204891741F090E0019668E270E00E
:1059C0000E94942F80934304C658DF4F0FB6F8947B
:1059D000DEBF0FBECDBFDF91CF911F910F91FF9022
:1059E000EF90DF90CF90BF90AF909F90089560E7C9
:1059F00075E09E012F5F3F4F7901C9010E94A930D8
:105A00001F929F921F92AF921F92BF921F92CF92AE
:105A10001F92DF92E6968FADE6971F928F93E596E1
:105A20008FADE5971F928F93FF92EF921F9280E3C5
:105A30008F937E0131E4E30EF11CFF92EF920E94FE
:105A4000E230980150E040E070E060E0C7010E9461
:105A5000652B0FB6F894DEBF0FBECDBF8111A6CF68
:105A6000FFE729EA33E0F15020403040E1F700C081
:105A7000000081E00E940C2BA7CF65E575E09E0138
:105A80002F5F3F4F7901C9010E94A930E6968FAD83
:105A9000E6978F93E5968FADE5978F93FF92EF9200
:105AA0001F9280E38F937E0131E4E30EF11CFF929D
:105AB000EF920E94E230C5CF809144040895EF92A6
:105AC000FF920F931F93CF93DF93CDB7DEB7C258EA
:105AD000D1090FB6F894DEBF0FBECDBF809145044B
