:100000000C94CA030C941C040C941C040C941C0443
:100010000C941C040C941C040C941C040C941C04E0
:100020000C941C040C941C040C9452250C940E2566
:100030000C945D2C0C941C040C941C040C941C0457
:100040000C941C040C941C040C941C040C941C04B0
:100050000C94802C0C94392C0C941C040C941C04CF
:100060000C941C040C941C040C941C040C941C0490
:100070000C941C040C941C040C941C040C941C0480
:100080000C941C040C941C040C941C040C941C0470
:100090000C941C040C941C040C941C040C941C0460
:1000A0000C941C040C941C040C941C0441545A0021
:1000B00041542B424C4542415454454E3D31004140
:1000C000542B424C45504F5745524C4556454C3D9C
:1000D0002D31320041542B424C45484944454E3D58
:1000E000310041542B4741504445564E414D453D0A
:1000F000616C697834300041542B474150494E546B
:10010000455256414C533D31302C33302C2C00415C
:1001100054453D300005010980A101850319012ADC
:10012000B700150126B700950175108100C0050CB8
:100130000901A101850419012AA002150126A002C6
:10014000950175108100C00660FF0961A101096277
:10015000150026FF00952075088102096315002609
:10016000FF00952075089102C005010906A101054F
:100170000719E029E7150025019508750181029509
:1001800001750881010507190029FF150026FF00E8
:100190009506750881000508190129059505750161
:1001A0009102950175039101C00001010101010156
:1001B000010101020202020202020202030303031E
:1001C00003030303040404040404040505050505EE
:1001D00006060606060707070707080808080909AC
:1001E00009090A0A0A0B0B0B0C0C0C0D0D0D0E0E57
:1001F0000E0F0F0F101011111112121313141415EA
:100200001516161717181819191A1A1B1B1C1D1D5D
:100210001E1E1F20202122222324242526262728B3
:1002200029292A2B2C2D2D2E2F30313232333435E3
:10023000363738393A3B3C3D3E3F404142434445E6
:10024000464748494A4C4D4E4F50515354555658C5
:10025000595A5B5D5E5F616264656668696B6C6D6F
:100260006F7072737577787A7B7D7E8082838587E5
:10027000888A8C8E8F91939596989A9C9EA0A2A323
:10028000A5A7A9ABADAFB1B3B5B7BABCBEC0C2C428
:10029000C6C9CBCDCFD1D4D6D8DBDDDFE2E4E7E9E8
:1002A000EBEEF0F3F5F8FAFDFFFFAA7F55402223AD
:1002B000252628292A2C2D2F3032333536383A3B43
:1002C0003D3E4042434547494A4C4E505153555795
:1002D000595A5C5E6062646668696B6D6F717375B4
:1002E00077797B7D7F81838587898A8C8E909294B4
:1002F00096989A9C9E9FA1A3A5A7A8AAACAEAFB1C1
:10030000B3B4B6B8B9BBBCBEBFC1C2C3C5C6C7C90A
:10031000CACBCCCDCED0D1D2D2D3D4D5D6D7D7D8C4
:10032000D9D9DADADBDBDBDCDCDCDCDCDDDDDDDD16
:10033000DCDCDCDCDCDBDBDBDADAD9D9D8D7D7D61E
:10034000D5D4D3D2D2D1D0CECDCCCBCAC9C7C6C5D5
:10035000C3C2C1BFBEBCBBB9B8B6B4B3B1AFAEAC1B
:10036000AAA8A7A5A3A19F9E9C9A98969492908EC6
:100370008C8A89878583817F7D7B79777573716F9F
:100380006D6B6968666462605E5C5A59575553517B
:10039000504E4C4A4947454342403E3D3B3A383631
:1003A000353332302F2D2C2A2928262523220000F0
:1003B0000000000000000000000101020304050627
:1003C000080A0C0F1114181C2024292E33393F461B
:1003D0004C535B626A7179818A929AA2AAB2B9C1BE
:1003E000C8CFD5DCE1E7EBF0F4F7FAFCFDFEFFFE49
:1003F000FDFCFAF7F4F0EBE7E1DCD5CFC8C1B9B208
:10040000AAA29A928A8179716A625B534C463F39FB
:10041000332E2924201C1814110F0C0A0806050479
:1004200003020101000000000000000000002B009A
:1004300014001A000800150017001C0018000C001A
:1004400012001300350029000400160007000900FF
:100450000A000B000D000E000F0033003400E10015
:100460001D001B00060019000500280011001000E7
:10047000360037003800E000E6000000E30000002E
:100480002A412C420000E70000002F003000350216
:100490001E021F0220022102220223022402250240
:1004A0002602270231024C003A003B003C003D008E
:1004B0003E005000510052004F0033003400E10074
:1004C0003F0040004100420043002800AB00AA006A
:1004D000A900AE003800E000E6000000E3000000E4
:1004E0002A412C420000E70000002D022E023502B6
:1004F0001E001F00200021002200230024002500F0
:100500002600270031004C003A003B003C003D0033
:100510003E005000510052004F0033003400E10013
:100520003F0040004100420043002800AB004E0065
:100530004B004A004D00E000E6000000E300000030
:100540002A412C420000E70000002D002E0001008F
:100550000100010001000100010001000100010093
:100560000100010001000100010001000100010083
:100570000100010001000100010001000100010073
:100580000100010001000100010001000100010063
:100590000100010001000100010000000100010054
:1005A0000100010001000100000001000100000045
:1005B000000000000000000000000000000000003B
:1005C00000007E0F00D4FFFFFFC70000007800008E
:1005D0000000000000002A2B28000000000000009E
:1005E00000000000000000000029000000002C1E98
:1005F0003420212224342627252E362D3738271E55
:100600001F202122232425263333362E37381F047A
:1006100005060708090A0B0C0D0E0F101112131412
:1006200015161718191A1B1C1D2F3130232D3504D0
:1006300005060708090A0B0C0D0E0F1011121314F2
:1006400015161718191A1B1C1D2F3130354C32196D
:100650000A00047F3F1F643214643214783C1E1E6B
:10066000140A050F01F700E200D400BF00B000AC8F
:100670000041542B474150474554434F4E4E004193
:10068000542B4556454E54454E41424C453D3078DD
:10069000320041542B4556454E54454E41424C453F
:1006A0003D3078310009025B00030100A0FA090423
:1006B0000000010301010009211101000122400095
:1006C0000705810308000A09040100020300000075
:1006D00009211101000122220007058203200001E7
:1006E00007050303200001090402000103000000C4
:1006F0000921110100012232000705840320000AAC
:1007000012011001000000084351344101000102B0
:1007100000010E0361006C006900780034003000B5
:100720000000120371007500610064006300750031
:100730006200650000000403090441542B424C454B
:10074000484944434F4E54524F4C4B45593D3078E5
:10075000253034780041542B424C454B4559424F8B
:10076000415244434F44453D253032782D30302DA1
:10077000253032782D253032782D253032782D25D0
:100780003032782D253032782D25303278004F4B9D
:100790000000052511241FBECFEFDAE0DEBFCDBF7C
:1007A00004B603FE27C08091770490917804A0914D
:1007B0007904B0917A048730904BA740B04BD1F4C4
:1007C00010927704109278041092790410927A04AF
:1007D00014BE84B7877F84BF0FB6F894A895809124
:1007E0006000886180936000109260000FBEE0E0BE
:1007F000F8E3099524E0ACEAB1E001C01D92A73707
:10080000B207E1F711E0A0E0B1E0ECE7F4E602C0E6
:1008100005900D92AC3AB107D9F713E0CAECD3E0DA
:1008200004C02197FE010E94372DC93CD107C9F7AA
:100830000E942B260C94C2310C94000080911E0162
:100840008F3FA9F410926E0481E080936D048CB503
:100850008CBD80916D04882319F08DB581608DBDAC
:1008600084E380931E01249A2C9881E0089580E00F
:10087000089580911E018F3F29F1E82FE295EF70D6
:10088000F0E041A18F7021E030E0B90102C0660FB5
:10089000771F8A95E2F7CB01942F982B91A392A111
:1008A000892B82A38FEF80931E018DB58E7F8DBD26
:1008B0009CB580916E04809589238CBD10926E0446
:1008C00010926D040895E8EDF0E080818E7F8083C2
:1008D0001092E2001092DA001092E100A0EEB0E077
:1008E0008C9181608C9380818F77808319BCA7ED78
:1008F000B0E08C918E7F8C9380818F7E808310926C
:10090000B30208952091E4003091E50095E6A90135
:100910002091EC00822F817020FF06C08091E800BA
:1009200080FF06C080E008952091E80022FD1AC0F3
:1009300080916F04882389F0853089F08091EB00E5
:1009400085FD0FC02091E4003091E5004217530768
:10095000F9F29150E1F684E0089582E0089583E091
:10096000089581E00895EF92FF920F931F93CF9324
:100970007C018B010E948204C82F811117C08091D5
:10098000E80085FD0BC08091E8008E778093E80039
:100990000E948204882399F3C82F08C0F70181912F
:1009A0007F018093F1000150110949F78C2FCF91FD
:1009B0001F910F91FF90EF900895CF9320916F04B6
:1009C0002430F9F4C091E900CF703091EC00232F6E
:1009D000217030FD20E8C22B22E02093E900209115
:1009E000E80020FF0BC050E040E060E270E00E94B1
:1009F000B3048091E8008E778093E800CF70C093B5
:100A0000E900CF9108958091C10287FF13C08091C2
:100A1000E80082FF06C08091E8008B778093E800B1
:100A200004C080916F048111F2CF089580916F040A
:100A30008823D9F38091E80080FFF8CF8091E80007
:100A40008E77ECCF982F9093E900242F762F50E0EB
:100A5000891731F07091EC002091ED005091F00079
:100A600021FD07C09F5F973071F78093E90081E017
:100A700008953091EB003E7F3093EB003091ED0014
:100A80003D7F3093ED003091EB0031603093EB000F
:100A90007093EC002093ED005093F0002091EE0055
:100AA00027FDE0CF80E00895CF92DF92EF92FF9292
:100AB0000F931F93CF93DF93C8EDD0E088818F7E93
:100AC0008883E7EDF0E080818160808384E082BFED
:100AD00081E08093B30288818E7F888302EE10E0EC
:100AE000F80110821092DA0081EEC82ED12CF601A6
:100AF000108288818F778883888180688883888145
:100B00008F7D888319BC10926F041092C0021092DE
:100B1000BF021092BE0290EEE92EF12CF701808107
:100B20008B7F808388818160888342E060E080E001
:100B30000E942205F60180818E7F8083F8018081EA
:100B400081608083808188608083F70180818E7FCF
:100B50008083888180618883DF91CF911F910F917D
:100B6000FF90EF90DF90CF900895FC01CB01209192
:100B7000C7023091C8022617370790F0009729F472
:100B80002091E8002E772093E80040E0009751F490
:100B9000411108C08091E80082FF31C080E00895D3
:100BA000C901F3CF20916F042223A9F12530A9F1C7
:100BB0002091E80023FD2DC02091E80022FDEACF1E
:100BC0002091E80020FFE2CF3091F3002091F20065
:100BD000009719F02830310558F041E028303105F0
:100BE00009F040E02091E8002E772093E800CECF76
:100BF00041914093F10001972F5F3F4FE9CF8091E2
:100C00006F04882341F0853041F08091E80083FF34
:100C1000C1CF81E0089582E0089583E008950895AA
:100C200008958091B50208959C014FB7F894809182
:100C3000AF029091B002A091B102B091B2024FBF49
:100C4000821B930B08952FB7F8948091AF02909177
:100C5000B002A091B102B091B2022FBF0895CF931C
:100C6000DF931EBC0E942306EC010DB407FE05C0F5
:100C70008EB590E0DF91CF9108950E9423068C1BE2
:100C80009D0B8436910588F38EEF9FEFF3CFCF93C2
:100C9000DF938EBD0E942306EC010DB407FE05C054
:100CA0008EB590E0DF91CF9108950E9423068C1BB2
:100CB0009D0B8436910588F38EEF9FEFF3CF8091E3
:100CC0007C02811110927C02089580917B029091A8
:100CD0007A02892B90917902892B8093AC019091B3
:100CE0007C02992391F0892B8093AC0120E08EEA5D
:100CF00091E0FC013081019631112F5F31E0843B9E
:100D00009307B9F721110E945F06E0918D02F091DF
:100D10008E02309731F00280F381E02D8CEA91E071
:100D200009940895EEEAF1E09191891303C0DF017F
:100D300011971C9291E0E43BF907B1F70895AEEAF0
:100D4000B1E0EFEF90E02D91821751F0EF3F19F4F1
:100D5000211101C0E92F9F5F9630A9F7EF3F09F4F9
:100D600008950E2E000CFF0BE455FE4F828308956C
:100D7000E82F2CE0929FE00D11249E2F9770E695AE
:100D8000E695E69585E0E89FF0011124E65AFD4FCF
:100D900050E040E080E0219130E0092E02C036951D
:100DA00027950A94E2F721703327042E01C0220F01
:100DB0000A94EAF7822B4F5F5F4F4530510559F790
:100DC0000895E82F2CE0929FE00D11248E2F87705C
:100DD00041E001C0440F8A95EAF7E695E695E6956D
:100DE00085E0E89FF0011124E65AFD4F30E020E055
:100DF00070E05191DF011197CB01022E02C0969550
:100E000087950A94E2F78170819585278423852749
:100E10008C932F5F3F4F2530310559F7089580910E
:100E2000590290912802981301C008958F5F87702E
:100E3000FACF882341F0809590917B02892380939B
:100E40007B020C9465060895882339F090917B020B
:100E5000892B80937B020C946506089520911F02D4
:100E6000309120022817390771F090932002809367
:100E70001F02E0918D02F0918E02309721F00084E4
:100E8000F185E02D0994089520911D0230911E02F4
:100E90002817390771F090931E0280931D02E0918C
:100EA0008D02F0918E02309721F00680F781E02DBF
:100EB0000994089510927A02109279020E946506B0
:100EC00090E080E00E94440790E080E00C942E07C0
:100ED0006093730470937404809375049093760404
:100EE0000C945A07CF93DF9300D000D0CDB7DEB774
:100EF0008091730490917404A0917504B09176046C
:100F0000AC01BD0146705527662777279C01463006
:100F100051056105710591F4AD01286029833A837B
:100F20004B835C8369817A818B819C810F900F90C8
:100F30000F900F90DF91CF910C946807AD01277F40
:100F4000EDCF0F931F93CF93DF9300D000D0CDB799
:100F5000DEB741E050E060E070E004C0440F551F90
:100F6000661F771F8A95D2F74095509560957095CA
:100F70008091730490917404A0917504B0917604EB
:100F80008A019B01082319232A233B2309831A83FF
:100F90002B833C83C901B8010F900F900F900F90E5
:100FA000DF91CF911F910F910C9468079091780277
:100FB0008095892380937802282F277071F4282F39
:100FC000082E000C330B9217130639F08595859582
:100FD00085950E94A1071092780208950F931F93A0
:100FE000CF93DF9300D000D0CDB7DEB741E050E023
:100FF00060E070E004C0440F551F661F771F8A959C
:10100000D2F78091730490917404A0917504B0910B
:1010100076048A019B01082B192B2A2B3B2B098371
:101020001A832B833C83C901B8010F900F900F9056
:101030000F90DF91CF911F910F910C9468076093EF
:101040007D0270937E0280937F02909380020C94C5
:101050005A07E0918D02F0918E02309721F00190B5
:10106000F081E02D099480E00895882309F452C0AE
:10107000823871F40E94290881FF4CC089E30E94E4
:101080009F060E94650689E30E9492060C946506FD
:10109000833859F40E94290880FF3CC083E50E94F0
:1010A0009F060E94650683E5EFCF843859F40E94BD
:1010B000290882FF2FC087E40E949F060E946506D0
:1010C00087E4E2CF9CEF980F913AF0F290E2980F0C
:1010D000983088F4877021E030E0A90102C0440F05
:1010E000551F8A95E2F7CA01809590917B0289236A
:1010F00080937B02CBCF9BE5980F933020F490E058
:1011000080E00C944407885A873120F490E080E016
:101110000C942E07089510921C0210921B0210923C
:101120001A02EFE6F0E08081816080830895CF931A
:10113000DF93CDB7DEB728970FB6F894DEBF0FBEAA
:10114000CDBF8C3724E1920770F469E070E00E9413
:101150000F2DCB0128960FB6F894DEBF0FBECDBF82
:10116000DF91CF910895B0E0A0E08A50974DAF4F46
:10117000BF4F2227382F492F5A2FCA01B90125EF17
:1011800038E241E050E00E94913129833A834B8359
:101190005C83CA01B9010E94E52C9B01AC01698105
:1011A0007A818B819C810E94E52CBB27A92F982FE7
:1011B000872F009731E0A307B10561F68FEF9FEF0E
:1011C000C9CFCF93DF9300D000D0CDB7DEB7803248
:1011D00030F5811125C090918000977F9093800019
:1011E0002F98282F30E0AFEFBFEF0E94B331698313
:1011F0007A838B839C832FE130E040E050E00E94B3
:101200009131C9010E94970890938D0080938C00C2
:101210000F900F900F900F90DF91CF9108958FE175
:1012200090918000986090938000DBCF282F220F50
:10123000220F220F90919F029770922B90939F0202
:10124000987F21E009F420E090919F0220FB90F923
:1012500090939F020C94E108FA0181110994FB011B
:10126000FDCF8091A202982F9E7F29F48170826029
:101270008093A20208958635E8F381708465F8CFE3
:101280008F929F92AF92BF92CF92DF92EF92FF9296
:101290000F931F93CF93DF93D82EC62EE901E42F2F
:1012A000F0E0E755FE4F611113C04491942FE42FF5
:1012B000E98348839A83DF91CF911F910F91FF902B
:1012C000EF90DF90CF90BF90AF909F908F90089558
:1012D000062F10E0E49186E0D89E700111242FEFD4
:1012E00030E0C701B9010E940F2D8D2D90E0880FCD
:1012F000991FF5E5F69FA001F79F500D1124841B5F
:10130000950B982F990F890FA901401B510BE49F52
:10131000D001E59FB00D11244B2FC89E6001112410
:10132000CD2CDD245901AC18BD08EA9D6001EB9D70
:10133000D00C11249D2D4901881A9108809E5001DE
:10134000819EB00C909EB00C1124AB2CBB242A19AA
:101350003B09E29F8001E39F100D1124633071056A
:10136000D1F08CEFE81683E0F80670F46130710577
:10137000B1F062307105B9F08FEFE816F10408F0B2
:1013800097CF9B2F412F94CF6430710579F0663051
:101390007105B9F38DCF4D2D9E2FEB2F89CF4E2F99
:1013A000ED2D9B2F85CF912F4E2FF7CF9E2FE12F25
:1013B0007FCFF894E82FE295EF70F0E041A18F70B5
:1013C00021E030E0B90102C0660F771F8A95E2F78D
:1013D000CB01962F9095942391A392A1892B82A360
:1013E0007894089590918A0292FF06C0282F287160
:1013F0002830F9F4877F846093FF06C0282F287176
:101400002831F1F4877E846120918B0220FF06C091
:10141000382F38713830D9F4877F816021FF06C0BA
:10142000282F28712831D1F4877E816194FD877E31
:101430000895282F24712430F9F68B7F8860DCCF43
:10144000282F2471243101F78B7E8861DDCF382F5E
:101450003171313019F78E7F8860E0CF282F2171EC
:10146000213121F78E7E8861E1CFEF92FF920F93B9
:101470001F93CF93DF93EC017B010E942306182F6B
:10148000092F66993CC082E08A95F1F700C0812F50
:10149000902F0E9414068E159F0598F3C0E08C2FA4
:1014A000DF91CF911F910F91FF90EF9008957E01F2
:1014B000FFEFEF1AFF0A8E010C5F1F4F0E942F06ED
:1014C00097FD06C0F70181937F01E017F107B1F79F
:1014D000CB81CF77C13110F0C1E028C0D0E0F12C32
:1014E000E12CEC16FD06C0F70E942F0697FDF4CF05
:1014F000F80181938F01FFEFEF1AFF0AF2CF0E94EC
:101500001E040E942F0688838E3F88F20E943904B1
:10151000E2E4EA95F1F700C00E941E04812F902FAB
:101520000E9414068E159F0560F3C0E00E943904E6
:10153000B6CF1F93CF93DF93CDB7DEB764970FB6C7
:10154000F894DEBF0FBECDBF182FE0916C048091E0
:101550006B04E81721F1669B2CC066E970E0CE01B0
:1015600001960E94350A8823D1F08C8187FD0DC039
:1015700020916C0480916B04281789F030E02F5F74
:101580003F4F2170332720936C04112341F0909139
:101590006C0480916B04981711F06699DECF649605
:1015A0000FB6F894DEBF0FBECDBFDF91CF911F9174
:1015B0000895F0E0EE0FFF1FE959FB4F8081918104
:1015C0000E9414068D32914050F380916C049091EA
:1015D0006B04891721F390E001968170992780931D
:1015E0006C04DDCFEF92FF920F931F93CF93DF93A5
:1015F000EC018B010E941E040E9423067C0188815D
:101600000E9447068E3F9105C9F40E94390482E486
:101610008A95F1F700C00E941E04C7010E941406BB
:101620008017910760F3C0E00E9439048C2FDF918E
:10163000CF911F910F91FF90EF9008950B810F773D
:1016400010E00D5F1F4F2196F12CE12C89910E9433
:10165000470697FD06C08FEFE81AF80AE016F10674
:10166000A8F3C1E0E1CF5F926F927F928F929F9239
:10167000AF92BF92CF92DF92EF92FF920F931F93A0
:10168000CF93DF93CDB7DEB7A8970FB6F894DEBF40
:101690000FBECDBF8C017B015A014901FC010190B5
:1016A0000020E9F7CF0101976C01672B61F0909161
:1016B0006B0480916C04981721F081E00E94990AD4
:1016C000F6CFF701108290E1792E2AE0622E30E900
:1016D000532EA601401B510B41315105C4F07D8AA8
:1016E0001E8A6F8A588EF801DE015996872D019067
:1016F0000D928A95E1F7B401CE0145960E94F20A57
:10170000811102C010E03BC0005F1F4FE2CF80E1BB
:101710008D8B1E8A8AE08F8BCA018F779927888FDD
:101720005527B801CE0149960E94572EB401CE012B
:1017300045960E94F20A182F882321F3E114F10440
:10174000A9F50E942306F82E092FE0916B04F0E022
:101750009F012F5F3F4F2170332780916C048213CC
:1017600004C080E00E94990AF0CFEE0FFF1FE959F4
:10177000FB4FF082018320936B040E942306812F8C
:10178000A8960FB6F894DEBF0FBECDBFDF91CF9104
:101790001F910F91FF90EF90DF90CF90BF90AF908F
:1017A0009F908F907F906F905F900895AE0CBF1CBC
:1017B00087016CE271E0CE0101960E94350A882310
:1017C00009F4A0CF8981803219F0F70110829ACFF5
:1017D0008C818F77CA2CC01A8C1508F4C82ECC20A7
:1017E00051F0D12CA601BE016B5F7F4FC8010E9452
:1017F000572E0C0D1D1D8C8187FDDBCFF80110824B
:1018000001501109E016F10630F4F80180818A30A8
:10181000A9F38D3099F36AE070E0C7010E94602E51
:10182000009721F07C01FFEFEF1AFF0A6EE877E0E6
:10183000C7010E94292E11E0892B09F4A0CF62CFA5
:10184000AF92BF92CF92DF92EF92FF920F931F93CE
:10185000CF93DF9300D0CDB7DEB78C017B016A0157
:101860002DB73EB73A8329830E94392E01962DB7B2
:101870003EB7281B390B0FB6F8943EBF0FBE2DBFE5
:101880008DB79EB701965C01B8010E94322E26E901
:1018900030E0A601B701C5010E94330B29813A81CE
:1018A0000FB6F8943EBF0FBE2DBF0F900F90DF9183
:1018B000CF911F910F91FF90EF90DF90CF90BF904D
:1018C000AF900895CF93DF9300D00F92CDB7DEB7DE
:1018D00090916F04943011F589836A837B83909390
:1018E000E9008FEF9091E800815095FD06C09AE6DF
:1018F0009A95F1F700C08111F5CF8091E80085FF3E
:101900000DC050E040E063E070E0CE0101960E941F
:10191000B3048091E8008E778093E8000F900F90D9
:101920000F90DF91CF910895BC0183E00C94620C7D
:1019300081E08093E00080E28093D8001092C9009B
:101940008FE097E20197F1F700C0000087E090EB8D
:10195000DC018093770490937804A0937904B0938A
:101960007A0488E19CE00FB6F894A8958093600013
:101970000FBE90936000FFCF8091A20280FD0AC04D
:10198000EAEBF1E0118210821282339651E0EE3DD3
:10199000F507C1F7209A35B13E7F25B121604FB7D9
:1019A000F8948AEB91E0FC010196508168E025B93A
:1019B00057FF35B9550F000000C035B9000000C011
:1019C00000C000C000C000C000C000C000C000C017
:1019D00000C000C000C000C000C000C06A9539F758
:1019E00051E08E3D9507F9F64FBF8FE292E00197E7
:1019F000F1F700C000000895EF92FF921F93CF937C
:101A0000DF93EC018AEBE82E81E0F82E10E08C8168
:101A100097014091A5026091A402810F0E944009A4
:101A20001B5E83E0E80EF11C1C3F89F70E94BC0C92
:101A30009A818C8190FF08C08F5F8C83DF91CF915A
:101A40001F91FF90EF9008958150F7CFCF92DF92D2
:101A5000EF92FF920F931F93CF93DF93FC0182814C
:101A6000DD24DA9480FD02C0DD24D3940AEB11E07A
:101A7000D0E0C0E0F80111821082128294E0E92ED9
:101A8000F12CC12C8091B7018C0D8D30E4F16CE00C
:101A90000E94012D892F082E000C990B8C179D0791
:101AA00091F48091A5028E9DA0018F9D500D11246F
:101AB000559547955595479598016091A402809159
:101AC000A3020E944009CD0CF1E0EF1AF108D1F613
:101AD00021960D5F1F4FCC30D10561F60E94BC0CE2
:101AE0008091B70191E0D91214C0811110C08BE030
:101AF0008093B701DF91CF911F910F91FF90EF90ED
:101B0000DF90CF90089587FFC6CF845FC4CF815008
:101B1000EFCF90E00196BE010E94232DE9CF0F93F5
:101B20001F93CF93DF93CAEBD1E0FE0111821082A5
:101B30001282339681E0EE3DF807C1F710E000E035
:101B40008091B801082E000C990B081719078CF129
:101B500080911001082E000C990B801791074CF111
:101B60009E014091A5026091A4028091A3020E946F
:101B700040090F5F1F4F23960C30110509F70E9493
:101B8000BC0C80910F019091B801980F9093B8010F
:101B900020911001280F20931001121614F49B308D
:101BA0001CF0819580930F01DF91CF911F910F91D0
:101BB0000895198218821A82DCCFCF92DF92EF92B9
:101BC000FF920F931F93CF93DF93CDB7DEB72E977E
:101BD0000FB6F894DEBF0FBECDBF8D879E87AD8553
:101BE000BE8514961C91212F30E0D9010E94B3319B
:101BF0009B01AC010E947E3169837A838B839C8335
:101C0000E0E2F0E0E11BF109A5E5B0E09B01AC01E9
:101C10000E947E3169877A878B879C879F01DF01CD
:101C20000E94442D9B01AC010E9489316D837E830B
:101C30008F8398879B01AC0189819A81AB81BC819C
:101C4000280F391F4A1F5B1F69857A858B859C8504
:101C50000E949131F22E822F90E0A9E2A21708F49F
:101C600042C0B3E02B9F9001112435952795122F88
:101C700010959AEBC92E91E0D92E00E085E5E82E6B
:101C8000EF188E2D01FD8F2D9601412F6091A4023A
:101C90000E9440090F5FF3E0CF0ED11C0C3089F792
:101CA0000E94BC0CAD85BE8514969C9181E0992361
:101CB00019F0903219F48FEF809311018091110186
:101CC000890FED85FE8584832E960FB6F894DEBFCE
:101CD0000FBECDBFDF91CF911F910F91FF90EF907D
:101CE000DF90CF90089525E530E0F901E81BF90B6E
:101CF0009F01220F331F2E0F3F1F37FFB6CF2F5FDD
:101D00003F4FB3CFEF92FF920F931F93CF93DF9389
:101D1000EC010AEB11E0F12CE12C6091A40280911E
:101D2000A3029C8126E0E216F104FCF49923F9F069
:101D300098014091A5020E9440098FEFE81AF80A25
:101D40000D5F1F4F2CE0E216F10439F70E94BC0C26
:101D50008C8190E00196817099278C83DF91CF91DF
:101D60001F910F91FF90EF900895992309F3980127
:101D700040E0E1CF9091A20290FF0CC0EAEBF1E0CD
:101D8000818360834283339691E0EE3DF907C1F78A
:101D90000C94BC0C08950F931F93CF93DF9300D046
:101DA0000F92CDB7DEB78C018091B90181110AC0C5
:101DB0009E012F5F3F4F4FEF6FEF0E9440098A81D6
:101DC0008093B901F8016481613049F06230F1F02B
:101DD0008091B90140E0662331F040E019C0609184
:101DE000B90140E080E00E94BA0EF801848190E0E1
:101DF000019663E070E00E94232D84830F900F9082
:101E00000F90DF91CF911F910F9108954091B901EB
:101E100080E060E0E8CFCF93DF9300D00F92CDB7A2
:101E2000DEB79091A20290FF0AC09E012F5F3F4F44
:101E30000E9440094B8169818A810E94BA0E0F90ED
:101E40000F900F90DF91CF910895CF93DF93EC0126
:101E5000EC81F0E0E255FD4F4491E2EAF2E062816C
:101E600081810E940B0F8C818F5F8C83DF91CF91DA
:101E70000895CF93DF93EC01E2EAF2E043816281BF
:101E80008C810E940B0F8C818F5F8C83DF91CF91AF
:101E900008956F927F929F92AF92BF92CF92DF92FE
:101EA000EF92FF920F931F93CF93DF939DE8E92E5C
:101EB00091E0F92E10E000E0C0E0CC24C394D12CD6
:101EC0003AE8A32E32E0B32ED7018D917D01F8942C
:101ED000E82FE295EF70F0E021A18F70A60102C01B
:101EE000440F551F8A95E2F7CA01922F982B91A3B0
:101EF00092A18095892382A3789450E55A95F1F7B1
:101F0000A601002E02C0440F551F0A94E2F7BA0141
:101F100060957095E2E8F2E089E9682E81E0782E1C
:101F2000D0E021913191D3019D903D01892D829581
:101F30008F7090E0DC0190968C9190E0B92DBF708D
:101F400002C095958795BA95E2F780FD52C0C90108
:101F5000842B952B2817390739F09F01225031091E
:101F6000D9018D939C93D1E0AE16BF06D1F6F7014F
:101F7000319780810E94D909CD2B0F5F1F4F0C3004
:101F8000110509F0A1CFCC23C1F181E08093B60106
:101F90000E9423069093B5018093B4018091B4010F
:101FA0009091B5010E941406069758F18091820223
:101FB000909183029093A8028093A702809184025B
:101FC000909185029093AA028093A9028091860243
:101FD000909187029093AC028093AB02809188022B
:101FE000909189029093AE028093AD021092B60157
:101FF00008C0C90186239723ADCF8091B601811116
:10200000CDCF8C2FDF91CF911F910F91FF90EF904B
:10201000DF90CF90BF90AF909F907F906F9008958A
:102020009F92AF92BF92CF92DF92EF92FF920F9367
:102030001F93CF93DF93CDB7DEB7CA57D1090FB641
:10204000F894DEBF0FBECDBF8C0190916B048091E0
:102050006C04981335C080916604909165048917CB
:1020600079F12AE0289FC00111248B529D4FFC0179
:10207000DE01AF58BF4F01900D922A95E1F7FC01A8
:10208000F080D580C680B780A08491840E9423060A
:102090009093D4028093D302FF2029F1F1E0FF1640
:1020A00009F467C08091660490916504891741F036
:1020B00090E0019668E270E00E94232D8093660410
:1020C000C658DF4F0FB6F894DEBF0FBECDBFDF910D
:1020D000CF911F910F91FF90EF90DF90CF90BF9025
:1020E000AF909F90089565E577E09E012F5F3F4F89
:1020F0007901C9010E94322E1F929F921F92AF92C6
:102100001F92BF921F92CF921F92DF92E6968FADE1
:10211000E6971F928F93E5968FADE5971F928F9369
:10212000FF92EF921F9280E38F937E0131E4E30EE2
:10213000F11CFF92EF920E946B2E980150E040E05C
:1021400070E060E0C7010E94330B0FB6F894DEBF69
:102150000FBECDBF8111A6CFFFE729EA33E0F150D2
:1021600020403040E1F700C0000081E00E94990A61
:10217000A7CF6AE377E09E012F5F3F4F7901C90146
:102180000E94322EE6968FADE6978F93E5968FAD3F
:10219000E5978F93FF92EF921F9280E38F937E01DA
:1021A00031E4E30EF11CFF92EF920E946B2EC5CF3B
:1021B000EF92FF921F93CF93DF93182FD92FC091E7
:1021C0001201C11106C080916F04C3E0843009F48C
:1021D000C2E08DEF8C0F823060F588E2E82EF12CA2
:1021E000E09165048E2F90E00196B7010E94232DA7
:1021F00090916604981305C086E990E00E94101043
:10220000EFCF9AE0E99FF0011124EB52FD4F91E0EE
:1022100090831383D48380936504C43061F4612F69
:102220007D2F84E0DF91CF911F91FF90EF900C9470
:10223000620CC230A1F3DF91CF911F91FF90EF901C
:102240000895CF92DF92EF92FF920F931F93CF9357
:10225000DF93EC0110911201111106C080916F04FF
:1022600013E0843009F412E08DEF810F823008F022
:102270005BC0E8800E942306F82E092F88E2C82E52
:10228000D12CE09165048E2F90E00196B6010E945A
:10229000232D90916604981305C086E990E00E9472
:1022A0001010EFCF6A815B814C813D812E819F812F
:1022B0007AE0E79FF0011124EB52FD4F1082F1828A
:1022C0000283E38264835583468337832087918723
:1022D00080936504143051F581E08093E9008FEF1D
:1022E0009091E800815095FD06C09AE69A95F1F725
:1022F00000C08111F5CF8091E80085FF17C050E044
:1023000040E068E070E0CE010E94B3048091E800F4
:102310008E778093E80088E0FE01A6EBB2E00190A2
:102320000D928A95E1F702C01230B1F2DF91CF91A0
:102330001F910F91FF90EF90DF90CF900895CF9372
:1023400084E090E00E941731C82F81E290E00E9463
:102350001731982F8C2FCF9108950F931F93CF9300
:10236000DF93C42FD0E0CC0FDD1F28E1629FC00DAA
:10237000D11D112430E6839FC00DD11D1124CE0143
:1023800086960E941731082F10E0102F0027CE01EB
:1023900087960E9417319801282BC901DF91CF91B0
:1023A0001F910F910895462F672F843030F47430B9
:1023B00020F44C3010F40C94AD1190E080E00895BE
:1023C000CF93DF930E94D311EC01803E910509F475
:1023D0005BC070F58133910509F49EC090F4893299
:1023E000910509F492C08A9709F49DC0C430D105C3
:1023F00050F591E080E0219709F090E0C92FD82FA7
:1024000022C089339105C9F182389105B1F1C59790
:1024100009F474C0CF3BD10508F08CC0C83AD1058F
:1024200008F00FC1C53AD10508F3A497D0640BC0DA
:10243000843E910509F447C050F4823E910599F11C
:10244000833E9105A9F1CE01DF91CF910895863E9B
:10245000910509F443C0873E910509F444C08115F4
:1024600022E5920708F09BC0811531E5930790F2B1
:10247000D82FCC27C16FD06AE6CF80918A028370B3
:1024800011F3C0EED0E0DFCF80918A0280FD0FC152
:1024900090918B0290FFD7CFC3EED0E084FFD3CFD3
:1024A000D0E0C0E0D0CF80918A0282FDF5CFCBCFC3
:1024B00080918A0282FDFEC090918B0290FDE1CF57
:1024C00084FFC1CFEDCF80918B0281FFBCCF809183
:1024D0008A02C7EED0E084FDE3CFB5CF80918A02B7
:1024E00083FDF7CFB0CF80918A0283FDE6C0909143
:1024F0008B0291FFE5CFC4EED0E0A5CF80918A0298
:1025000085FFA1CFC9E2D0E09ECF80918A0285FFEE
:102510009ACFC5E3D0E097CF80918A0286FF93CF10
:10252000CAE2D0E090CF80918A0286FF8CCFC1E3CF
:10253000D0E089CFC11540E5D407A0F4C11580E4EF
:10254000D80708F089C0C83ED10528F4C03ED1059F
:1025500008F4A6CF78CFCE019A9581159F4108F453
:1025600072CF9ECFCE01F4E096958795FA95E1F76C
:1025700083702C2F26952695237040E2249F90018E
:102580001124382B8C2F8370C1E0D0E002C0CC0F17
:10259000DD1F8A95E2F7C22BD32BDC6854CFC1151F
:1025A00086E5D80730F5C11595E5D90708F066C06E
:1025B000C11524E5D207C0F49C2F969596959E01EF
:1025C00023703327C115D34508F049C0C1E0D0E0DE
:1025D00002C0CC0FDD1F2A95E2F720E2929FC001D6
:1025E0001124C82BD92BD9CFDC2FCC27C46FD06AAC
:1025F0002ACFC1153AE5D30788F4C11549E5D407B8
:1026000008F047C0CE0198558F3F910511F008F0B2
:1026100047CFDC2FCC27C06FD06A15CFCE019056A4
:102620008115904208F03CCF8D2F8F710E94F209E6
:1026300090E0982F882788279F719C012C2BE90117
:1026400026C0C85AD0E0CC0FDD1FC15ADE4F09901A
:10265000D881C02DD464F7CEDF70D06AF4CEC1E04B
:10266000D0E002C0CC0FDD1F2A95E2F730E2939F45
:10267000C0011124C82BD92BDA68E5CE8C2F0E941B
:10268000F209C82FD0E0DC2FCC27CC27DF71D06235
:10269000DACE8C2F8F700E94F20934E0D695C79560
:1026A0003A95E1F7CF70DC2FC82FD069CCCEC9E3C3
:1026B000D0E0C9CEC2EED0E0C6CEC6EED0E0C3CEEA
:1026C000BF92CF92DF92EF92FF920F931F93CF931F
:1026D000DF938C01C0907304D0907404E090750473
:1026E000F090760480917D0290917E02A0917F020D
:1026F000B0918002C82AD92AEA2AFB2ACFE1D0E089
:10270000BC2ED701C6010C2E04C0B695A79597958F
:1027100087950A94D2F780FD0EC0219788F7B12CD7
:102720008B2DDF91CF911F910F91FF90EF90DF9054
:10273000CF90BF900895B8018C2F0E94E0110197AF
:1027400061F3EECFCF93DF93D82FC92F0E94601390
:102750006D2F7C2FDF91CF910C94E0110E94A2137A
:10276000282F892F8F70392F32953F70903C80F43D
:102770003A30B0F4343020F4323090F480E00895F0
:102780003630E1F781E0283E88F0213FB9F70EC0EE
:102790003C3011F03F3091F78695869586950895E7
:1027A00081E0203F39F018F4283E40F70895243F97
:1027B00029F7FCCF08956F927F928F929F92AF92EC
:1027C000BF92CF92DF92EF92FF920F931F93CF931E
:1027D000DF93D12CC12C3EE9A32EB12CE501C056CC
:1027E000D10936011BC0F70185909490692DC8016D
:1027F0000E942B31682DC80101960E942B3122E0E6
:10280000E20EF11C0E5F1F4FC017D10761F73CE0CD
:10281000630E711C6896CA15DB0559F0C301880F59
:10282000991F9C01225D3B4F79018E0108511109CE
:10283000DACFCE01805A9F4F5C0190E3C90ED11CC4
:10284000CE3BD14059F6DF91CF911F910F91FF9070
:10285000EF90DF90CF90BF90AF909F908F907F9040
:102860006F900895682F86E090E00C942B31809152
:102870009F0281FF11C08D7F80939F020E943214BE
:1028800080916F008E7F80936F0080919F0286956C
:10289000869586950C94E108089580919F0281FDAC
:1028A00007C0826080939F020E9432140C948B08B0
:1028B000089580919F0280FD13C0816080939F02E4
:1028C000813019F489E080939F0280919F020E94D9
:1028D000321480919F028695869586950C94E10826
:1028E0000895CF93DF93C6EAD1E060E0CE010E9465
:1028F0002B312196C11584E0D807B9F7DF91CF912C
:102900000895CF93C82F6FEF811161E282E290E0CA
:102910000E942B316FEFC11162E083E290E00E94D0
:102920002B316FEFC11165E184E290E0CF910C94FF
:102930002B318F929F92AF92BF92CF92DF92EF9204
:10294000FF920F931F93CF93DF93FC01B280A4807B
:1029500081E08483CEEDD1E00AEB11E08BE4982E88
:1029600088248394EE24EA94F12C2BE4C22ED12CFB
:10297000A1101DC01B821A8298014A816981888139
:102980000E94400925960D5F1F4F82E0CA31D8078B
:1029900079F7DF91CF911F910F91FF90EF90DF902A
:1029A000CF90BF90AF909F908F900C94BC0C2B81D8
:1029B000222309F121502B833C81892D821B311167
:1029C00001C0822F9091A502899FC0011124B601F8
:1029D0000E940F2D6A83211104C0332311F01C8241
:1029E0009B8222E02B1540F28091A3028883809184
:1029F000A4028983C1CF0E94F22D823091400CF055
:102A0000BBCF82E08B15C0F40E94F22DB7010E946B
:102A1000232D888322E02B1590F40E94F22D209123
:102A2000A4022695622F70E00E94232D280F29838F
:102A30001A829B828C82A0CF8091A302EACF209140
:102A4000A402F5CF90E080E00E9425319C0181E056
:102A50002C3E3E4F09F080E008956CEE7EEF90E052
:102A600080E00E94493160E082E090E00E942B31DA
:102A700060E083E090E00E942B3110927D02109282
:102A80007E0210927F021092800260E084E090E06B
:102A90000E942B3160E081E290E00E942B3160E0E7
:102AA00085E090E00E942B3160E086E090E00E949B
:102AB0002B316FEF87E090E00E942B3140E050E037
:102AC000BA0188E090E00E943D3160E08DE090E046
:102AD0000E942B3140E050E0BA0188E190E00E9472
:102AE0003D3160E087E190E00E942B3140E050E012
:102AF000BA018CE190E00E943D3160E080E290E01C
:102B00000E942B3140E050E0BA0188E190E00E9441
:102B10003D3140E050E0BA018FE090E00E943D314D
:102B200040E050E0BA0183E190E00C943D310E9416
:102B30002215811102C00E942D1586E090E00E94AE
:102B40001731982F80939F02817090FF04C0892FC6
:102B50008695869586950C94E1080F931F93CF93E5
:102B6000DF938B01D82FC92F0E943109A8016D2F47
:102B70007C2F88E090E0DF91CF911F910F910C9412
:102B80003D315F926F927F928F929F92AF92BF92F0
:102B9000CF92DF92EF92FF920F931F93CF93DF9329
:102BA00000D000D000D00F92CDB7DEB7182F762E10
:102BB000042F622E9091A20290FF2BC0E92FE69580
:102BC000AE2FB0E0AC5CBE4F8C918093A0029E7F94
:102BD0009230A9F59E012F5F3F4F812F0E9440093F
:102BE0004B8169818A810E94BA0E1093A302709270
:102BF000A4020093A502662061F08091A202909148
:102C0000A302A091A402B091A502BC01CD010E9433
:102C1000AD1527960FB6F894DEBF0FBECDBFDF917E
:102C2000CF911F910F91FF90EF90DF90CF90BF90C9
:102C3000AF909F908F907F906F905F9008958230BB
:102C400019F40091A502D1CF863019F41091A30296
:102C5000CCCF8930D9F3893141F6E9518E2F81707B
:102C6000582EE695F0E0E755FD4FA590B490BB24B3
:102C70008AEBE82E81E0F82ED12CC12C9CE0892E25
:102C8000912CC601B4010E940F2D812F511013C049
:102C9000860F9701402F672D0E944009CA0CDB1C4C
:102CA00093E0E90EF11CAEEDEA16A1E0FA0649F751
:102CB0000E94BC0C9ACF861BECCFE2EAF2E0438183
:102CC0002AE0421B08F440E021E0628181810C94FB
:102CD000C115E2EAF2E043812AE0420F08F44FEF27
:102CE00021E0628181810C94C115E2EAF2E0628107
:102CF0002AE0621B08F460E021E0438181810C94AA
:102D0000C115E2EAF2E062812AE0620F08F46FEF97
:102D100021E0438181810C94C115E2EAF2E08181D6
:102D200021E0438162818A500C94C115E2EAF2E00D
:102D3000818121E043816281865F0C94C115CF932C
:102D4000DF9300D000D0CDB7DEB78091A6028823F4
:102D500019F081508093A6028091A2029091A30263
:102D6000A091A402B091A50289839A83AB83BC830E
:102D7000BC01CD010F900F900F900F90DF91CF917C
:102D80000C94AD15CF93DF9300D000D0CDB7DEB754
:102D90008091A602833018F48F5F8093A602809101
:102DA000A2029091A302A091A402B091A5028983EE
:102DB0009A83AB83BC83BC01CD010F900F900F9021
:102DC0000F90DF91CF910C94AD15CF93DF9300D08E
:102DD00000D0CDB7DEB7E2EAF2E083E08083118273
:102DE0008FEF82838383148280819181A281B3815A
:102DF00089839A83AB83BC83BC01CD010F900F9074
:102E00000F900F90DF91CF910C94AD1510927B0233
:102E1000EEEAF1E086E0DF011D928A95E9F70C9475
:102E20005A071F93CF93DF93CDB7DEB7AA970FB69C
:102E3000F894DEBF0FBECDBF81EC92E0FC0101969D
:102E40002091F100208322E0893C9207B9F780911C
:102E5000C202893009F456C0C8F4823009F4B2C005
:102E6000833009F481C0813071F18091E80083FFE3
:102E700035C18091C1029091C2029A3008F02EC1F2
:102E8000E92FF0E0EC53FE4C0C94372D8A3009F416
:102E900088C08B3051F78091C102813231F7809127
:102EA000C5029091C602892B01F78091E800877FC7
:102EB0008093E8000E9403058091C30280931D0166
:102EC0000E940617D2CF8091C102813A71F680919B
:102ED000E800877F8093E8008091C5029091C60248
:102EE000892B61F468E086EB92E070E00E94B50502
:102EF0008091E8008B778093E800B7CF60E090E0A6
:102F000080E0F3CF8091C102813209F0AECF809191
:102F1000C5029091C6028D7F892B09F0A6CF8091C2
:102F2000E800877F8093E8008091E80082FF17C067
:102F30009091F3008091F200029729F48091F100C2
:102F40008B7F813021F48091F1008093B5028091D4
:102F5000E8008B778093E8000E94030586CF80917C
:102F60006F048111E1CF81CF8091C102813A09F0D4
:102F70007CCF8091C5029091C602892B09F075CF54
:102F80008091E800877F8093E8008091E80080FFCF
:102F9000FCCF80911D018093F1008091E8008E7735
:102FA000D9CF8091C102813209F05FCF8091E800D2
:102FB000877F8093E8000E9403058091C40280937C
:102FC000B40253CF8091C102813A09F04ECF809173
:102FD000E800877F8093E8008091E80080FFFCCFC5
:102FE0008091B402D8CF803899F0823809F076C049
:102FF0008091C5028F70873008F070C08093E9001F
:103000008091EB0085FB882780F91092E90006C0CB
:103010008091BE029091BF02911182609091E80070
:10302000977F9093E8008093F1001092F1008091D7
:10303000E8008E77B4C1882309F4A1C1823009F079
:103040004DC08091C3028111A5C18091C5028F70CE
:103050002FEF280F263008F041C08093E90020911F
:10306000EB0020FF97C1933031F48091EB00806238
:103070008093EB008FC19091EB0090619093EB00F7
:1030800021E030E001C0220F8A95EAF72093EA00A0
:103090001092EA008091EB008860EACF81111EC097
:1030A0001091C3021F778091E3008078812B809379
:1030B000E3008091E800877F8093E8000E94030589
:1030C0008091E80080FFFCCF8091E30080688093CE
:1030D000E30082E0111183E080936F048091E800A7
:1030E00083FF0AC08091E800877F8093E800809189
:1030F000EB0080628093EB00AA960FB6F894DEBFD7
:103100000FBECDBFDF91CF911F91089580588230BF
:1031100028F74091C3025091C4024C3D83E0580708
:10312000A1F583E08A838AE289834FB7F894DE01B0
:10313000139620E03EE051E2E32FF0E05093570079
:10314000E49120FF03C0E295EF703F5FEF708E2F98
:1031500090E0EA30C0F0C7968D939D932F5F2431A5
:1031600059F74FBF8091E800877F8093E8006AE2BB
:1031700070E0CE0101960E94B5058091E8008B7742
:103180008093E800ABCFC096E7CF8091C5029091C5
:10319000C602252F33272330310509F44AC078F5BC
:1031A0002130310509F479C08BE590E0E5EAF6E0DD
:1031B0002230310509F092CF2091E800277F20933B
:1031C000E8002091C7023091C8028217930708F4E3
:1031D0009C0140E02115310509F064C0411162C035
:1031E0008091E80082FDC9CF80916F04882329F285
:1031F000853019F28091E80083FFF2CFBECF2132F3
:10320000310509F43BC02232310509F067CF833024
:10321000910508F063CFFC01EE0FFF1FE056FE4F53
:103220000190F081E02D83569E4FDC018C9190E05F
:1032300011C0CA019927413089F082309105B1F05F
:10324000892B09F04BCFE6E3F7E0E4918E2F90E075
:10325000E6E3F7E0009709F441CFAECFE2E2F7E012
:10326000E4918E2F90E0E2E2F7E0F4CFE2E1F7E0C4
:10327000E4918E2F90E0E2E1F7E0ECCF833091050E
:1032800008F02CCF880F991FFC01EA55FE4F0190E2
:10329000F081E02D89E090E08FCF82E190E0E0E0E6
:1032A000F7E08ACF80916F04882309F466CF8530D8
:1032B00009F463CF8091E80083FD5FCF8091E8003F
:1032C00082FD8ECF8091E80080FF84CF9091F30043
:1032D0008091F2002115310519F08830910550F0E8
:1032E00041E0089709F040E08091E8008E778093F4
:1032F000E80070CF44914093F1003196215031099C
:103300000196E8CF803809F0E9CE8091E800877F08
:103310008093E8008091C0028093F10088CE8111F3
:10332000DDCE1091C302123008F0D8CE8091E800B3
:10333000877F8093E8001093C0020E940305112349
:1033400011F084E005C08091E30087FDFACF81E0B1
:1033500080936F0442E061EC81E00E94220542E22A
:1033600061EC84E00E94220542E261EC82E00E946E
:10337000220542E260EC83E00E942205AFCE8091FC
:10338000C302813009F0AACE81E0933009F080E0D9
:103390008093BF021092E9008091E800877F8093BC
:1033A000E8000E9403059ACE0F931F93CF93DF93FB
:1033B00000D000D0CDB7DEB741E050E060E070E073
:1033C0008A019B0104C0000F111F221F331F8A9521
:1033D000D2F709831A832B833C83C901B8010E9469
:1033E0001F080F900F900F900F90DF91CF911F91BA
:1033F0000F910C9406178B3258F48530C0F0EBEF28
:10340000E80FE632A0F4F0E0E253FE4C0C94372DC6
:10341000833450F48A3308F05BC0853309F454C018
:10342000883329F481E00895833409F44DC080E0A5
:1034300008950E942D15F6CF80919602807F80938B
:10344000960281E08093810208950E9406172FE77B
:103450008AE196E0215080409040E1F700C00000F2
:103460000E94980C90919602892F8E7F90FF816028
:103470008093960280FDD6CF817F80939602D2CF33
:1034800090919602892F8D7F91FF826080939602A2
:1034900081FFC8CF809196028160EFCF9091960214
:1034A000892F8B7F92FF84608093960282FDF2CFFA
:1034B000B9CF90919602892F877F93FF8860809380
:1034C000960283FDE7CFAECF80E00E94D419AACF49
:1034D0008953FBCF8D51F9CFCF93C82F882309F49F
:1034E00069C08238C1F40E94290881FD63C089E364
:1034F0000E949F060E9465062FEF30E782E0215070
:1035000030408040E1F700C0000089E30E9492064D
:10351000CF910C9465068338A1F40E94290880FDA0
:1035200049C083E50E949F060E9465069FEF20E741
:1035300032E0915020403040E1F700C0000083E5C8
:10354000E5CF8438A1F40E94290882FD33C087E4C6
:103550000E949F060E9465068FEF90E722E081504F
:1035600090402040E1F700C0000087E4CFCF8CEF0F
:103570008C0F813AB8F580918102882391F08130D7
:10358000D9F010928102EEEAF1E08191C81709F4B6
:1035900053C031E0E43BF307C1F78C2F0E949F0634
:1035A000B7CF80917B02823271F78C2F0E94FB197A
:1035B000882349F3CF91089580917B028232A9F349
:1035C000C93269F038F481E0CB3039F0C43139F0D8
:1035D00080E003C081E0C833D9F78170E9CF109251
:1035E0008102F6CF80E28C0F883068F4C77021E04A
:1035F00030E001C0220FCA95EAF780917B02822B4E
:1036000080937B0285CF8BE58C0F833038F42C2F91
:103610002452330BC901CF910C944407C85AC731C7
:1036200048F6EC2FF0E0EE0FFF1FE15AFE4F8081CD
:103630009181CF910C942E078C2F0E9492060E94AC
:103640006506ABCFCF93C82F0E946C1AC93349F4DB
:103650002FEF83EF91E0215080409040E1F700C0D0
:1036600000008C2FCF910C943508FF920F931F937D
:10367000CF93DF93C62FD42F122FFC018281882392
:10368000A9F0609372040E942306909371048093C2
:103690007004C77081E001C0880FCA95EAF7DF9116
:1036A000CF911F910F91FF900C9424078091720489
:1036B000681334C080917004909171040E941406C4
:1036C000883C910558F500E20D0FCD17A9F0C770A1
:1036D000FF24F3948F2D01C0880FCA95EAF70E944A
:1036E0001907083048F48D2F877001C0FF0C8A95A8
:1036F000EAF78F2D0E942407812F0E94221B083099
:10370000A0F4D77081E001C0880FDA95EAF7DF9165
:10371000CF911F910F91FF900C941907C77081E012
:1037200001C0880FCA95EAF7F2CFDF91CF911F91C0
:103730000F91FF900895CF93DF9300D000D0CDB7C5
:10374000DEB79091A20290FF49C09170811135C0FF
:1037500092609093A202662381F08091A2029091E0
:10376000A302A091A402B091A50289839A83AB839E
:10377000BC83BC01CD010E94AD156091A20266958B
:1037800070E04BE050E084E091E00E944A2E892BEB
:10379000D9F01092A10281E08093920220E0409142
:1037A000A5026091A4028091A3020F900F900F9048
:1037B0000F90DF91CF910C94C1158B3210F094656E
:1037C000C8CF880F982BC5CF81E08093A1020E94BB
:1037D00023069093900280938F02DDCF0F900F907D
:1037E0000F900F90DF91CF9108959091A20296953E
:1037F0008FEF890F913009F48AE261E00C949B1BF2
:103800008091A20286958F5F8B3208F081E061E0A3
:103810000C949B1B9091A20290FF07C0969598175D
:1038200020F0961710F40C94001C61E00C949B1B84
:103830005F926F927F928F929F92AF92BF92CF9240
:10384000DF92EF92FF920F931F93CF93DF93CDB749
:10385000DEB729970FB6F894DEBF0FBECDBF7C014F
:10386000DC0113968D919C911497892B39F08C91E2
:1038700011969C9189238F3F09F053C629960FB664
:10388000F894DEBF0FBECDBFDF91CF911F910F9196
:10389000FF90EF90DF90CF90BF90AF909F908F9070
:1038A0007F906F905F9008950E946013182F682F8B
:1038B00089819A810E94E10669817A81812F0E9423
:1038C000D3118C01F7019281992309F4D9C598018C
:1038D00022513F452031310508F0BEC58FEF93E0FE
:1038E0000E941731025136EA832E9924939488233B
:1038F00081F180917802877009F4C0CFD7011296C8
:103900008C91882309F4BACF82E029960FB6F894F7
:10391000DEBF0FBECDBFDF91CF911F910F91FF9002
:10392000EF90DF90CF90BF90AF909F908F907F905F
:103930006F905F900C94D6078114F4E09F06C9F253
:10394000C4010E941731811101C001501FEF811A7B
:10395000910A0111F1CF80911F0190912001A09156
:103960002101B091220189839A83AB83BC836624B1
:1039700063942AE0522E84010F5F1F4FC4010E94FE
:10398000173189831A82882309F4B3CF9FEF980FE8
:10399000933020F58A83698222E0820E911CC8014F
:1039A0000E9417318B83882309F4A3CF8E010F5F08
:1039B0001F4FD8012C912223F1F2213009F046C08B
:1039C00011969C91119712968C91913049F40E5F4B
:1039D0001F4F0E94221B0F5F1F4FEBCF4801E6CF06
:1039E000923029F40E5F1F4F0E946C1AF4CF93306F
:1039F00029F40E5F1F4F0E943508EDCF943019F067
:103A00000F5F1F4FE8CF0E5F1F4F30E020E0B8017F
:103A10006F5F7F4FF80141818053990B8A30910588
:103A200050F021503109B8F28FEC97E00197F1F78F
:103A300000C00000F6CF529EF001539EF00D1124FD
:103A40009C012E0F3F1F842F8B01E1CFE22FF0E06E
:103A5000E253FA4F7490822F86958695869590E072
:103A6000FC01E254FA4FA4902770B12C022E02C040
:103A7000B594A7940A94E2F7A1E0AA22BB24FC0122
:103A8000E255FA4FC490D12C02C0D594C7942A9520
:103A9000E2F7B1E0CB22DD24A114B10419F081EEEC
:103AA0000E946C1AC114D10419F086EE0E946C1A9F
:103AB000872D0E94221BCD2819F086EE0E94350822
:103AC000AB2809F488CF81EE96CF81E00E94EE0703
:103AD0000E9472070ECF81E00E94A107F9CF82E019
:103AE000F5CF82E0F9CF8FE10E94160980919F0205
:103AF0000E943214FECE80E0F7CF80919F02982F73
:103B0000987F8850911126C080919F028695869556
:103B100086950E94E108EDCE80919F02982F987FB4
:103B2000983F19F0885F80939F0280919F02816087
:103B30001BC080919F0280FF07C08E7F80939F02F1
:103B40000E94321480E0E5CF0E945914D2CE8091B9
:103B50009F02885F80939F02887F91E009F490E044
:103B600080919F0290FB80F980939F020E94321403
:103B7000CBCF80919F0281FF03C00E943714B9CE42
:103B80000E944D14B6CE073F5CE51507E1F0083FF3
:103B90006CE51607E1F027E245EE64EE063F7CE5B2
:103BA000170709F08FC4C7010E94351BA2CE26E279
:103BB00041EE61EEF8CF27E245EE65EEF4CF26E266
:103BC00041EE60EEF0CF26E241EE62EEECCF27E26E
:103BD00045EE66EEE8CF98012C5F3C452930310573
:103BE00008F47FC40631BCE51B0709F0B7C080911B
:103BF0007B028A7A91E009F490E09093210281118E
:103C0000A9C089E20E949F060E94650672CEF80153
:103C1000E350FC4580918A028160E331F10590F424
:103C2000EC50FE4C0C94372D0C5F1C4509301105EF
:103C300008F067C4095F1D4CF8010C94372D809182
:103C40008A02826080938A025CC480918A028460C6
:103C5000F9CF80918A028860F5CF80918B028160D4
:103C600080938B024EC480918B028260F9CF809149
:103C70008A028061E7CF80918A028062E3CF8091DF
:103C80008A028064DFCF0E94061780918A028068D2
:103C9000D9CF80918A028C60D5CF80918B028360CE
:103CA000DFCF80918A028E7FCDCF80918A028D7F77
:103CB000C9CF80918A028B7FC5CF80918A02877F8E
:103CC000C1CF80918B028E7FCBCF80918B028D7F75
:103CD000C7CF80918A028F7EB5CF80918A028F7D77
:103CE000B1CF80918A028F7BADCF0E940617809161
:103CF0008A028F77A7CF80918A02837FA3CF80919A
:103D00008B028C7FADCF80918A0282FB992790F93C
:103D100021E0922790FB82F990FB83F993CF809169
:103D20008B02982F909591708E7F892B90FB81F953
:103D300097CF0E94061790918A02892F97FB87F9E7
:103D4000805880CF61E08EE090E00E942B31D9C393
:103D500060E0F9CF85E356CF85E3FFC380917B0216
:103D60008272F801E35CFC45E431F10508F082C0A1
:103D7000E05FFD4C0C94372D8091A20280FF21C0A2
:103D80008E7F8093A2020091A2021091A302209143
:103D9000A4023091A5020E831F8328873987C901A9
:103DA000B8010E94AD151092A1021FE728E331E08F
:103DB000115020403040E1F700C000000E94BC0CD0
:103DC00098CD81608093A20261E086950E949B1B42
:103DD00090CD45EF5BE160E07CE10E942C0989CD4C
:103DE00040E05CE165EF7BE1F8CF4DE856E166E944
:103DF00076E1F3CF46E956E16DE876E1EECF45E7AF
:103E000056E161E876E1E9CF41E856E165E776E120
:103E1000E4CF4DE556E169E676E1DFCF49E656E1CC
:103E20006DE576E1DACF4FE956E162EC76E1D5CF88
:103E300042EC56E16FE976E1D0CF61E081E0C6CF98
:103E400065E082E00E940A1C54CD68E086E0FACF6B
:103E50006EE089E0F7CF64E18FE0F4CF67E185E1C0
:103E6000F1CF61E088E1B2CF62E289E1EBCF61E0BE
:103E700083E2ACCF992381F00E3D4CE5140709F4A1
:103E80008FC008F072C001156CE5160709F478C000
:103E90000D3D1C4509F481C0F701C080D1809923F4
:103EA00009F484C0C6010E946013182F682FC60150
:103EB0000E94E106B601812F0E94E0118C01982E2C
:103EC000D7011596CC901597C2949FE0C9221296FF
:103ED000DC90D11010927A0280917802877099F06C
:103EE000DD2089F0812F807F803421F080E2800FF7
:103EF000883048F082E00E94D6078091780287706F
:103F0000AA24A3948111A12CB12EB2948FE0B822DF
:103F1000B8E0BB1609F42CC1BB1508F484C0E3E07B
:103F2000EB1508F448C0812F807F1F70F1E0FB156E
:103F300008F08CC0803211F01295107F992009F49E
:103F4000BEC051E0951609F4DBC0DD2009F4E5C0E0
:103F5000CC2009F4DBC0D70115968C91159780FF12
:103F60008BC08F7015968C93D1C00F3D8CE51807D0
:103F7000D9F0003E1C4509F08FCF0E942D15B9CC19
:103F80000E940617BFE7EAE1F6E0B150E040F040DA
:103F9000E1F700C000000E94980C10921201A9CC19
:103FA00082E080931201A5CC83E0FBCFC6010E9482
:103FB000B806182F7FCF24E0B21609F4BFC0AB2D8E
:103FC000A850BB0B149710F40E942908AA2009F4EA
:103FD00055CC8091780280FD51CCF70112828595F5
:103FE000859585950E94EE07C7010E94181C809157
:103FF000780285958595859529960FB6F894DEBF4C
:104000000FBECDBFDF91CF911F910F91FF90EF9029
:10401000DF90CF90BF90AF909F908F907F906F90E8
:104020005F900C94A10739E0B31609F48FC186E0C4
:104030008B0D8F70823018F6802F42EF941295C14D
:10404000812F8F71DD2009F4D4C18CC1882311F038
:104050001295107F802FDD20C9F0112369F090E2C6
:10406000900F983010F001110BC080917B02182B3B
:1040700010937B020E946506802F0E946C1A9FCFCE
:1040800080917A02182B10937A02F4CF0E9435089F
:10409000112309F494CF1095005E083010F09110B0
:1040A00008C080917B02182310937B020E94650652
:1040B00086CF80917A02182310937A02F7CFDD2001
:1040C00091F090917C02812F892BC11003C00E9436
:1040D000240775CF61E0C612FACF981709F46FCFA5
:1040E00080937C026CCFC11006C00E945F06812FB6
:1040F0000E94190764CF71E0C71609F460CFF5CFAD
:10410000DD2031F085E08C1508F459CF812FDFCF09
:1041100094E09C1508F453CFEACFCC2041F3093347
:1041200049F4BFEFE3EFF1E0B150E040F040E1F7D8
:1041300000C00000802F0E94350841CF812F869556
:104140008695837061F0813009F039CFC801937092
:10415000D11002C090E080E00E942E0730CFC8014D
:104160009370D11002C090E080E00E94440727CFF6
:10417000812F837009F072C0D11021CF202F22959A
:1041800026952770220F220F402F4F7050E070E0CD
:1041900060E0022E04C0440F551F661F771F0A946B
:1041A000D2F780E090E0DC0104FF0FC08FE090E0E8
:1041B000A0E0B0E004C0880F991FAA1FBB1F2A957A
:1041C000D2F780959095A095B095E12FE695E6956C
:1041D000E370E23051F1E33009F100917D0210917A
:1041E0007E0220917F0230918002E13099F0842B91
:1041F000952BA62BB72BAC01BD0140235123622385
:1042000073234E835F8368877987CB01BA010E944D
:104210001F08D5CE402B512B622B732B8A019B019B
:10422000082B192B2A2B3B2B12C0842B952BA62B4A
:10423000B72B40917D0250917E0260917F02709178
:1042400080028C019D0104271527262737270E831E
:104250001F8328873987C901B801D9CF8695DD200A
:1042600011F0812F8170882309F4A9CE202F229587
:1042700026952770220F220F402F4F7050E070E0DC
:1042800060E0022E04C0440F551F661F771F0A947A
:10429000D2F780E090E0DC0104FF0FC08FE090E0F7
:1042A000A0E0B0E004C0880F991FAA1FBB1F2A9589
:1042B000D2F780959095A095B095E12FE695E6957B
:1042C000E370E23081F1E330F9F000917304109172
:1042D00074042091750430917604E13089F0842BC8
:1042E000952BA62BB72BAC01BD0140235123622394
:1042F00073234E835F8368877987CB01BA0110C02F
:10430000402B512B622B732B8A019B01082B192BFD
:104310002A2B3B2B0E831F8328873987C901B801BD
:104320000E9468074CCE842B952BA62BB72B40916F
:1043300073045091740460917504709176048C013B
:104340009D010427152726273727E4CF1F70DD207E
:1043500029F0812F0E94EE07802FB9CE802F0E9476
:104360001907812F0E94A1072ACE22EF291570F08C
:1043700030EF931609F141EF9416B1F1DD2009F405
:104380005BC0C11079CE812F8F7133C053EF95166A
:1043900099F164EF9612F2CFDD2009F442C01F714B
:1043A000812F0E94EE0758E0159FC0011124836001
:1043B00080937802812F1DC0DD2089F074E07C1588
:1043C00008F4FDCD1F7181E090E0A0E0B0E004C0F2
:1043D000880F991FAA1FBB1F1A95D2F7A8CF25E0F7
:1043E0002C1508F4ECCDEECF812F8F71DD2009F470
:1043F000B9CF0E94EE07E3CD60E070E0CB01DD2095
:1044000009F48ECF1F7181E090E0A0E0B0E0AC0134
:10441000BD0104C0440F551F661F771F1A95D2F7C0
:1044200068CF81E00E94D60761E06C1508F0C7CD27
:1044300082E00E94D607C3CDCC2059F0893309F021
:1044400079CE7FEF83EF91E0715080409040E1F7AB
:104450006FCE812F8F7186CF0031FFE51F0709F4E2
:1044600034CB01312FE5120709F439CBF801EC5BAD
:10447000FC45E730F10570F4EC5DFD4C0C94372DF4
:1044800000313FE5130709F426CB01314FE514074E
:1044900009F427CB053FECE51E0709F490CB08F0A3
:1044A00072CB093D2CE5120709F485CB28E241E0E7
:1044B0000A3D3CE5130709F480CB083D4CE51407A1
:1044C00009F475CB992309F43FC0109272040631A8
:1044D0008CE5180708F07FCB0230ACE51A0708F42A
:1044E0003DCC0E949F1190938B0280938A020631EB
:1044F000BCE51B0708F098CB0230ECE51E0708F07E
:1045000086CB60918A0210918B0284E090E00E9439
:104510002B31612F81E290E00E942B310E9406171F
:10452000E8C985E0F701DE01119601900D928A95A8
:10453000E1F7D70112962C9189819A812111B4C992
:104540000E94B806182FB8C906311C4509F0A4CC42
:1045500080912102811100CC89E20E94920654CB05
:104560001F93CF93DF9380912702807FA9F48091DE
:104570002402882389F080915902D0912802609109
:10458000220270912302A0912502B0912602C62F2B
:10459000C72316E0D81304C0DF91CF911F9108956F
:1045A00090E0109711F0CF3F19F401968770F2CF89
:1045B000189F9001199F300D1124F901E75DFD4FFF
:1045C00041814713F2CF40814613EFCF4281411121
:1045D000ECCF438154814A1B5B0B483C510528F7C3
:1045E000809127028F70806180932702F901E25D3C
:1045F000FD4F80818F708061808382E292E00E9413
:10460000181CDF91CF911F910C940F07AF92BF92AE
:10461000CF92DF92EF92FF920F931F93CF93DF938E
:10462000CDB7DEB72B970FB6F894DEBF0FBECDBF68
:104630008C0185E0F801DE01179601900D928A95B4
:10464000E1F7F80180819181E28022E2A22E22E04E
:10465000B22E60912502709126026115710509F450
:1046600021C13091220240912302242F23232F3F86
:1046700009F418C1C380D480F0902402F601E61B2F
:10468000F70BFF2009F4DFC020912702522F507F43
:10469000E83CF10508F0BAC0511177C0FE2C49136F
:1046A00021C038131FC0E1101DC02F70206120935E
:1046B0002702C5010E94181C80912702F8018583FA
:1046C0008F2D2B960FB6F894DEBF0FBECDBFDF91B6
:1046D000CF911F910F91FF90EF90DF90CF90BF90FF
:1046E000AF900895CD2829F0282F29232F3F09F0D6
:1046F000F7C020E0F22FF170DF2EE09159024091D7
:10470000280256E020FD1CC0EE20D1F28091270245
:10471000816080932702F12CD3CF2E2F30E05E9F53
:10472000F0011124E75DFD4F6181961306C06081A1
:10473000861303C06281E612E7CFF9013196E77074
:10474000E413EBCF8F8398878F8198850E94A21303
:10475000292F22952F70903260F0225F2F70223027
:1047600078F49F7051F0F8019581907F31F4D12C4D
:104770000AC09F7011F08823D1F3805E8830B8F3AF
:10478000C8010E94181CFD2C9BCF491312C038137E
:1047900010C0E1100EC0F8012583C8010E94181C4A
:1047A00086E0F801A2E2B2E001900D928A95E1F76D
:1047B00087CF8F8398878F8198850E94AE13882337
:1047C00009F1EE20F9F080912702803270F02091FB
:1047D0002202309123023A8329831B82DD82CC821C
:1047E0008E83CE0101960E94181C86E0F801A2E299
:1047F000B2E001900D928A95E1F70E94B022FF2469
:10480000F3945ECFC8010E94181CF9CF51110AC061
:1048100082E292E00E94181C86E0F50111928A95CE
:10482000E9F779CF4913C5CF3813C3CFE110C1CF12
:10483000F8012583C8010E94181C86E0F501119239
:104840008A95E9F73DCFE83CF105B8F7FE2CEE205C
:10485000C9F2491316C0381314C08091270280FD95
:104860009FCF982F907F09F49BCFF8018583903FCD
:1048700009F493CF982F907F905F8F70892B858359
:104880008CCF8F8398878F8198850E94AE1381117A
:10489000ACCF80912702816080932702C8010E94DB
:1048A000181C0ECFEE2009F4ADCF8F8398878F812F
:1048B00098850E94AE13F82E882309F4A3CF86E0D2
:1048C000F801A2E2B2E001900D928A95E1F78091A1
:1048D0002202909123020E94A2130E94B022F0CEE5
:1048E00021E02E2507CF1F93CF93DF93CDB7DEB7FF
:1048F00067970FB6F894DEBF0FBECDBF4B8B5C8BB6
:104900006D8B7E8B8F8B1A8A85E0FE017396DE019C
:104910001D9601900D928A95E1F786E0FE013D9685
:10492000DE01179601900D928A95E1F7CE01079668
:104930000E940623882389F016E080915902909105
:10494000280289134FC067960FB6F894DEBF0FBEDA
:10495000CDBFDF91CF911F91089586E0FE0137967C
:10496000DE01119601900D928A95E1F74A855B85EB
:104970004115510509F37F816885862F87238F3F75
:10498000D9F22091280230E0C90101968770992759
:10499000E0915902E817190671F40E940617109267
:1049A00028021092590286E0E2E2F2E0DF011D9255
:1049B0008A95E9F7C1CF79836A835D834C8396E05A
:1049C000929FD001939FB00D1124A75DBD4FFE01B2
:1049D000319601900D929A95E1F7809328020E94FA
:1049E0000F07AACF819FC0011124875D9D4F0E94B0
:1049F0000623882309F4A7CF8091590290E00196FD
:104A0000877099278093590298CF1092650410926D
:104A10006604E7E6F4E01482158208951F920F926F
:104A20000FB60F9211242F933F934F935F936F9381
:104A30007F938F939F93AF93BF93CF93DF93EF9326
:104A4000FF93D091E900DF708091EC00C82FC17016
:104A500080FDC0E81092E9008091F000877F80938C
:104A6000F00078940E9411171092E9008091F000F4
:104A700088608093F000CD2BCF70C093E900FF9148
:104A8000EF91DF91CF91BF91AF919F918F917F91E6
:104A90006F915F914F913F912F910F900FBE0F90AB
:104AA0001F9018951F920F920FB60F9211242F93FB
:104AB0003F934F935F936F937F938F939F93AF93A6
:104AC000BF93EF93FF938091E10082FF09C0809133
:104AD000E20082FF05C08091E1008B7F8093E100BE
:104AE0008091DA0080FF23C08091D80080FF1FC032
:104AF0008091DA008E7F8093DA008091D90019BC12
:104B000080FF9CC082E089BD09B400FEFDCF81E03A
:104B100080936F048091B302811109C00E946304E5
:104B20000E9454058091E20084608093E2008091AD
:104B3000E10080FF17C08091E20080FF13C08091E8
:104B4000E2008E7F8093E2008091E200806180939A
:104B5000E2008091D80080628093D80019BC85E083
:104B600080936F048091E10084FF2CC08091E2006B
:104B700084FF28C019BC82E089BD09B400FEFDCFC6
:104B80008091D8008F7D8093D8008091E1008F7E46
:104B90008093E1008091E2008F7E8093E20080911B
:104BA000E20081608093E2008091C002882309F4D2
:104BB0004AC084E080936F040E9406170E949715F4
:104BC0000E9429088091E10083FF27C08091E200C4
:104BD00083FF23C08091E100877F8093E10082E022
:104BE00080936F041092C0028091E1008E7F8093C9
:104BF000E1008091E2008E7F8093E2008091E200EC
:104C000080618093E20042E060E080E00E94220543
:104C10008091F00088608093F000FF91EF91BF9148
:104C2000AF919F918F917F916F915F914F913F9144
:104C30002F910F900FBE0F901F90189510926F0438
:104C40001092B30274CF8091E30087FD02C081E02F
:104C5000B1CF83E0AFCFCDB7DEB7C45BD1090FB61C
:104C6000F894DEBF0FBECDBF84B7877F84BF0FB679
:104C7000F894A895809160008861809360001092FC
:104C800060000FBE80E890E00FB6F894809361005A
:104C9000909361000FBE85B7806885BF85B7806837
:104CA00085BF0E9463040E9454058091E2008460E5
:104CB0008093E200789480916F048823A1F0109192
:104CC000E9001F709091EC00892F817090FD80E8C1
:104CD000182B1092E9008091E80083FD0E941117C3
:104CE0001F701093E90082E084BD93E095BD9DE7BD
:104CF00097BD80936E000DE811E079E9E72E71E031
:104D0000F72ED8018D918D010E94D909E016F10688
:104D1000C1F787E90E94D90986E60E94D90987E68A
:104D20000E94D90985E30E94D9091092830210924A
:104D300082021092A8021092A7021092850210928D
:104D400084021092AA021092A90210928702109275
:104D500086021092AC021092AB021092890210925D
:104D600088021092AE021092AD020E94490FEFE14C
:104D7000FEE43197F1F700C000000E94490F8091D6
:104D8000A70280FF0BC080E00E9481146FEF7FEFCD
:104D900090E080E00E9449310E94980C0E94221508
:104DA000811102C00E942D15279A2F988AE08093C6
:104DB000800089E1809381008FEF9FEF90938700BF
:104DC000809386000E94971580919F0281FD0E942A
:104DD0008B088091A20281608093A20261E0869597
:104DE0000E949B1B21E04FEF60E080E00E94C11514
:104DF0000E9459140E948B0882E290E00E941731B1
:104E0000813209F020C583E290E00E9417318230A0
:104E100009F019C584E290E00E941731853109F04C
:104E200012C50E942215811102C00E942D1582E038
:104E300090E00E941731809396020E949F119093F8
:104E40008B0280938A0283E090E00E941731282F22
:104E500030E050E040E0CF54DF4F288339834A836D
:104E60005B83C15BD040CA01B9010E941F080E9448
:104E7000971580918C02811133C00E9422158111F7
:104E800004C00E942D150E94E51688E090E00E9463
:104E90001F316093A2027093A3028093A4029093A7
:104EA000A5026E7F71F40E94E51688E090E00E94F2
:104EB0001F316093A2027093A3028093A402909387
:104EC000A5020E9431091092A1028091A20280FFE6
:104ED00004C060E086950E949B1B81E080938C0259
:104EE00083E191E090938E0280938D02AE014F5F3B
:104EF0005F4F6A0159E2852E912CA12CB12C64E6FA
:104F0000462E512C612C712C0E94490FE7EAF2E0E9
:104F1000A7E9B2E010E000E0602F819191912D911E
:104F20003D912817390709F405C12827392770E072
:104F3000EE24E394F12CA9014E215F21452B09F4C5
:104F4000F3C079836A839C012E213F2191E0232BBA
:104F500009F490E09B830E9423068160782F9D8353
:104F60008C8349815A816B818D810E947324000F4B
:104F7000111FF801E956FD4F80819181E826F9263D
:104F8000F182E0828091A102882309F441C08091DE
:104F9000A002E091A202E695E81BE0939102823024
:104FA00009F0DFC0F0E0E15AF94FE4910E2F10E074
:104FB00095E2E92E9FE0F92E80919202882389F0F4
:104FC000109292020E942306980120953095280F96
:104FD000391F3093900220938F0210929402109206
:104FE000930280918F02909190020E941406801784
:104FF000910770F0E0918F02F09190020E0F1F1F49
:105000001093900200938F028FE892E0F7010995C8
:105010000E94290890919502891721F00E94290881
:10502000809395028091CB02811107C18091CA02C1
:10503000811121C01092C9026E987698289A219AFF
:10504000229A23982B9880E58CBD549A5C9A5C98A0
:105050008FE19EE40197F1F700C000005C9A9FEF9A
:10506000A9E6B8E19150A040B040E1F700C00000CF
:1050700081E08093CA021092CB0233E6E32E36E041
:10508000F32E01E716E042E050E0B701CE018F5762
:105090009F4F0E94202E40E850E0B601CF57DF4FCF
:1050A00088819981C158D0400E94200C882379F0D2
:1050B000E2E0EE0EF11C0E151F0529F781E080934A
:1050C000CB020E9423069093D4028093D302809156
:1050D000CB028111B2C080916F04843009F014CFEB
:1050E00083E08093E9008091E80082FF0DCF8091FA
:1050F000E80090E085FF06C00E948204882309F43E
:1051000081C191E08091E8008B778093E80099233A
:1051100009F4FACEE981E150E33108F0FEC1F0E094
:10512000E55DFD4C0C94372D7F5FEE0CFF1C7C3051
:1051300009F001CF0F5F1F4F0430110509F0ECCECD
:105140008FEF89838A831B820E9423068160782FD8
:105150009D838C8349815A816B818D810E94732448
:1051600011CF863059F4F0E0E45AF94FE4910E2F54
:1051700010E089E3E82E8FE0F82E1ECF893061F42D
:10518000E695F0E0E75AF94FE4910E2F10E0BCEFFE
:10519000EB2EBCE0FB2E10CF8F3061F4E695F0E0F3
:1051A000EA5AF94FE4910E2F10E0A6E2EA2EADE0A4
:1051B000FA2E02CF853159F4F0E0ED5AF94FE4911F
:1051C0000E2F10E0FFE8EF2EFDE0FF2EF5CE08E2F7
:1051D00010E06DEDE62E6DE0F62E883109F4ECCE90
:1051E000833249F4E1E5F6E005911491EBECEE2E03
:1051F000EEE0FE2EE1CE04EF11E052E8E52E5EE097
:10520000F52E843209F4D8CE00ED17E04FE0E42EFD
:1052100046E0F42E853209F0CFCE8E2F63E00E9457
:10522000F52CE92FF0E0E25BF94FE4910E2F10E04E
:1052300079E9E72E74E1F72EBFCE81E00E94990A4A
:105240008AE090E00E9410108091D3029091D402E5
:105250000E941406893E9340D8F18091CC028111BE
:1052600017C040E350E0BE016F577F4F82E996E0E0
:105270000E94200C882349F040E350E0BE016F57A4
:105280007F4F8FE796E00E94200C81E08093CC0254
:105290000E9423069093D4028093D30240E350E00F
:1052A000BE016F577F4F81E796E00E94200C882354
:1052B00079F0CE018F579F4F0E94022E9C0191E002
:1052C000232B09F490E08091C90298139093C902AE
:1052D0008091CD029091CE020E94140681319742B6
:1052E00008F4F9CE90916B0480916C049813F3CE7E
:1052F0000E9423069093CE028093CD0285E880938E
:105300007A0080EA80937B0084E480937C00809123
:105310007A00806480937A0080917A0086FDFCCFC9
:10532000A09178009091790080917A008F77809396
:105330007A00B92FAD010B2E000C660B770B4E35A2
:1053400033E053076105710570F14092CF0250922E
:10535000D0026092D1027092D2028091D2028F93D9
:105360008091D1028F938091D0028F938091CF0250
:105370008F9383E291E09F938F931F9280E38F93AB
:10538000DF92CF920E946B2E26E930E050E040E0A1
:1053900070E060E0C6010E94330B0FB6F894DEBFE8
:1053A0000FBECDBF98CE443353406105710548F41C
:1053B0001092CF021092D0021092D1021092D2021B
:1053C000CCCF23E630E00E944C2D9B01AC012C5148
:1053D0003D4341405109CF54DF4F288339834A83ED
:1053E0005B83C15BD040CA01B901A50194010E9451
:1053F00091312093CF023093D0024093D102509349
:10540000D202ABCF00E210E0CE0101967C01809188
:10541000E80085FD0AC08091E8008B778093E80062
:105420000E948204882399F36CCE8091F100D70109
:105430008D937D010150110951F763CE1A8289E0E5
:105440008B834FC08A81823009F40AC2833029F1EC
:10545000813009F062C08FB7F8942091AF0230918B
:10546000B0024091B1025091B202CF54DF4F288375
:1054700039834A835B83C15BD0408FBFCF54DF4FFA
:10548000688179818A819B81C15BD0400E943D2DDA
:105490006B837C838D839E8324C08091A70290912F
:1054A000A8029827892798279C838B838091A9023B
:1054B0009091AA029827892798279E838D838091AF
:1054C000AB029091AC0298278927982798878F8301
:1054D0008091AD029091AE029827892798279A87EC
:1054E0008987C6010E94DD040FCD8A818230A9F42C
:1054F0008B819C81AD81BE81CF54DF4F888399839E
:10550000AA83BB83C15BD040BC01CD010E943D2D6D
:1055100085E290E00E942B31E4CF8FEF8983E1CFC9
:105520004C816B818A810E94AD1198278927982729
:105530009E838D83D6CFED80FE80FE24EF24FE2453
:105540008A810B8198E1099F80011124A0E68A9F3E
:10555000000D111D11248C8190E0880F991F080FF8
:10556000191F6F2DC80186960E942B316E2DC80120
:105570008796D0CF0E94DB13B4CF8A81893031F176
:105580008A3089F18A81823809F450C0A8F58038C0
:10559000E1F1813809F0A5CF60E08B810E949B1B6F
:1055A0009B818091A202911139C08E7F8093A202CB
:1055B0001092A102EFE7F8E321E0E150F040204033
:1055C000E1F700C000000E94BC0C8BCF8B81BFE1D3
:1055D0008B9FC00111246FEF70E00E940F2D862F6A
:1055E0000E941609CFCF8B81811103C00E9437140E
:1055F000C9CF0E944D14C6CF833809F072CF20E086
:105600004091A5026C818B8106C020E04B816091A6
:10561000A4028091A3020E94C11563CF8160809390
:10562000A20260E086950E949B1B5BCF8B818093DA
:10563000A60257CF8A81893059F08A30C1F081386B
:1056400039F1D0F4803809F04CCF8091A502F8CE22
:1056500080919F028695869586953FEF839FC00136
:1056600011246FE170E00E940F2D6B833ACF80917F
:105670009F0286958170E4CE823891F0833809F0DC
:1056800030CF8091A3028B838091A4028C8329CF99
:105690008091A20280FF02C08695D2CE80E0D0CE5B
:1056A0008091A602CDCE80919F020E9432148091FB
:1056B000A2029091A302A091A402B091A502CF549E
:1056C000DF4F88839983AA83BB83C15BD040BC0131
:1056D000CD010E94AD1505CF80E18A8302CF82E023
:1056E0008A838AE5ADCEEA80FB80FE24EF24FE2487
:1056F0008E010F5F1F4F2C80200E312E311CC701F1
:105700008A559E4F0215130509F4EBCEAAE5EA1659
:10571000A2E0FA0650F40E941731F8018483BFEF2B
:10572000EB1AFB0A0F5F1F4FEACFD80114961C92A9
:10573000F6CFEA80FB80FE24EF24FE24FE013196A2
:105740001F010C810E0D1F2D111DC7018A559E4F83
:10575000E016F10609F4C5CEFAE5EF16F2E0FF0611
:1057600028F4D10114966C910E942B31BFEF2B1AB3
:105770003B0AEFEFEE1AFE0AE8CF0E947114B1CE99
:1057800084E0ABCFEA80FB80FE24EF24FE248E0170
:105790000F5F1F4F2C80200E312E311CC7018696C3
:1057A0000215130509F49DCEF0E8EF16F1E0FF06AF
:1057B00058F40E941731D80114968C93FFEFEF1A1A
:1057C000FF0A0F5F1F4FEACFF8011482F7CFEA807C
:1057D000FB80FE24EF24FE249E012F5F3F4F190122
:1057E0000C810E0D1F2D111DC70186960E151F056C
:1057F00009F477CE30E8E31631E0F30628F4D1015E
:1058000014966C910E942B31BFEF2B1A3B0AEFEFDD
:10581000EE1AFE0AE9CF80E00E9481146FEF7FEF5D
:1058200090E080E00E9449315CCECE0101960E945A
:10583000DD04FFEF20E732E0F15020403040E1F797
:1058400000C00000A9CA60E085E290E00E942B3110
:105850000E94DB130E94711481E00E948114E1CA4E
:1058600085E290E00E9417311B821C821D828E838C
:1058700038CE78941F921FB61F9211248F939F9356
:10588000AF93BF938091AF029091B002A091B1020B
:10589000B091B2020196A11DB11D8093AF02909309
:1058A000B002A093B102B093B202BF91AF919F91A9
:1058B0008F911F901FBE1F9018951F921FB61F92A9
:1058C00011248F939F93AF93BF938091AF029091D8
:1058D000B002A091B102B091B2024196A11DB11DDA
:1058E0008093AF029093B002A093B102B093B20242
:1058F000BF91AF919F918F911F901FBE1F901895E0
:105900001F920F920FB60F9211242F933F934F9334
:105910005F936F937F938F939F93AF93BF93EF9317
:10592000FF9380911B0290911C02019668EB75E039
:105930000E940F2D90931C0280931B026BE070E07D
:105940000E940F2D6F7780911A02823041F46034EB
:1059500051F480916F008E7F80936F0004C081307E
:1059600011F46F37B1F3E62FF0E0E255FC4FE4910C
:1059700021E031E0E29FC001E39F900D11246FE12F
:1059800070E00E940F2D80919F02869586958695E6
:10599000282F269FC001279F900D11240E94970851
:1059A00090938D0080938C00FF91EF91BF91AF9108
:1059B0009F918F917F916F915F914F913F912F9127
:1059C0000F900FBE0F901F901895DB018F939F9340
:1059D0000E947E31BF91AF91A29F800D911DA39F28
:1059E000900DB29F900D11240895991B79E004C089
:1059F000991F961708F0961B881F7A95C9F780950E
:105A0000089587FB082E062687FD819567FD619521
:105A10000E94F52C0EF4919507FC81950895AA1B20
:105A2000BB1B51E107C0AA1FBB1FA617B70710F089
:105A3000A61BB70B881F991F5A95A9F780959095BB
:105A4000BC01CD01089597FB072E16F4009407D0F2
:105A500077FD09D00E940F2D07FC05D03EF49095EC
:105A600081959F4F0895709561957F4F0895EE0F32
:105A7000FF1F0590F491E02D099469279627692767
:105A800078278727782708950E94B331332312F4AB
:105A90008A1B9B0B0C944E2D0E94B331B7FF0895C7
:105AA000821B930B08952F923F924F925F926F92B9
:105AB0007F928F929F92AF92BF92CF92DF92EF929E
:105AC000FF920F931F93CF93DF93CDB7DEB7CA1B1F
:105AD000DB0B0FB6F894DEBF0FBECDBF09942A884A
