:100000000C9428030C947A030C947A030C947A03CE
:100010000C947A030C947A030C947A030C947A036C
:100020000C947A030C947A030C94A9220C94652204
:100030000C943E270C947A030C947A030C947A0364
:100040000C947A030C947A030C947A030C947A033C
:100050000C9461270C941A270C947A030C947A035D
:100060000C947A030C947A030C947A030C947A031C
:100070000C947A030C947A030C947A030C947A030C
:100080000C947A030C947A030C947A030C947A03FC
:100090000C947A030C947A030C947A030C947A03EC
:1000A0000C947A030C947A030C947A0341545A000A
:1000B00041542B424C4542415454454E3D31004140
:1000C000542B424C45504F5745524C4556454C3D9C
:1000D000340041542B424C45484944454E3D310083
:1000E00041542B4741504445564E414D453D616C6E
:1000F000697834300041542B474150494E544552A1
:1001000056414C533D31302C33302C2C004154455A
:100110003D30000001010101010101010102020263
:1001200002020202020203030303030303030404A3
:10013000040404040405050505050606060606076D
:100140000707070708080808090909090A0A0A0B26
:100150000B0B0C0C0C0D0D0D0E0E0E0F0F0F1010C7
:10016000111111121213131414151516161717184E
:100170001819191A1A1B1B1C1D1D1E1E1F202021B9
:100180002222232424252626272829292A2B2C2D00
:100190002D2E2F30313232333435363738393A3B21
:1001A0003C3D3E3F404142434445464748494A4C16
:1001B0004D4E4F50515354555658595A5B5D5E5FE2
:1001C000616264656668696B6C6D6F707273757778
:1001D000787A7B7D7E8082838587888A8C8E8F91DA
:1001E000939596989A9C9EA0A2A3A5A7A9ABADAF04
:1001F000B1B3B5B7BABCBEC0C2C4C6C9CBCDCFD1EE
:10020000D4D6D8DBDDDFE2E4E7E9EBEEF0F3F5F896
:10021000FAFDFFFFAA7F55402223252628292A2CF4
:100220002D2F3032333536383A3B3D3E4042434540
:1002300047494A4C4E5051535557595A5C5E60627B
:10024000646668696B6D6F71737577797B7D7F818B
:10025000838587898A8C8E90929496989A9C9E9F8B
:10026000A1A3A5A7A8AAACAEAFB1B3B4B6B8B9BBA9
:10027000BCBEBFC1C2C3C5C6C7C9CACBCCCDCED018
:10028000D1D2D2D3D4D5D6D7D7D8D9D9DADADBDB05
:10029000DBDCDCDCDCDCDDDDDDDDDCDCDCDCDCDB9C
:1002A000DBDBDADAD9D9D8D7D7D6D5D4D3D2D2D1E5
:1002B000D0CECDCCCBCAC9C7C6C5C3C2C1BFBEBCD8
:1002C000BBB9B8B6B4B3B1AFAEACAAA8A7A5A3A149
:1002D0009F9E9C9A98969492908E8C8A898785830B
:1002E000817F7D7B79777573716F6D6B69686664EB
:1002F00062605E5C5A5957555351504E4C4A4947BB
:10030000454342403E3D3B3A3836353332302F2D5F
:100310002C2A2928262523220000000000000000A6
:1003200000000001010203040506080A0C0F111465
:10033000181C2024292E33393F464C535B626A71C6
:1003400079818A929AA2AAB2B9C1C8CFD5DCE1E775
:10035000EBF0F4F7FAFCFDFEFFFEFDFCFAF7F4F01B
:10036000EBE7E1DCD5CFC8C1B9B2AAA29A928A81E3
:1003700079716A625B534C463F39332E2924201C25
:100380001814110F0C0A08060504030201010000ED
:1003900000000000000000002B0014001A000800FC
:1003A000150017001C0018000C0012001300350087
:1003B000290004001600070009000A000B000D00C8
:1003C0000E000F0033003400E1001D001B0006008A
:1003D0001900050028001100100036003700380011
:1003E000E000E6000000E30000002A412C4200008B
:1003F000E70000002F00300035021E021F0220021D
:1004000021022202230224022502260227023102AF
:100410004C003A003B003C003D003E0050005100C3
:1004200052004F0033003400E1003F004000410023
:10043000420043002800AB00AA00A900AE0038002B
:10044000E000E6000000E30000002A412C4200002A
:10045000E70000002D022E0235021E001F002000C2
:10046000210022002300240025002600270031005F
:100470004C003A003B003C003D003E005000510063
:1004800052004F0033003400E1003F0040004100C3
:10049000420043002800AB004E004B004A004D00D4
:1004A000E000E6000000E30000002A412C420000CA
:1004B000E70000002D002E0032190A00047F3F1FC4
:1004C000643214643214783C1E1E140A050D01F5C2
:1004D00000E000D200BF00B000AC0041542B474107
:1004E00050474554434F4E4E0041542B4556454EC0
:1004F00054454E41424C453D3078320041542B45E5
:1005000056454E54454E41424C453D3078310005EC
:10051000010980A101850319012AB700150126B739
:1005200000950175108100C0050C0901A101850429
:1005300019012AA002150126A0029501751081005B
:10054000C005010906A101050719E029E7150025E5
:10055000019508750181029501750881010507194A
:100560000029FF150026FF00950675088100050883
:1005700019012905950575019102950175039101F0
:10058000C009023B00020100A0FA090400000103B7
:10059000010100092111010001224000070581032A
:1005A00008000A09040100010300000009211101EB
:1005B00000012232000705820320000A1201100107
:1005C00000000008435134410100010200010E0304
:1005D00061006C00690078003400300000001203F4
:1005E00071007500610064006300750062006500C1
:1005F00000000403090441542B424C45484944433C
:100600004F4E54524F4C4B45593D3078253034783D
:100610000041542B424C454B4559424F41524443B3
:100620004F44453D253032782D30302D25303278FD
:100630002D253032782D253032782D253032782D09
:10064000253032782D25303278004F4B00005C2267
:1006500011241FBECFEFDAE0DEBFCDBF04B603FE2C
:1006600027C08091650490916604A0916704B091C1
:1006700068048730904BA740B04BD1F410926504CA
:1006800010926604109267041092680414BE84B736
:10069000877F84BF0FB6F894A89580916000886129
:1006A00080936000109260000FBEE0E0F8E30995CF
:1006B00024E0AAE9B1E001C01D92A536B207E1F736
:1006C00011E0A0E0B1E0EAE0FAE502C005900D9289
:1006D000AA39B107D9F713E0C8E2D3E004C02197E3
:1006E000FE010E941828C732D107C9F70E94822351
:1006F0000C949C2C0C94000080911E018F3FA9F457
:100700001092610481E0809360048CB58CBD80916F
:100710006004882319F08DB581608DBD84E38093DA
:100720001E01249A2C9881E0089580E0089580911C
:100730001E018F3F29F1E82FE295EF70F0E041A113
:100740008F7021E030E0B90102C0660F771F8A95F3
:10075000E2F7CB01942F982B91A392A1892B82A32E
:100760008FEF80931E018DB58E7F8DBD9CB58091DE
:100770006104809589238CBD1092610410926004FD
:100780000895E8EDF0E080818E7F80831092E20092
:100790001092DA001092E100A0EEB0E08C9181603E
:1007A0008C9380818F77808319BCA7EDB0E08C910A
:1007B0008E7F8C9380818F7E80831092A502089516
:1007C0002091E4003091E50095E6A9012091EC002C
:1007D000822F817020FF06C08091E80080FF06C054
:1007E00080E008952091E80022FD1AC08091B202B5
:1007F000882389F0853089F08091EB0085FD0FC05A
:100800002091E4003091E50042175307F9F291502E
:10081000E1F684E0089582E0089583E0089581E0A0
:100820000895EF92FF920F931F93CF937C018B015A
:100830000E94E003C82F811117C08091E80085FD58
:100840000BC08091E8008E778093E8000E94E0035F
:10085000882399F3C82F08C0F70181917F01809305
:10086000F1000150110949F78C2FCF911F910F9181
:10087000FF90EF9008958091B40287FF13C080919C
:10088000E80082FF06C08091E8008B778093E80043
:1008900004C08091B2028111F2CF08958091B2021A
:1008A0008823D9F38091E80080FFF8CF8091E80099
:1008B0008E77ECCF982F9093E900242F762F50E07D
:1008C000891731F07091EC002091ED005091F0000B
:1008D00021FD07C09F5F973071F78093E90081E0A9
:1008E00008953091EB003E7F3093EB003091ED00A6
:1008F0003D7F3093ED003091EB0031603093EB00A1
:100900007093EC002093ED005093F0002091EE00E6
:1009100027FDE0CF80E00895CF92DF92EF92FF9223
:100920000F931F93CF93DF93C8EDD0E088818F7E24
:100930008883E7EDF0E080818160808384E082BF7E
:1009400081E08093A50288818E7F888302EE10E08B
:10095000F80110821092DA0081EEC82ED12CF60137
:10096000108288818F7788838881806888838881D6
:100970008F7D888319BC1092B2021092B30210923C
:10098000B1021092B00290EEE92EF12CF7018081B5
:100990008B7F808388818160888342E060E080E093
:1009A0000E945A04F60180818E7F8083F801808145
:1009B00081608083808188608083F70180818E7F61
:1009C0008083888180618883DF91CF911F910F910F
:1009D000FF90EF90DF90CF900895FC01CB01209124
:1009E000BA023091BB022617370790F0009729F41E
:1009F0002091E8002E772093E80040E0009751F422
:100A0000411108C08091E80082FF31C080E0089564
:100A1000C901F3CF2091B2022223A9F12530A9F117
:100A20002091E80023FD2DC02091E80022FDEACFAF
:100A30002091E80020FFE2CF3091F3002091F200F6
:100A4000009719F02830310558F041E02830310581
:100A500009F040E02091E8002E772093E800CECF07
:100A600041914093F10001972F5F3F4FE9CF809173
:100A7000B202882341F0853041F08091E80083FF85
:100A8000C1CF81E0089582E0089583E0089508953C
:100A900008958091A70208959C014FB7F894809122
:100AA0006F0290917002A0917102B09172024FBFDB
:100AB000821B930B08952FB7F89480916F02909149
:100AC0007002A0917102B09172022FBF0895CF936E
:100AD000DF931EBC0E945B05EC010DB407FE05C050
:100AE0008EB590E0DF91CF9108950E945B058C1B3D
:100AF0009D0B8436910588F38EEF9FEFF3CFCF9354
:100B0000DF938EBD0E945B05EC010DB407FE05C0AE
:100B10008EB590E0DF91CF9108950E945B058C1B0C
:100B20009D0B8436910588F38EEF9FEFF3CF809174
:100B30006A02811110926A0208958091690290916F
:100B40006802892B90916702892B80939A0190917A
:100B50006A02992391F0892B80939A0120E08CE915
:100B600091E0FC013081019631112F5F31E0823A32
:100B70009307B9F721110E949705E0918402F09143
:100B80008502309731F00280F381E02D8AE991E00F
:100B900009940895ECE9F1E09191891303C0DF0114
:100BA00011971C9291E0E23AF907B1F70895ACE988
:100BB000B1E0EFEF90E02D91821751F0EF3F19F483
:100BC000211101C0E92F9F5F9630A9F7EF3F09F48B
:100BD00008950E2E000CFF0BE656FE4F82830895FB
:100BE000E82F2CE0929FE00D11249E2F9770E69540
:100BF000E695E69585E0E89FF0011124E85BFD4F5E
:100C000050E040E080E0219130E0092E02C03695AE
:100C100027950A94E2F721703327042E01C0220F92
:100C20000A94EAF7822B4F5F5F4F4530510559F721
:100C30000895E82F2CE0929FE00D11248E2F8770ED
:100C400041E001C0440F8A95EAF7E695E695E695FE
:100C500085E0E89FF0011124E85BFD4F30E020E0E3
:100C600070E05191DF011197CB01022E02C09695E1
:100C700087950A94E2F781708195852784238527DB
:100C80008C932F5F3F4F2530310559F708958091A0
:100C9000470290911602981301C008958F5F8770E4
:100CA000FACF882341F0809590916902892380933F
:100CB00069020C949D050895882339F0909169028A
:100CC000892B809369020C949D05089520910D0253
:100CD00030910E022817390771F090930E0280931D
:100CE0000D02E0918402F0918502309721F000849A
:100CF000F185E02D0994089520910B0230910C02AA
:100D00002817390771F090930C0280930B02E09141
:100D10008402F0918502309721F00680F781E02D62
:100D20000994089510926802109267020E949D052E
:100D300090E080E00E947C0690E080E00C946606E3
:100D400060937D0270937E0280937F029093800275
:100D50000C9492060F931F93CF93DF9300D000D093
:100D6000CDB7DEB741E050E060E070E004C0440F72
:100D7000551F661F771F8A95D2F74095509560954D
:100D8000709580917D0290917E02A0917F02B0913A
:100D900080028A019B01082319232A233B2309830C
:100DA0001A832B833C83C901B8010F900F900F90D9
:100DB0000F90DF91CF911F910F910C94A00690910D
:100DC00066028095892380936602282F277071F42C
:100DD000282F082E000C330B9217130639F0859537
:100DE000859585950E94AA061092660208950F9334
:100DF0001F93CF93DF9300D000D0CDB7DEB741E093
:100E000050E060E070E004C0440F551F661F771F7C
:100E10008A95D2F780917D0290917E02A0917F0207
:100E2000B09180028A019B01082B192B2A2B3B2BA6
:100E300009831A832B833C83C901B8010F900F905B
:100E40000F900F90DF91CF911F910F910C94A006FE
:100E500060936B0270936C0280936D0290936E02AC
:100E60000C949206E0918402F0918502309721F073
:100E70000190F081E02D099480E00895882309F421
:100E800052C0823871F40E94320781FF4CC089E35E
:100E90000E94D7050E949D0589E30E94CA050C9413
:100EA0009D05833859F40E94320780FF3CC083E5DA
:100EB0000E94D7050E949D0583E5EFCF843859F441
:100EC0000E94320782FF2FC087E40E94D7050E944C
:100ED0009D0587E4E2CF9CEF980F913AF0F290E203
:100EE000980F983088F4877021E030E0A90102C0A3
:100EF000440F551F8A95E2F7CA01809590916902C7
:100F0000892380936902CBCF9BE5980F933020F41F
:100F100090E080E00C947C06885A873120F490E0C1
:100F200080E00C946606089510920A02109209025D
:100F300010920802EFE6F0E08081816080830895DE
:100F4000CF93DF93CDB7DEB728970FB6F894DEBF07
:100F50000FBECDBF8C3724E1920770F469E070E0DA
:100F60000E94F027CB0128960FB6F894DEBF0FBE83
:100F7000CDBFDF91CF910895B0E0A0E08A50974DAA
:100F8000AF4FBF4F2227382F492F5A2FCA01B9011F
:100F900025EF38E241E050E00E946B2C29833A8330
:100FA0004B835C83CA01B9010E94C6279B01AC0137
:100FB00069817A818B819C810E94C627BB27A92FDA
:100FC000982F872F009731E0A307B10561F68FEFC7
:100FD0009FEFC9CFCF93DF9300D000D0CDB7DEB75E
:100FE000803230F5811125C090918000977F9093D9
:100FF00080002F98282F30E0AFEFBFEF0E948D2C9C
:1010000069837A838B839C832FE130E040E050E05A
:101010000E946B2CC9010E94A00790938D008093C1
:101020008C000F900F900F900F90DF91CF9108954B
:101030008FE190918000986090938000DBCFFA015F
:1010400081110994FB01FDCF80919402982F9E7F1E
:1010500029F4817082608093940208958635E8F3C4
:1010600081708465F8CF8F929F92AF92BF92CF929A
:10107000DF92EF92FF920F931F93CF93DF93D82EBF
:10108000C62EE901E42FF0E0ED5EFE4F611113C0C2
:101090004491942FE42FE98348839A83DF91CF9181
:1010A0001F910F91FF90EF90DF90CF90BF90AF9086
:1010B0009F908F900895062F10E0E49186E0D89ECF
:1010C000700111242FEF30E0C701B9010E94F02711
:1010D0008D2D90E0880F991FF5E5F69FA001F79FF1
:1010E000500D1124841B950B982F990F890FA9017E
:1010F000401B510BE49FD001E59FB00D11244B2FF5
:10110000C89E60011124CD2CDD245901AC18BD0806
:10111000EA9D6001EB9DD00C11249D2D4901881A98
:101120009108809E5001819EB00C909EB00C1124BD
:10113000AB2CBB242A193B09E29F8001E39F100DD1
:10114000112463307105D1F08CEFE81683E0F806C6
:1011500070F461307105B1F062307105B9F08FEF54
:10116000E816F10408F097CF9B2F412F94CF6430FD
:10117000710579F066307105B9F38DCF4D2D9E2F35
:10118000EB2F89CF4E2FED2D9B2F85CF912F4E2FFB
:10119000F7CF9E2FE12F7FCFF894E82FE295EF70E5
:1011A000F0E041A18F7021E030E0B90102C0660F8C
:1011B000771F8A95E2F7CB01962F9095942391A300
:1011C00092A1892B82A3789408959091810292FF35
:1011D00006C0282F28712830F9F4877F846093FF98
:1011E00006C0282F28712831F1F4877E8461209170
:1011F000820220FF06C0382F38713830D9F4877F3B
:10120000816021FF06C0282F28712831D1F4877E04
:10121000816194FD877E0895282F24712430F9F68A
:101220008B7F8860DCCF282F2471243101F78B7EDF
:101230008861DDCF382F3171313019F78E7F8860AA
:10124000E0CF282F2171213121F78E7E8861E1CFF7
:10125000CF93DF93972F70E02CE0929F600D711D6C
:101260001124FB0130E3839FE00DF11D1124EE0FEB
:10127000FF1FE856FC4FC591D491CE01C03ED10569
:1012800009F47DC088F5C133D10509F4B9C090F4E3
:10129000C932D10509F4ADC0CA32D10509F4B7C0CD
:1012A000C130D10509F47EC02497C13AD10508F4B4
:1012B00079C071C0C933D10509F45AC0C238D1050B
:1012C00009F456C0C533D10509F48CC0C03CD10522
:1012D00008F024C1C83AD10508F0A0C0C53AD1052C
:1012E000F8F2849790645EC0C43ED10509F468C0EA
:1012F00068F5C23ED10509F451C0C33ED10509F4D9
:1013000054C0C11521E5D20708F0B2C0C11530E5BF
:10131000D30708F491C09E0174E0369527957A951D
:10132000E1F723708C2F86958695837030E2839F3A
:10133000C0011124922BC370E1E0F0E002C0EE0F77
:10134000FF1FCA95E2F78E2B9F2BBBC0C63ED1056F
:1013500009F441C0C73ED105A1F62091810223FDC9
:101360002AC13091820231FF28C084EE90E01AC079
:10137000209181022370B1F080EE90E013C02091A3
:10138000810220FD12C13091820230FF0BC083EE3A
:1013900090E024FF07C090E080E004C0209181022B
:1013A00022FDF5CFDF91CF9108952091810222FD9A
:1013B000FFC03091820230FDDFCF24FFF3CFEBCFAF
:1013C0002091820221FFEECF8091810284FDE3CF44
:1013D00087EE90E0E7CF2091810223FFE3CF24FD49
:1013E000DACFF6CF2091810225FFDCCF89E290E0B1
:1013F000D9CF2091810225FFD5CF85E390E0D2CFD0
:101400002091810226FFCECF8AE290E0CBCF2091BF
:10141000810226FFC7CF81E390E0C4CFCF3BD10547
:1014200009F4B9CFC85AD0E0CC0FDD1FC55ADE4F42
:10143000888199819464B6CFC11520E4D207A0F4C5
:10144000C11530E3D30708F078C0C11520E2D207F8
:1014500008F06CC0C83ED10508F4A4CFDA95C115D8
:10146000DF4108F49FCF97CFCE019F70906A9ACF4B
:10147000C11586E5D80760F5C11595E5D90708F0CF
:101480007DC0C11524E5D207F0F4C11533E5D307BB
:1014900008F060C0C11582E5D80708F456C09E0167
:1014A0002370332781E090E002C0880F991F2A95AE
:1014B000E2F7C695C69520E2C29FE00111248C2B6D
:1014C0009D2B9C686FCF9C2F8827846F906A6ACF72
:1014D000C1153AE5D30788F4C11589E5D80708F0A6
:1014E00057C0CE0198558F3F910511F008F053CFAA
:1014F0009C2F8827806F906A55CFCE01905681151A
:10150000904208F048CF8D2F8F710E94E50890E03F
:10151000982F882788279F718C2B38C0FE01EE0FEB
:10152000FF1FED56F040859194913CCFFE01FF7076
:10153000EE0FFF1FED5EFE4FF6CFCE019927D3FFD2
:1015400002C0986C2FCF906C2DCF9C2F8827816F75
:10155000906A28CF9E012370332781E090E002C07B
:10156000880F991F2A95E2F7C695C69520E2C29F7B
:10157000E00111248C2B9D2B9A6814CF8C2F0E9494
:10158000E50890E0982F882788279F7190620ACFFE
:101590008C2F8F700E94E50834E0D695C7953A9558
:1015A000E1F7CF709C2F9069FDCE89E390E0FACEF1
:1015B00082EE90E0F7CE86EE90E0F4CEBF92CF922E
:1015C000DF92EF92FF920F931F93CF93DF938C01E3
:1015D000C0907D02D0907E02E0907F02F090800269
:1015E00080916B0290916C02A0916D02B0916E029D
:1015F000C82AD92AEA2AFB2ACFE1D0E0BC2ED7019B
:10160000C6010C2E04C0B695A795979587950A94A8
:10161000D2F780FD0EC0219788F7B12C8B2DDF917A
:10162000CF911F910F91FF90EF90DF90CF90BF90DF
:101630000895B8018C2F0E942809019761F3EECF1D
:10164000CF93DF93D82FC92F0E94DE0A6D2F7C2FF6
:10165000DF91CF910C9428090E94200B282F892F0D
:101660008F70392F32953F70903C80F43A30B0F44F
:10167000343020F4323090F480E008953630E1F7D1
:1016800081E0283E88F0213FB9F70EC03C3011F0D0
:101690003F3091F7869586958695089581E0203FA5
:1016A00039F018F4283E40F70895243F29F7FCCF7D
:1016B0000895EF92FF920F931F93CF93DF93EC0166
:1016C0007B010E945B05182F092F66993CC082E0C0
:1016D0008A95F1F700C0812F902F0E944C058E153E
:1016E0009F0598F3C0E08C2FDF91CF911F910F9150
:1016F000FF90EF9008957E01FFEFEF1AFF0A8E0131
:101700000C5F1F4F0E94670597FD06C0F70181938C
:101710007F01E017F107B1F7CB81CF77C13110F02E
:10172000C1E028C0D0E0F12CE12CEC16FD06C0F79A
:101730000E94670597FDF4CFF80181938F01FFEFB9
:10174000EF1AFF0AF2CF0E947C030E94670588838C
:101750008E3F88F20E949703E2E4EA95F1F700C019
:101760000E947C03812F902F0E944C058E159F05AF
:1017700060F3C0E00E949703B6CF1F93CF93DF932F
:10178000CDB7DEB764970FB6F894DEBF0FBECDBFFE
:10179000182FE0915F0480915E04E81721F1669BA9
:1017A0002CC066E970E0CE0101960E94590B882397
:1017B000D1F08C8187FD0DC020915F0480915E0483
:1017C000281789F030E02F5F3F4F21703327209397
:1017D0005F04112341F090915F0480915E0498179B
:1017E00011F06699DECF64960FB6F894DEBF0FBE97
:1017F000CDBFDF91CF911F910895F0E0EE0FFF1F55
:10180000E65AFB4F808191810E944C058D329140B8
:1018100050F380915F0490915E04891721F390E06A
:1018200001968170992780935F04DDCFEF92FF923C
:101830000F931F93CF93DF93EC018B010E947C03E6
:101840000E945B057C0188810E947F058E3F910587
:10185000C9F40E94970382E48A95F1F700C00E94C0
:101860007C03C7010E944C058017910760F3C0E01C
:101870000E9497038C2FDF91CF911F910F91FF90C2
:10188000EF9008950B810F7710E00D5F1F4F2196A9
:10189000F12CE12C89910E947F0597FD06C08FEF06
:1018A000E81AF80AE016F106A8F3C1E0E1CFCF93F9
:1018B000DF9300D00F92CDB7DEB79091B202943093
:1018C00019F589836A837B8382E08093E9008FEF37
:1018D0009091E800815095FD06C09AE69A95F1F73F
:1018E00000C08111F5CF8091E80085FF0DC050E068
:1018F00040E063E070E0CE0101960E941104809107
:10190000E8008E778093E8000F900F900F90DF91A2
:10191000CF910895BC0183E00C94570C81E0809333
:10192000E00080E28093D8001092C9008FE097E237
:101930000197F1F700C0000087E090EBDC01809395
:10194000650490936604A0936704B093680488E1EB
:101950009CE00FB6F894A895809360000FBE90931A
:101960006000FFCF8091940280FD0AC0E8EAF1E0B8
:10197000118210821282339651E0EC3CF507C1F7D8
:10198000209A35B13E7F25B121604FB7F89488EA9F
:1019900091E0FC010196508168E025B957FF35B907
:1019A000550F000000C035B9000000C000C000C0E5
:1019B00000C000C000C000C000C000C000C000C027
:1019C00000C000C000C000C06A9539F751E08C3CEF
:1019D0009507F9F64FBF8FE292E00197F1F700C04B
:1019E00000000895EF92FF921F93CF93DF93EC01D5
:1019F00088EAE82E81E0F82E10E08C819701409172
:101A0000970260919602810F0E9433081B5E83E06B
:101A1000E80EF11C1C3F89F70E94B20C9A818C8160
:101A200090FF08C08F5F8C83DF91CF911F91FF9053
:101A3000EF9008958150F7CFCF92DF92EF92FF920F
:101A40000F931F93CF93DF93FC018281DD24DA94FF
:101A500080FD02C0DD24D39408EA11E0D0E0C0E0AC
:101A6000F80111821082128294E0E92EF12CC12C2F
:101A70008091A5018C0D8D30E4F16CE00E94E2278D
:101A8000892F082E000C990B8C179D0791F48091DB
:101A900097028E9DA0018F9D500D1124559547955D
:101AA00055954795980160919602809195020E9404
:101AB0003308CD0CF1E0EF1AF108D1F621960D5F55
:101AC0001F4FCC30D10561F60E94B20C8091A50168
:101AD00091E0D91214C0811110C08BE08093A50150
:101AE000DF91CF911F910F91FF90EF90DF90CF90FA
:101AF000089587FFC6CF845FC4CF8150EFCF90E0B9
:101B00000196BE010E940428E9CF0F931F93CF9343
:101B1000DF93C8EAD1E0FE0111821082128233966F
:101B200081E0EC3CF807C1F710E000E08091A601ED
:101B3000082E000C990B081719078CF180911001E1
:101B4000082E000C990B801791074CF19E014091D3
:101B5000970260919602809195020E9433080F5F70
:101B60001F4F23960C30110509F70E94B20C80918B
:101B70000F019091A601980F9093A601209110015A
:101B8000280F20931001121614F49B301CF081953D
:101B900080930F01DF91CF911F910F9108951982CA
:101BA00018821A82DCCFCF92DF92EF92FF920F93CE
:101BB0001F93CF93DF93CDB7DEB72E970FB6F89470
:101BC000DEBF0FBECDBF8D879E87AD85BE851496C7
:101BD0001C91212F30E0D9010E948D2C9B01AC017A
:101BE0000E94582C69837A838B839C83E0E2F0E027
:101BF000E11BF109A5E5B0E09B01AC010E94582C66
:101C000069877A878B879C879F01DF010E941E2846
:101C10009B01AC010E94632C6D837E838F83988728
:101C20009B01AC0189819A81AB81BC81280F391F4E
:101C30004A1F5B1F69857A858B859C850E946B2C6A
:101C4000F22E822F90E0A9E2A21708F442C0B3E07E
:101C50002B9F9001112435952795122F109598EA06
:101C6000C92E91E0D92E00E085E5E82EEF188E2DE3
:101C700001FD8F2D9601412F609196020E9433083D
:101C80000F5FF3E0CF0ED11C0C3089F70E94B20C2D
:101C9000AD85BE8514969C9181E0992319F0903210
:101CA00019F48FEF8093110180911101890FED8557
:101CB000FE8584832E960FB6F894DEBF0FBECDBF8F
:101CC000DF91CF911F910F91FF90EF90DF90CF9018
:101CD000089525E530E0F901E81BF90B9F01220F7B
:101CE000331F2E0F3F1F37FFB6CF2F5F3F4FB3CFAE
:101CF000EF92FF920F931F93CF93DF93EC0108EACB
:101D000011E0F12CE12C60919602809195029C816A
:101D100026E0E216F104FCF49923F9F098014091D1
:101D200097020E9433088FEFE81AF80A0D5F1F4FE1
:101D30002CE0E216F10439F70E94B20C8C8190E09D
:101D40000196817099278C83DF91CF911F910F911C
:101D5000FF90EF900895992309F3980140E0E1CFB7
:101D60009091940290FF0CC0E8EAF1E081836083D7
:101D70004283339691E0EC3CF907C1F70C94B20C26
:101D800008950F931F93CF93DF9300D00F92CDB799
:101D9000DEB78C018091A70181110AC09E012F5FDF
:101DA0003F4F4FEF6FEF0E9433088A818093A70166
:101DB000F8016481613049F06230F1F08091A7014F
:101DC00040E0662331F040E019C06091A70140E097
:101DD00080E00E94B00EF801848190E0019663E0FB
:101DE00070E00E94042884830F900F900F90DF9181
:101DF000CF911F910F9108954091A70180E060E07D
:101E0000E8CFCF93DF9300D00F92CDB7DEB790919C
:101E1000940290FF0AC09E012F5F3F4F0E9433083B
:101E20004B8169818A810E94B00E0F900F900F90B4
:101E3000DF91CF910895CF93DF93EC01EC81F0E037
:101E4000E85EFD4F4491E4E9F2E0628181810E9405
:101E5000010F8C818F5F8C83DF91CF910895CF9399
:101E6000DF93EC01E4E9F2E0438162818C810E941E
:101E7000010F8C818F5F8C83DF91CF9108956F92DA
:101E80007F929F92AF92BF92CF92DF92EF92FF929A
:101E90000F931F93CF93DF9399E8E92E91E0F92EEA
:101EA00010E000E0C0E0CC24C394D12C3DE7A32E89
:101EB00032E0B32ED7018D917D01F894E82FE295A1
:101EC000EF70F0E021A18F70A60102C0440F551FF2
:101ED0008A95E2F7CA01922F982B91A392A180953F
:101EE000892382A3789450E55A95F1F7A601002E34
:101EF00002C0440F551F0A94E2F7BA01609570952D
:101F0000E5E7F2E085E9682E81E0782ED0E02191C6
:101F10003191D3019D903D01892D82958F7090E084
:101F2000DC0190968C9190E0B92DBF7002C0959520
:101F30008795BA95E2F780FD52C0C901842B952B95
:101F40002817390739F09F0122503109D9018D93A3
:101F50009C93D1E0AE16BF06D1F6F7013197808190
:101F60000E94CC08CD2B0F5F1F4F0C30110509F0DC
:101F7000A1CFCC23C1F181E08093A4010E945B0535
:101F80009093A3018093A2018091A2019091A3015B
:101F90000E944C05069758F1809175029091760247
:101FA00090938702809386028091770290917802C5
:101FB00090938902809388028091790290917A02AD
:101FC00090938B0280938A0280917B0290917C0295
:101FD00090938D0280938C021092A40108C0C901D5
:101FE00086239723ADCF8091A4018111CDCF8C2F73
:101FF000DF91CF911F910F91FF90EF90DF90CF90E5
:10200000BF90AF909F907F906F9008955F926F9276
:102010007F928F929F92AF92BF92CF92DF92EF9278
:10202000FF920F931F93CF93DF93CDB7DEB7A8979F
:102030000FB6F894DEBF0FBECDBF8C017B015A01F5
:102040004901FC0101900020E9F7CF0101976C01E3
:10205000672B61F090915E0480915F04981721F0E6
:1020600081E00E94BD0BF6CFF701108290E1792E3E
:102070002AE0622E30E9532EA601401B510B41315C
:102080005105C4F07D8A1E8A6F8A588EF801DE01E0
:102090005996872D01900D928A95E1F7B401CE01F2
:1020A00045960E94160C811102C010E03BC0005FF3
:1020B0001F4FE2CF80E18D8B1E8A8AE08F8BCA0191
:1020C0008F779927888F5527B801CE0149960E94AE
:1020D0003129B401CE0145960E94160C182F882391
:1020E00021F3E114F104A9F50E945B05F82E092FF4
:1020F000E0915E04F0E09F012F5F3F4F2170332796
:1021000080915F04821304C080E00E94BD0BF0CF79
:10211000EE0FFF1FE65AFB4FF082018320935E040F
:102120000E945B05812FA8960FB6F894DEBF0FBE04
:10213000CDBFDF91CF911F910F91FF90EF90DF9076
:10214000CF90BF90AF909F908F907F906F905F9057
:102150000895AE0CBF1C87016CE271E0CE010196C0
:102160000E94590B882309F4A0CF8981803219F08D
:10217000F70110829ACF8C818F77CA2CC01A8C15E8
:1021800008F4C82ECC2051F0D12CA601BE016B5F03
:102190007F4FC8010E9431290C0D1D1D8C8187FDC8
:1021A000DBCFF801108201501109E016F10630F47E
:1021B000F80180818A30A9F38D3099F36AE070E0EC
:1021C000C7010E943A29009721F07C01FFEFEF1A26
:1021D000FF0A6AE476E0C7010E94032911E0892B17
:1021E00009F4A0CF62CFAF92BF92CF92DF92EF926D
:1021F000FF920F931F93CF93DF9300D0CDB7DEB73D
:102200008C017B016A012DB73EB73A8329830E9476
:10221000132901962DB73EB7281B390B0FB6F8943A
:102220003EBF0FBE2DBF8DB79EB701965C01B801B2
:102230000E940C2926E930E0A601B701C5010E94E1
:10224000061029813A810FB6F8943EBF0FBE2DBF0C
:102250000F900F90DF91CF911F910F91FF90EF9012
:10226000DF90CF90BF90AF9008959F92AF92BF92B2
:10227000CF92DF92EF92FF920F931F93CF93DF9352
:10228000CDB7DEB7CA57D1090FB6F894DEBF0FBE7F
:10229000CDBF8C0190915E0480915F04981335C08E
:1022A0008091590490915804891779F12AE0289F68
:1022B000C001112488539D4FFC01DE01AF58BF4F70
:1022C00001900D922A95E1F7FC01F080D580C6803F
:1022D000B780A08491840E945B059093C70280938D
:1022E000C602FF2029F1F1E0FF1609F467C08091D2
:1022F000590490915804891741F090E0019668E2E2
:1023000070E00E94042880935904C658DF4F0FB62E
:10231000F894DEBF0FBECDBFDF91CF911F910F911B
:10232000FF90EF90DF90CF90BF90AF909F90089577
:1023300061E176E09E012F5F3F4F7901C9010E9464
:102340000C291F929F921F92AF921F92BF921F92D1
:10235000CF921F92DF92E6968FADE6971F928F93F2
:10236000E5968FADE5971F928F93FF92EF921F92A4
:1023700080E38F937E0131E4E30EF11CFF92EF9234
:102380000E944529980150E040E070E060E0C701FC
:102390000E9406100FB6F894DEBF0FBECDBF8111AC
:1023A000A6CFFFE729EA33E0F15020403040E1F7C3
:1023B00000C0000081E00E94BD0BA7CF66EF75E072
:1023C0009E012F5F3F4F7901C9010E940C29E696BB
:1023D0008FADE6978F93E5968FADE5978F93FF923C
:1023E000EF921F9280E38F937E0131E4E30EF11CA4
:1023F000FF92EF920E944529C5CFEF92FF921F9363
:10240000CF93DF93182FD92FC0911201C11106C0AD
:102410008091B202C3E0843009F4C2E08DEF8C0FEA
:10242000823060F588E2E82EF12CE09158048E2F7E
:1024300090E00196B7010E940428909159049813E6
:1024400005C086E990E00E943511EFCF9AE0E99F40
:10245000F0011124E853FD4F91E090831383D4835E
:1024600080935804C43061F4612F7D2F84E0DF91A4
:10247000CF911F91FF90EF900C94570CC230A1F3B5
:10248000DF91CF911F91FF90EF900895CF92DF924F
:10249000EF92FF920F931F93CF93DF93EC01109174
:1024A0001201111106C08091B20213E0843009F4C8
:1024B00012E08DEF810F823008F05BC0E8800E944F
:1024C0005B05F82E092F88E2C82ED12CE091580424
:1024D0008E2F90E00196B6010E9404289091590435
:1024E000981305C086E990E00E943511EFCF6A810C
:1024F0005B814C813D812E819F817AE0E79FF001D5
:102500001124E853FD4F1082F1820283E382648339
:1025100055834683378320879187809358041430EE
:1025200051F581E08093E9008FEF9091E8008150B0
:1025300095FD06C09AE69A95F1F700C08111F5CF96
:102540008091E80085FF17C050E040E068E070E04F
:10255000CE010E9411048091E8008E778093E800FC
:1025600088E0FE01A8EAB2E001900D928A95E1F7B9
:1025700002C01230B1F2DF91CF911F910F91FF9005
:10258000EF90DF90CF9008958F929F92AF92BF927D
:10259000CF92DF92EF92FF920F931F93CF93DF932F
:1025A000FC01B280A48081E08483CCECD1E008EA15
:1025B00011E08BE4982E88248394EE24EA94F12C85
:1025C0002BE4C22ED12CA1101DC01B821A829801AF
:1025D0004A81698188810E94330825960D5F1F4FCB
:1025E00082E0C830D80779F7DF91CF911F910F9122
:1025F000FF90EF90DF90CF90BF90AF909F908F9023
:102600000C94B20C2B81222309F121502B833C81A5
:10261000892D821B311101C0822F90919702899FD1
:10262000C0011124B6010E94F0276A83211104C061
:10263000332311F01C829B8222E02B1540F2809103
:1026400095028883809196028983C1CF0E94CC280D
:10265000823091400CF0BBCF82E08B15C0F40E9419
:10266000CC28B7010E940428888322E02B1590F41F
:102670000E94CC28209196022695622F70E00E943D
:102680000428280F29831A829B828C82A0CF8091F4
:102690009502EACF20919602F5CFCF9384E090E0A7
:1026A0000E94F12BC82F81E290E00E94F12B982F1D
:1026B0008C2FCF910895682F86E090E00C94052C24
:1026C0008091740280FD13C0816080937402813018
:1026D00019F489E080937402809174020E945B1364
:1026E000809174028695869586950C94EA070895E4
:1026F00090E080E00E94FF2B9C0181E02C3E3E4F49
:1027000009F080E008956CEE7EEF90E080E00E949A
:10271000232C60E082E090E00E94052C60E083E0E2
:1027200090E00E94052C10926B0210926C021092A5
:102730006D0210926E0260E084E090E00E94052C31
:1027400060E081E290E00E94052C60E085E090E08E
:102750000E94052C60E086E090E00E94052C6FEF5F
:1027600087E090E00E94052C40E050E0BA0188E04C
:1027700090E00E94172C60E08DE090E00E94052C14
:1027800040E050E0BA0188E190E00E94172C60E040
:1027900087E190E00E94052C40E050E0BA018CE116
:1027A00090E00E94172C60E080E290E00E94052CEF
:1027B00040E050E0BA0188E190E00E94172C40E030
:1027C00050E0BA018FE090E00E94172C40E050E00A
:1027D000BA0183E190E00C94172C0E9478138111C8
:1027E00002C00E94831386E090E00E94F12B982F94
:1027F00080937402817090FF04C0892F869586951E
:1028000086950C94EA070F931F93CF93DF938B0168
:10281000D82FC92F0E942408A8016D2F7C2F88E093
:1028200090E0DF91CF911F910F910C94172C5F9244
:102830006F927F928F929F92AF92BF92CF92DF92D0
:10284000EF92FF920F931F93CF93DF9300D000D0AE
:1028500000D00F92CDB7DEB7182F762E042F622E40
:102860009091940290FF2BC0E92FE695AE2FB0E037
:10287000A05DBE4F8C91809399029E7F9230A9F506
:102880009E012F5F3F4F812F0E9433084B8169814A
:102890008A810E94B00E1093950270929602009366
:1028A0009702662061F08091940290919502A09128
:1028B0009602B0919702BC01CD010E9403142796A5
:1028C0000FB6F894DEBF0FBECDBFDF91CF911F9141
:1028D0000F91FF90EF90DF90CF90BF90AF909F90BF
:1028E0008F907F906F905F900895823019F40091DF
:1028F0009702D1CF863019F410919502CCCF893050
:10290000D9F3893141F6E9518E2F8170582EE69521
:10291000F0E0ED5EFD4FA590B490BB2488EAE82E70
:1029200081E0F82ED12CC12C9CE0892E912CC6017F
:10293000B4010E94F027812F511013C0860F970118
:10294000402F672D0E943308CA0CDB1C93E0E90E70
:10295000F11CACECEA16A1E0FA0649F70E94B20CB1
:102960009ACF861BECCFE4E9F2E043812AE0421BD8
:1029700008F440E021E0628181810C941714E4E9BD
:10298000F2E043812AE0420F08F44FEF21E0628138
:1029900081810C941714E4E9F2E062812AE0621B61
:1029A00008F460E021E0438181810C941714E4E98C
:1029B000F2E062812AE0620F08F46FEF21E04381C8
:1029C00081810C941714E4E9F2E0818121E04381D4
:1029D00062818A500C941714E4E9F2E0818121E0CD
:1029E00043816281865F0C941714CF93DF9300D0EC
:1029F00000D0CDB7DEB780919802882319F08150BE
:102A0000809398028091940290919502A0919602F1
:102A1000B091970289839A83AB83BC83BC01CD01BB
:102A20000F900F900F900F90DF91CF910C940314A3
:102A3000CF93DF9300D000D0CDB7DEB7809198025E
:102A4000833018F48F5F8093980280919402909164
:102A50009502A0919602B091970289839A83AB83E5
:102A6000BC83BC01CD010F900F900F900F90DF91B0
:102A7000CF910C940314CF93DF9300D000D0CDB747
:102A8000DEB7E4E9F2E083E0808311828FEF828396
:102A90008383148280819181A281B38189839A8307
:102AA000AB83BC83BC01CD010F900F900F900F90B2
:102AB000DF91CF910C94031410926902ECE9F1E0DC
:102AC00086E0DF011D928A95E9F70C9492061F9328
:102AD000CF93DF93CDB7DEB7AA970FB6F894DEBFDA
:102AE0000FBECDBF84EB92E0FC0101962091F10076
:102AF000208322E08C3B9207B9F78091B5028930A0
:102B000009F456C0C8F4823009F4B1C0833009F426
:102B100080C0813071F18091E80083FF79C280919B
:102B2000B4029091B5029A3008F072C2E92FF0E039
:102B3000E256F34D0C9418288A3009F487C08B3084
:102B400051F78091B402813231F78091B8029091AF
:102B5000B902892B01F78091E800877F8093E80014
:102B60000E943B048091B60280931D010E945C1577
:102B7000D2CF8091B402813A71F68091E800877FCC
:102B80008093E8008091B8029091B902892B61F49A
:102B900068E088EA92E070E00E94ED048091E8002D
:102BA0008B778093E800B7CF60E090E080E0F3CFD0
:102BB0008091B402813209F0AECF8091B802909139
:102BC000B902029708F0A7CF8091E800877F809331
:102BD000E8008091E80082FF17C09091F300809197
:102BE000F200029729F48091F1008B7F813021F46B
:102BF0008091F1008093A7028091E8008B77809309
:102C0000E8000E943B0487CF8091B2028111E1CF9E
:102C100082CF8091B402813A09F07DCF8091B802D1
:102C20009091B902892B09F076CF8091E800877FD7
:102C30008093E8008091E80080FFFCCF80911D0127
:102C40008093F1008091E8008E77D9CF8091B40213
:102C5000813209F060CF8091E800877F8093E8009F
:102C60000E943B048091B7028093A60254CF8091CA
:102C7000B402813A09F04FCF8091E800877F8093BA
:102C8000E8008091E80080FFFCCF8091A602D8CFB9
:102C9000803899F0823809F0BBC18091B8028F70FA
:102CA000873008F0B5C18093E9008091EB0085FB87
:102CB000882780F91092E90006C08091B0029091B7
:102CC000B102911182609091E800977F9093E800A3
:102CD0008093F1001092F1008091E8008E7794C10A
:102CE000882309F482C1823009F092C18091B60232
:102CF000811185C18091B8028F702FEF280F263087
:102D000008F086C18093E9002091EB0020FF77C195
:102D1000933031F48091EB0080628093EB006FC1BF
:102D20009091EB0090619093EB0021E030E001C0C6
:102D3000220F8A95EAF72093EA001092EA00809128
:102D4000EB008860EACF811163C11091B6021F7752
:102D50008091E3008078812B8093E3008091E800EC
:102D6000877F8093E8000E943B048091E80080FF09
:102D7000FCCF8091E30080688093E30082E0111132
:102D800083E08093B20244C18058823008F040C191
:102D90004091B6025091B7024C3D83E05807A1F52F
:102DA00083E08A838AE289834FB7F894DE01139621
:102DB00020E03EE051E2E32FF0E050935700E49131
:102DC00020FF03C0E295EF703F5FEF708E2F90E021
:102DD000EA30C0F0C7968D939D932F5F243159F749
:102DE0004FBF8091E800877F8093E8006AE270E03F
:102DF000CE0101960E94ED048091E8008B778093CC
:102E0000E80006C1C096E7CF2091B8023091B90220
:102E1000852F99278330910509F160F48130910560
:102E200009F472C0029709F0F3C08BE390E0E1E887
:102E3000F5E029C08132910509F45AC0829709F062
:102E4000E7C02115310509F469C02130310509F0C9
:102E5000DFC082E390E0EFE0F5E015C0CA019927FA
:102E60004130B1F18230910509F43AC0892B09F063
:102E7000CFC0E2EFF5E0E4918E2F90E0E2EFF5E0D5
:102E8000009709F4C5C02091E800277F2093E8004F
:102E90002091BA023091BB028217930708F49C017B
:102EA00040E02115310509F03EC041113CC0809140
:102EB000E80082FDA1CF8091B202882309F49CCF63
:102EC000853009F499CF8091E80083FFF0CF94CF4B
:102ED000EEEDF5E0E4918E2F90E0EEEDF5E0D0CF51
:102EE000EEECF5E0E4918E2F90E0EEECF5E0C8CF4B
:102EF0002115310571F02130310509F089C089E0D3
:102F000090E0ECEAF5E0BFCF82E190E0ECEBF5E099
:102F1000BACF89E090E0E3E9F5E0B5CF80E490E056
:102F2000E1E4F5E0B0CF8091B202882309F464CFE8
:102F3000853009F461CF8091E80083FD5DCF8091F9
:102F4000E80082FDB4CF8091E80080FFAACF909185
:102F5000F3008091F2002115310519F088309105B8
:102F600050F041E0089709F040E08091E8008E774A
:102F70008093E80096CF44914093F1003196215020
:102F800031090196E8CF803809F042C08091E8000D
:102F9000877F8093E8008091B3028093F1009CCEFC
:102FA000811136C01091B602123090F58091E80080
:102FB000877F8093E8001093B3020E943B041123A3
:102FC00011F084E005C08091E30087FDFACF81E035
:102FD0008093B20242E061EC81E00E945A0442E236
:102FE00061EC82E00E945A0413C08091B6028130E5
:102FF00079F481E0933009F080E08093B10210927F
:10300000E9008091E800877F8093E8000E943B04FC
:103010008091E80083FF0AC08091E800877F809359
:10302000E8008091EB0080628093EB00AA960FB6D7
:10303000F894DEBF0FBECDBFDF91CF911F910895F1
:103040000F931F93CF93DF9300D000D0CDB7DEB79F
:1030500041E050E060E070E08A019B0104C0000F95
:10306000111F221F331F8A95D2F709831A832B83DE
:103070003C83C901B8010E9428070F900F900F9060
:103080000F90DF91CF911F910F910C945C158B32B3
:1030900058F48530C0F0EBEFE80FE632A0F4F0E032
:1030A000E855F34D0C941828833450F48A3308F013
:1030B0005BC0853309F454C0883329F481E0089556
:1030C000833409F44DC080E008950E948313F6CF45
:1030D00080919C02807F80939C0281E080937302A8
:1030E00008950E945C152FE78AE196E02150804008
:1030F0009040E1F700C000000E948E0C90919C026D
:10310000892F8E7F90FF816080939C0280FDD6CFB7
:10311000817F80939C02D2CF90919C02892F8D7FDA
:1031200091FF826080939C0281FFC8CF80919C02B6
:103130008160EFCF90919C02892F8B7F92FF8460FA
:1031400080939C0282FDF2CFB9CF90919C02892F8F
:10315000877F93FF886080939C0283FDE7CFAECF8B
:1031600080E00E942018AACF8953FBCF8D51F9CF60
:10317000CF93C82F882309F469C08238C1F40E9414
:10318000320781FD63C089E30E94D7050E949D0537
:103190002FEF30E782E0215030408040E1F700C05F
:1031A000000089E30E94CA05CF910C949D058338E5
:1031B000A1F40E94320780FD49C083E50E94D70533
:1031C0000E949D059FEF20E732E091502040304063
:1031D000E1F700C0000083E5E5CF8438A1F40E9448
:1031E000320782FD33C087E40E94D7050E949D0507
:1031F0008FEF90E722E0815090402040E1F700C03F
:10320000000087E4CFCF8CEF8C0F813AB8F5809126
:103210007302882391F08130D9F010927302ECE9A7
:10322000F1E08191C81709F453C031E0E23AF307A5
:10323000C1F78C2F0E94D705B7CF809169028232E7
:1032400071F78C2F0E944718882349F3CF91089576
:10325000809169028232A9F3C93269F038F481E0C1
:10326000CB3039F0C43139F080E003C081E0C8339D
:10327000D9F78170E9CF10927302F6CF80E28C0FFC
:10328000883068F4C77021E030E001C0220FCA9591
:10329000EAF780916902822B8093690285CF8BE5E2
:1032A0008C0F833038F42C2F2452330BC901CF916B
:1032B0000C947C06C85AC73148F6EC2FF0E0EE0FAC
:1032C000FF1FE55AFE4F80819181CF910C946606D5
:1032D0008C2F0E94CA050E949D05ABCFFF920F93D1
:1032E0001F93CF93DF93C62FD42F122FFC0182811F
:1032F0008823A9F0609364040E945B0590936304A3
:1033000080936204C77081E001C0880FCA95EAF714
:10331000DF91CF911F910F91FF900C945C068091EB
:103320006404681337C080916204909163040E9422
:103330004C05883C910570F500E20D0FCD17A9F002
:10334000C770FF24F3948F2D01C0880FCA95EAF748
:103350000E945106083048F48D2F877001C0FF0C81
:103360008A95EAF78F2D0E945C06812F0E94B8187B
:10337000812F0E943E070830A0F4D77081E001C081
:10338000880FDA95EAF7DF91CF911F910F91FF90A7
:103390000C945106C77081E001C0880FCA95EAF706
:1033A000F2CFDF91CF911F910F91FF900895CF93AE
:1033B000DF9300D000D0CDB7DEB79091940290FF9C
:1033C00049C09170811135C0926090939402662338
:1033D00081F08091940290919502A0919602B09113
:1033E000970289839A83AB83BC83BC01CD010E9481
:1033F000031460919402669570E04BE050E084E025
:1034000091E00E942429892BD9F010929A0281E040
:103410008093910220E04091970260919602809102
:1034200095020F900F900F900F90DF91CF910C9419
:1034300017148B3210F09465C8CF880F982BC5CF26
:1034400081E080939A020E945B0590938F028093A3
:103450008E02DDCF0F900F900F900F90DF91CF91E4
:1034600008959091940296958FEF890F913009F409
:103470008AE261E00C94D7198091940286958F5F5F
:103480008B3208F081E061E00C94D719909194029E
:1034900090FF07C09695981720F0961710F40C949B
:1034A0003C1A61E00C94D7197F92AF92BF92CF92F1
:1034B000DF92EF92FF920F931F93CF93DF93CDB7DD
:1034C000DEB729970FB6F894DEBF0FBECDBF7C01E3
:1034D000DC0113968D919C911497892B41F01C91DE
:1034E0001196DC90812F8D218F3F09F071C52996AF
:1034F0000FB6F894DEBF0FBECDBFDF91CF911F9105
:103500000F91FF90EF90DF90CF90BF90AF907F90A2
:1035100008950E94DE0A082F682F89819A810E94EF
:103520001906E12FF0E0BCE0DB9EE00DF11D112457
:1035300010E3019FE00DF11D1124EE0FFF1FE8566F
:10354000FC4F05911491D70112969C91992309F48F
:1035500086C0F801EC5BFC45E730F10508F07FC060
:10356000E253F34D809174020C941828886F8160A7
:10357000809374028FE10E94EA07809174020E9496
:103580005B1380916602877009F4B1CFD701129660
:103590008C91882309F4ABCF82E029960FB6F8947A
:1035A000DEBF0FBECDBFDF91CF911F910F91FF9076
:1035B000EF90DF90CF90BF90AF907F900C94DF069C
:1035C00087708E7F8093740280E0D5CF982F987F8C
:1035D0008850911124C080917402869586958695B5
:1035E00017C0982F987F983F19F0885F80937402D6
:1035F000809174028160809374020E945B13EBCF10
:1036000080FF09C08E7F809374020E945B1380E06C
:103610000E94EA07B6CF0E946013B3CF885F809301
:103620007402887F91E009F490E08091740290FB2D
:1036300080F9E1CF81FF0BC08D7F809374020E94DF
:103640005B1380916F008E7F80936F00C4CF826088
:10365000809374020E945B130E94940792CF053FEF
:10366000BCE51B0709F45AC008F041C0093DFCE560
:103670001F0709F44FC00A3D2CE5120709F459C091
:1036800026E241EE61EE083D3CE5130709F449C02E
:10369000992309F4B0C41092640406317CE517073D
:1036A00008F04AC002308CE5180708F408C10E94EF
:1036B0004D13909382028093810206319CE5190795
:1036C00008F063C00230ACE51A0708F051C0609101
:1036D00081021091820284E090E00E94052C612F0B
:1036E00081E290E00E94052C0E945C154ACF073FC2
:1036F0004CE51407D1F027E245EE66EE083F5CE5A5
:10370000150779F0063F6CE5160711F627E245EE3E
:1037100064EE07C027E245EE65EE03C026E241EE07
:1037200060EEC7010E946E192CCF26E241EE62EED8
:10373000F8CF28E241E0F0CF98012C5F3C452930DA
:10374000310508F4B4CF0631BCE51B0709F0B7C05A
:10375000809169028A7A91E009F490E090930F02D7
:103760008111A9C089E20E94D7050E949D0509CF59
:10377000F801E350FC45809181028160E331F1055D
:1037800090F4EB52F34D0C9418280C5F1C45093053
:10379000110508F09CCF0851134DF8010C9418281E
:1037A0008091810282608093810291CF8091810219
:1037B0008460F9CF809181028860F5CF8091820288
:1037C00081608093820283CF809182028260F9CFF0
:1037D000809181028061E7CF809181028062E3CF96
:1037E000809181028064DFCF0E945C15809181020C
:1037F0008068D9CF809181028C60D5CF8091820280
:103800008360DFCF809181028E7FCDCF8091810256
:103810008D7FC9CF809181028B7FC5CF809181023E
:10382000877FC1CF809182028E7FCBCF8091820231
:103830008D7FC7CF809181028F7EB5CF809181022D
:103840008F7DB1CF809181028F7BADCF0E945C15BF
:10385000809181028F77A7CF80918102837FA3CF50
:10386000809182028C7FADCF8091810282FB99276B
:1038700090F921E0922790FB82F990FB83F993CF96
:1038800080918202982F909591708E7F892B90FB6A
:1038900081F997CF0E945C1590918102892F97FB47
:1038A00087F9805880CF61E08EE090E00E94052C7F
:1038B0000ECF60E0F9CF85E356CF85E3A5C38091B5
:1038C00069028272F801E35CFC45E431F10508F01D
:1038D00082C0EF50F34D0C9418288091940280FF21
:1038E00021C08E7F809394020091940210919502E2
:1038F00020919602309197020E831F832887398783
:10390000C901B8010E94031410929A021FE728E32C
:1039100031E0115020403040E1F700C000000E942B
:10392000B20C2FCE81608093940261E086950E9454
:10393000D71927CE41E35AE16CE37AE10E941F08D0
:1039400020CE4CE35AE161E37AE1F8CF43EE54E153
:103950006CEE74E1F3CF4CEE54E163EE74E1EECF24
:103960004BEC54E167ED74E1E9CF47ED54E16BECCA
:1039700074E1E4CF43EB54E16FEB74E1DFCF4FEB45
:1039800054E163EB74E1DACF45EF54E168E175E1AE
:10399000D5CF48E155E165EF74E1D0CF61E081E03A
:1039A000C6CF65E082E00E94461AEBCD68E086E073
:1039B000FACF6EE089E0F7CF64E18FE0F4CF67E102
:1039C00085E1F1CF61E088E1B2CF62E289E1EBCF3E
:1039D00061E083E2ACCF992381F00E3D4CE5140702
:1039E00009F48FC008F072C001156CE5160709F4E0
:1039F00078C00D3D1C4509F481C0F701C080D1801D
:103A0000992309F484C0C6010E94DE0A182F682F8A
:103A1000C6010E941906B601812F0E9428098C0157
:103A2000782ED7011596CC901597C2942FE0C2221C
:103A30001296DC90D1101092680280916602877015
:103A400099F0DD2089F0812F807F803421F080E2A1
:103A5000800F883048F082E00E94DF068091660285
:103A60008770AA24A3948111A12CB12EB2949FE057
:103A7000B922B8E0BB1609F437C1BB1508F48EC0F3
:103A8000E3E0EB1508F448C0812F807F1F70F1E060
:103A9000FB1508F097C0803211F01295107F772047
:103AA00009F4C9C051E0751609F4E6C0DD2009F437
:103AB000F0C0CC2009F4E6C0D70115968C9115977B
:103AC00080FF96C08F7015968C93DCC00F3D8CE5FF
:103AD0001807D9F0003E1C4509F08FCF0E948313D0
:103AE00050CD0E945C15BFE7EAE1F6E0B150E0403E
:103AF000F040E1F700C000000E948E0C109212010D
:103B000040CD82E0809312013CCD83E0FBCFC60123
:103B10000E94F005182F7FCF24E0B21609F4CAC026
:103B2000AB2DA850BB0B149710F40E943207AA20AB
:103B3000A9F08091660280FD11C0F701128285957F
:103B4000859585950E94F706C7010E94541A8091B9
:103B500066028595859585950E94AA0685E0F70100
:103B6000DE01119601900D928A95E1F789819A8183
:103B70000E94F0059A81E981F0E00CE0909FE00D51
:103B8000F11D112410E3819FE00DF11D1124EE0FB2
:103B9000FF1FE856FC4F85919491A9CC39E0B316EC
:103BA00009F490C186E08B0D8F70823008F0B8CF99
:103BB000802F42EF741295C1812F8F71DD2009F49F
:103BC000D4C18CC1882311F01295107F802FDD2085
:103BD000C9F0112369F090E2900F983010F00111B4
:103BE0000BC080916902182B109369020E949D05F9
:103BF000802F0E94B81894CF80916802182B1093E0
:103C00006802F4CF0E943E07112309F489CF109572
:103C1000005E083010F0711008C08091690218230E
:103C2000109369020E949D057BCF80916802182342
:103C300010936802F7CFDD2091F090916A02812FF6
:103C4000892BC11003C00E945C066ACF61E0C612D6
:103C5000FACF891709F464CF80936A0261CFC1104B
:103C600006C00E949705812F0E94510659CF71E02E
:103C7000C71609F455CFF5CFDD2031F085E08C155E
:103C800008F44ECF812FDFCF94E09C1508F448CF85
:103C9000EACFCC2041F3093349F4BFEFE3EFF1E081
:103CA000B150E040F040E1F700C00000802F0E94DA
:103CB0003E0736CF812F86958695837061F08130DF
:103CC00009F02ECFC8019370D11002C090E080E0BF
:103CD0000E94660625CFC8019370D11002C090E003
:103CE00080E00E947C061CCF812F837009F072C097
:103CF000D11016CF202F229526952770220F220F44
:103D0000402F4F7050E070E060E0022E04C0440F7E
:103D1000551F661F771F0A94D2F780E090E0DC0100
:103D200004FF0FC08FE090E0A0E0B0E004C0880F77
:103D3000991FAA1FBB1F2A95D2F780959095A09531
:103D4000B095E12FE695E695E370E23051F1E3306E
:103D500009F100916B0210916C0220916D0230917B
:103D60006E02E13099F0842B952BA62BB72BAC017A
:103D7000BD0140235123622373234E835F836887F1
:103D80007987CB01BA010E942807CACE402B512B5C
:103D9000622B732B8A019B01082B192B2A2B3B2B9F
:103DA00012C0842B952BA62BB72B40916B02509100
:103DB0006C0260916D0270916E028C019D0104276E
:103DC0001527262737270E831F8328873987C901A0
:103DD000B801D9CF8695DD2011F0812F817088231D
:103DE00009F49ECE202F229526952770220F220FB0
:103DF000402F4F7050E070E060E0022E04C0440F8E
:103E0000551F661F771F0A94D2F780E090E0DC010F
:103E100004FF0FC08FE090E0A0E0B0E004C0880F86
:103E2000991FAA1FBB1F2A95D2F780959095A09540
:103E3000B095E12FE695E695E370E23081F1E3304D
:103E4000F9F000917D0210917E0220917F02309165
:103E50008002E13089F0842B952BA62BB72BAC0187
:103E6000BD0140235123622373234E835F83688700
:103E70007987CB01BA0110C0402B512B622B732BD9
:103E80008A019B01082B192B2A2B3B2B0E831F83A6
:103E900028873987C901B8010E94A00641CE842B2A
:103EA000952BA62BB72B40917D0250917E026091FD
:103EB0007F02709180028C019D010427152726271F
:103EC0003727E4CF1F70DD2029F0812F0E94F706ED
:103ED000802FB9CE802F0E945106812F0E94AA0602
:103EE0001FCE22EF271570F030EF731609F141EF66
:103EF0007416B1F1DD2009F45BC0C11079CE812FB9
:103F00008F7133C053EF751699F164EF7612F2CFCB
:103F1000DD2009F442C01F71812F0E94F70658E08E
:103F2000159FC0011124836080936602812F1DC0FC
:103F3000DD2089F074E07C1508F4F2CD1F7181E07A
:103F400090E0A0E0B0E004C0880F991FAA1FBB1F3B
:103F50001A95D2F7A8CF25E02C1508F4E1CDEECFC5
:103F6000812F8F71DD2009F4B9CF0E94F706D8CDDB
:103F700060E070E0CB01DD2009F48ECF1F7181E09D
:103F800090E0A0E0B0E0AC01BD0104C0440F551FBB
:103F9000661F771F1A95D2F768CF81E00E94DF066F
:103FA00061E06C1508F0BCCD82E00E94DF06B8CD60
:103FB000CC2059F0893309F079CE7FEF83EF91E07F
:103FC000715080409040E1F76FCE812F8F7186CF86
:103FD00085E0F701DE01119601900D928A95E1F7D7
:103FE000D70112962C9189819A81211192CA0E943F
:103FF000F005082F96CA06311C4509F0FECC8091C9
:104000000F0281115ACC89E20E94CA05AECB1F93E0
:10401000CF93DF9380911502807FA9F480911202E3
:10402000882389F080914702D09116026091100296
:1040300070911102A0911302B0911402C62FC723F0
:1040400016E0D81304C0DF91CF911F91089590E03E
:10405000109711F0CF3F19F401968770F2CF189F97
:104060009001199F300D1124F901E95EFD4F418146
:104070004713F2CF40814613EFCF42814111ECCF7D
:10408000438154814A1B5B0B483C510528F78091C2
:1040900015028F70806180931502F901E45EFD4F77
:1040A00080818F708061808380E192E00E94541A49
:1040B000DF91CF911F910C944706AF92BF92CF92A0
:1040C000DF92EF92FF920F931F93CF93DF93CDB7C1
:1040D000DEB72B970FB6F894DEBF0FBECDBF8C01B5
:1040E00085E0F801DE01179601900D928A95E1F7BF
:1040F000F80180819181E28020E1A22E22E0B22E9F
:1041000060911302709114026115710509F421C1C7
:104110003091100240911102242F23232F3F09F4E4
:1041200018C1C380D480F0901202F601E61BF70B91
:10413000FF2009F4DFC020911502522F507FE83C88
:10414000F10508F0BAC0511177C0FE2C491321C007
:1041500038131FC0E1101DC02F702061209315027D
:10416000C5010E94541A80911502F80185838F2D94
:104170002B960FB6F894DEBF0FBECDBFDF91CF9167
:104180001F910F91FF90EF90DF90CF90BF90AF9075
:104190000895CD2829F0282F29232F3F09F0F7C0B3
:1041A00020E0F22FF170DF2EE091470240911602DD
:1041B00056E020FD1CC0EE20D1F2809115028160F6
:1041C00080931502F12CD3CF2E2F30E05E9FF001AB
:1041D0001124E95EFD4F6181961306C0608186134C
:1041E00003C06281E612E7CFF9013196E770E4136C
:1041F000EBCF8F8398878F8198850E94200B292F82
:1042000022952F70903260F0225F2F70223078F468
:104210009F7051F0F8019581907F31F4D12C0AC044
:104220009F7011F08823D1F3805E8830B8F3C80105
:104230000E94541AFD2C9BCF491312C0381310C092
:10424000E1100EC0F8012583C8010E94541A86E0CF
:10425000F801A0E1B2E001900D928A95E1F787CFD5
:104260008F8398878F8198850E942C0B882309F172
:10427000EE20F9F080911502803270F0209110024A
:10428000309111023A8329831B82DD82CC828E8396
:10429000CE0101960E94541A86E0F801A0E1B2E036
:1042A00001900D928A95E1F70E940720FF24F39474
:1042B0005ECFC8010E94541AF9CF51110AC080E1A3
:1042C00092E00E94541A86E0F50111928A95E9F76E
:1042D00079CF4913C5CF3813C3CFE110C1CFF8014F
:1042E0002583C8010E94541A86E0F50111928A952F
:1042F000E9F73DCFE83CF105B8F7FE2CEE20C9F216
:10430000491316C0381314C08091150280FD9FCF49
:10431000982F907F09F49BCFF8018583903F09F493
:1043200093CF982F907F905F8F70892B85838CCF50
:104330008F8398878F8198850E942C0B8111ACCF39
:1043400080911502816080931502C8010E94541A61
:104350000ECFEE2009F4ADCF8F8398878F8198859B
:104360000E942C0BF82E882309F4A3CF86E0F801D5
:10437000A0E1B2E001900D928A95E1F780911002E0
:10438000909111020E94200B0E940720F0CE21E0A4
:104390002E2507CF1F93CF93DF93CDB7DEB7679757
:1043A0000FB6F894DEBF0FBECDBF4B8B5C8B6D8B11
:1043B0007E8B8F8B1A8A85E0FE017396DE011D9637
:1043C00001900D928A95E1F786E0FE013D96DE01AF
:1043D000179601900D928A95E1F7CE0107960E94FB
:1043E0005D20882389F016E08091470290911602A3
:1043F00089134FC067960FB6F894DEBF0FBECDBFCE
:10440000DF91CF911F91089586E0FE013796DE017E
:10441000119601900D928A95E1F74A855B854115C9
:10442000510509F37F816885862F87238F3FD9F255
:104430002091160230E0C901019687709927E0911A
:104440004702E817190671F40E945C1510921602D3
:104450001092470286E0E0E1F2E0DF011D928A95CA
:10446000E9F7C1CF79836A835D834C8396E0929F9D
:10447000D001939FB00D1124A95EBD4FFE0131966E
:1044800001900D929A95E1F7809316020E944706DB
:10449000AACF819FC0011124895E9D4F0E945D209B
:1044A000882309F4A7CF8091470290E00196877096
:1044B00099278093470298CF10925804109259047C
:1044C000EAE5F4E01482158208951F920F920FB668
:1044D0000F9211242F933F934F935F936F937F938A
:1044E0008F939F93AF93BF93CF93DF93EF93FF93FC
:1044F000D091E900DF708091EC00C82FC17080FD81
:10450000C0E81092E9008091F000877F8093F0006E
:1045100078940E9467151092E9008091F0008860FD
:104520008093F000CD2BCF70C093E900FF91EF9105
:10453000DF91CF91BF91AF919F918F917F916F91BB
:104540005F914F913F912F910F900FBE0F901F9051
:1045500018951F920F920FB60F9211242F933F932D
:104560004F935F936F937F938F939F93AF93BF937B
:10457000EF93FF938091E10082FF09C08091E200F8
:1045800082FF05C08091E1008B7F8093E1008091E4
:10459000DA0080FF23C08091D80080FF1FC0809187
:1045A000DA008E7F8093DA008091D90019BC80FFF9
:1045B0009CC082E089BD09B400FEFDCF81E08093FC
:1045C000B2028091A502811109C00E94C1030E941C
:1045D0008C048091E20084608093E2008091E1008D
:1045E00080FF17C08091E20080FF13C08091E2003D
:1045F0008E7F8093E2008091E20080618093E200F0
:104600008091D80080628093D80019BC85E08093A7
:10461000B2028091E10084FF2CC08091E20084FF0F
:1046200028C019BC82E089BD09B400FEFDCF80918D
:10463000D8008F7D8093D8008091E1008F7E809399
:10464000E1008091E2008F7E8093E2008091E200A1
:1046500081608093E2008091B302882309F44AC00C
:1046600084E08093B2020E945C150E94ED130E94C8
:1046700032078091E10083FF27C08091E20083FF31
:1046800023C08091E100877F8093E10082E08093E6
:10469000B2021092B3028091E1008E7F8093E1001C
:1046A0008091E2008E7F8093E2008091E200806141
:1046B0008093E20042E060E080E00E945A04809132
:1046C000F00088608093F000FF91EF91BF91AF916F
:1046D0009F918F917F916F915F914F913F912F911A
:1046E0000F900FBE0F901F9018951092B20210926B
:1046F000A50274CF8091E30087FD02C081E0B1CFB5
:1047000083E0AFCFCDB7DEB7C45BD1090FB6F89465
:10471000DEBF0FBECDBF84B7877F84BF0FB6F894CE
:10472000A89580916000886180936000109260007D
:104730000FBE80E890E00FB6F894809361009093EC
:1047400061000FBE85B7806885BF85B7806885BF6B
:104750000E94C1030E948C048091E20084608093D7
:10476000E20078948091B2028823A1F01091E900D0
:104770001F709091EC00892F817090FD80E8182BBC
:104780001092E9008091E80083FD0E9467151F7078
:104790001093E90082E084BD93E095BD9DE797BD4D
:1047A00080936E0009E811E0D8018D918D010E947F
:1047B000CC08B1E005391B07B9F787E90E94CC089E
:1047C00086E60E94CC0887E60E94CC0885E30E941A
:1047D000CC08109276021092750210928702109205
:1047E000860210927802109277021092890210923B
:1047F000880210927A021092790210928B02109223
:104800008A0210927C0210927B0210928D0210920A
:104810008C020E943F0FEFE1FEE43197F1F700C0F8
:1048200000000E943F0F8091860280FF08C06FEF5A
:104830007FEF90E080E00E94232C0E948E0C0E946B
:104840007813811102C00E948313279A2F988AE05F
:104850008093800089E1809381008FEF9FEF909398
:104860008700809386000E94ED138091740281FD81
:104870000E9494078091940281608093940261E089
:1048800086950E94D71921E04FEF60E080E00E94FA
:1048900017140E9460130E9494070E9478138111DC
:1048A00002C00E94831382E090E00E94F12B80936B
:1048B0009C020E944D13909382028093810283E0B8
:1048C00090E00E94F12B282F30E050E040E0CF54E0
:1048D000DF4F288339834A835B83C15BD040CA01A1
:1048E000B9010E9428070E94ED1380918302811173
:1048F00033C00E947813811104C00E9483130E9468
:104900003B1588E090E00E94F92B6093940270932D
:10491000950280939602909397026E7F71F40E94A5
:104920003B1588E090E00E94F92B6093940270930D
:10493000950280939602909397020E942408109209
:104940009A028091940280FF04C060E086950E94E4
:10495000D71981E08093830283E191E090938502EF
:10496000809384025BEB252E54E0352EAE014F5F21
:104970005F4F6A0166E4862E912CA12CB12C74E65F
:10498000472E512C612C712C0E943F0FA6E8B2E0FB
:10499000EDE9F2E010E000E0602F8D919D91219112
:1049A00031912817390709F494C12827392770E075
:1049B000EE24E394F12CA70142235323452B09F461
:1049C00082C179836A8397012823392391E0232BBD
:1049D00009F490E09B830E945B058160782F9D83A2
:1049E0008C8349815A816B818D810E94CA21000F7D
:1049F000111FF801E356FD4F80819181E826F926C9
:104A0000F182E08280919A02882309F441C080916A
:104A10009902E0919402E695E81BE09390028230BF
:104A200009F06EC1F0E0E753FB4FE4910E2F10E068
:104A3000ABE1EA2EAFE0FA2E80919102882389F053
:104A4000109291020E945B05980120953095280FE5
:104A5000391F30938F0220938E021092930210928E
:104A6000920280918E0290918F020E944C058017D5
:104A7000910770F0E0918E02F0918F020E0F1F1FD0
:104A800010938F0200938E028EE892E0F701099551
:104A90000E94320790919B02891721F00E943207F1
:104AA00080939B028091BE02811156C08091BD020D
:104AB000811121C01092BC026E987698289A219A92
:104AC000229A23982B9880E58CBD549A5C9A5C9826
:104AD0008FE19EE40197F1F700C000005C9A9FEF20
:104AE000A9E6B8E19150A040B040E1F700C0000055
:104AF00081E08093BD021092BE028DECE82E84E02E
:104B0000F82E0BED14E042E050E0B701CE018F57D4
:104B10009F4F0E94FA2840E850E0B601CF57DF4F80
:104B200088819981C158D0400E94F310882379F080
:104B3000E2E0EE0EF11C0E151F0529F781E08093CF
:104B4000BE020E945B059093C7028093C6028091CB
:104B5000BE02882309F418CF81E00E94BD0B8AE0D1
:104B600090E00E9435118091C6029091C7020E9488
:104B70004C05893E9340D8F18091BF02811117C046
:104B800040E350E0BE016F577F4F8CEF94E00E94EE
:104B9000F310882349F040E350E0BE016F577F4F88
:104BA00089EE94E00E94F31081E08093BF020E949E
:104BB0005B059093C7028093C60240E350E0BE01BC
:104BC0006F577F4F8BED94E00E94F310882379F0AC
:104BD000CE018F579F4F0E94DC289C0191E0232B30
:104BE00009F490E08091BC0298139093BC028091EC
:104BF000C0029091C1020E944C058131974208F495
:104C0000C3CE90915E0480915F049813BDCE0E9444
:104C10005B059093C1028093C00285E880937A007F
:104C200080EA80937B0085E480937C0080917A0009
:104C3000806480937A0080917A0086FDFCCFA091F9
:104C400078009091790080917A008F7780937A0034
:104C5000B92FAD010B2E000C660B770B4D3632E0F1
:104C600053076105710508F4B6C04092C202509224
:104C7000C3026092C4027092C5028091C5028F93F4
:104C80008091C4028F938091C3028F938091C2025E
:104C90008F938FE191E09F938F931F9280E38F9387
:104CA000DF92CF920E94452926E930E050E040E0B3
:104CB00070E060E0C6010E9406100FB6F894DEBFF7
:104CC0000FBECDBF61CE7F5FEE0CFF1C7C3009F0C4
:104CD00072CE0F5F1F4F0430110509F05DCE8FEFCC
:104CE00089838A831B820E945B058160782F9D8364
:104CF0008C8349815A816B818D810E94CA2182CE29
:104D0000863059F4F0E0EA53FB4FE4910E2F10E0A7
:104D1000FFE2EF2EFFE0FF2E8FCE893061F4E695A3
:104D2000F0E0ED53FB4FE4910E2F10E0E2EFEE2E9A
:104D3000ECE0FE2E81CE8F3061F4E695F0E0E05499
:104D4000FB4FE4910E2F10E07CE1E72E7DE0F72E83
:104D500073CE853159F4F0E0E354FB4FE4910E2F0C
:104D600010E065E8E62E6DE0F62E66CE08E210E073
:104D700033EDE32E3DE0F32E883109F45DCE83322E
:104D800041F4F1010591149151ECE52E5EE0F52E10
:104D900053CE04EF11E028E7E22E2EE0F22E84320B
:104DA00009F44ACE00ED17E097E4E92E95E0F92EDC
:104DB000853209F041CE8E2F63E00E94D627E92F7D
:104DC000F0E0E854FB4FE4910E2F10E044ECE42EA9
:104DD00042E1F42E31CE463252406105710548F46D
:104DE0001092C2021092C3021092C4021092C50225
:104DF00044CF23E630E00E9426289B01AC01225BD1
:104E0000344D41095109CF54DF4F288339834A83F8
:104E10005B83C15BD040CA01B901A50194010E9426
:104E20006B2C2093C2023093C3024093C402509370
:104E3000C50223CF78941F921FB61F9211248F931F
:104E40009F93AF93BF9380916F0290917002A09156
:104E50007102B09172020196A11DB11D80936F0283
:104E600090937002A0937102B0937202BF91AF91C0
:104E70009F918F911F901FBE1F9018951F921FB674
:104E80001F9211248F939F93AF93BF9380916F02D2
:104E900090917002A0917102B09172024196A11D91
:104EA000B11D80936F0290937002A0937102B09332
:104EB0007202BF91AF919F918F911F901FBE1F9063
:104EC00018951F920F920FB60F9211242F933F93B4
:104ED0004F935F936F937F938F939F93AF93BF9302
:104EE000EF93FF938091090290910A02019668EB7B
:104EF00075E00E94F02790930A02809309026BE00C
:104F000070E00E94F0276F7780910802823041F4B0
:104F1000603451F480916F008E7F80936F0004C0E5
:104F2000813011F46F37B1F3E62FF0E0E85EFC4F0B
:104F3000E49121E031E0E29FC001E39F900D112454
:104F40006FE170E00E94F02780917402869586954B
:104F50008695282F269FC001279F900D11240E941F
:104F6000A00790938D0080938C00FF91EF91BF91EB
:104F7000AF919F918F917F916F915F914F913F91F1
:104F80002F910F900FBE0F901F901895DB018F93FC
:104F90009F930E94582CBF91AF91A29F800D911DAD
:104FA000A39F900DB29F900D11240895991B79E055
:104FB00004C0991F961708F0961B881F7A95C9F7A9
:104FC0008095089587FB082E062687FD819567FD4D
:104FD00061950E94D6270EF4919507FC819508955E
:104FE000AA1BBB1B51E107C0AA1FBB1FA617B7070F
:104FF00010F0A61BB70B881F991F5A95A9F780952B
:105000009095BC01CD01089597FB072E16F40094EE
:1050100007D077FD09D00E94F02707FC05D03EF4A9
:10502000909581959F4F0895709561957F4F089554
:10503000EE0FFF1F0590F491E02D09940E948D2C36
:10504000332312F48A1B9B0B0C9428280E948D2C6E
:10505000B7FF0895821B930B08952F923F924F92B2
:105060005F926F927F928F929F92AF92BF92CF92F8
:10507000DF92EF92FF920F931F93CF93DF93CDB701
:10508000DEB7CA1BDB0B0FB6F894DEBF0FBECDBF79
:1050900009942A88398848885F846E847D848C844A
:1050A0009B84AA84B984C884DF80EE80FD800C8153
:1050B0001B81AA81B981CE0FD11D0FB6F894DEBF36
:1050C0000FBECDBFED010895CF92DF92EF92FF9218
:1050D000CF93DF93CDB7DEB72A970FB6F894DEBF34
:1050E0000FBECDBF89879A87A985BA852D913D913D
:1050F0004D915C9129833A834B835C83232B242B32
:10510000252B41F424E239ED4BE557E029833A831E
:105110004B835C8369817A818B819C812DE133EFA4
:1051200041E050E00E94392C69017A01A7EAB1E41C
:105130009B01AC010E94582C69837A838B839C83EA
:10514000ACEEB4EFA70196010E94662C9B01AC0166
:1051500089819A81AB81BC81820F931FA41FB51FE7
:10516000B7FF03C00197A109B048E985FA8580839C
:105170009183A283B3839F772A960FB6F894DEBFFC
:105180000FBECDBFDF91CF91FF90EF90DF90CF901A
:1051900008950E946428089580E091E00E946428A8
:1051A0000895B0E0A0E08093000190930101A093E6
:1051B0000201B09303010895FC0188279927E89420
:1051C00021912032E9F3293010F02E30C8F32B3230
:1051D00041F02D3239F4689404C00E941C29820FDA
:1051E000911D219120532A30C0F31EF49095819592
:1051F0009F4F0895FB01DC0102C005900D924150C4
:105200005040D8F70895FB01DC018D91059080197D
:105210000110D9F3990B0895FB01DC0105900D9263
:105220000020E1F70895FC0105900020E9F7809542
:1052300090958E0F9F1F08957AE0979F902D879FDE
:10524000802D910D11240895FC014150504030F003
:1052500001900616D1F73197CF0108958827992735
:105260000895FB01DC0102C001900D9241505040B5
:10527000D8F70895FC0181E090E00190061609F44A
:10528000CF010020D1F701970895AEE0B0E0EBE444
:10529000F9E20C943B280D891E898F89988D26E0B0
:1052A0002C831A83098397FF02C080E090E801975E
:1052B0009E838D83AE01455E5F4F698D7A8DCE01F1
:1052C00001960E9475294D815E8157FD0AC02F818C
:1052D0003885421753070CF49A01020F131FF80187
:1052E00010822E96E4E00C945728AFE0B0E0EBE794
:1052F000F9E20C942D287C013B018A01DC01179610
:105300001C921E92169713968C9181FFC3C19AE04E
:10531000292EFE0131964F01D70113969C91F3017E
:1053200093FD859193FF81913F01882309F448C142
:10533000853239F493FD859193FF81913F01853248
:1053400029F4B70190E00E94632BE6CFB12C412CE9
:10535000512CBFE1B51538F08B3209F188F4803259
:1053600001F1833221F157FC3AC020ED280F2A3099
:1053700040F556FE1FC0B29C200D1124B22E06C06F
:105380008D3291F0803379F7689450F8F30193FDF2
:10539000859193FF81913F018111DBCF20C06894FB
:1053A00051F8689452F8F2CF689453F8EFCF6894AC
:1053B00054F8ECCF429C200D1124422E689455F8ED
:1053C000E5CF8E3229F456FCFBC0689456F8DECF48
:1053D0008C3619F4689457F8D9CF8836B9F2982FDB
:1053E0009F7D95549330C0F08336A1F18337C1F18E
:1053F000833509F05BC0D801CD90DD908D016B2D18
:1054000070E056FC02C06FEF7FEFC6010E944D2B8B
:105410005C01689457F80AC00C5F1F4FEFE3E98303
:10542000AA24A394B12C6401E89457F853FC04C057
:105430004A141B0409F018F5342CA114B10431F5F9
:10544000332009F469CFB70180E290E00E94632B1A
:105450003A94F6CFD8018C9189830E5F1F4FE0CF2D
:10546000F801C190D1908F016B2D70E056FC02C005
:105470006FEF7FEFC6010E94582B5C01D5CFB701BB
:1054800080E290E00E94632B4A94D2CFF60157FC51
:10549000859157FE81916F01B70190E00E94632BC7
:1054A00031103A94B1E0AB1AB108C7CF843619F085
:1054B000893609F074C0F80157FE6AC06191719194
:1054C000819191918F01E52DEF76DE2E97FF09C036
:1054D00090958095709561957F4F8F4F9F4F689401
:1054E000D7F82AE030E0A4010E94932BC82EC818F8
:1054F000AC2C5D2CD6FE0CC0E89450F8CB1440F4D4
:10550000D4FE05C0D2FC03C05D2D5E7E552EAB2CB3
:1055100054FE98C0FE01EC0DF11D8081803309F02E
:105520008AC0652D697E562E752D7870372E53FCF6
:1055300098C050FE92C0BC2CA41418F44C0CB42C8F
:10554000BA1854FE94C0B70180E390E00E94632B28
:1055500052FE09C088E790E051FE02C088E590E065
:10556000B7010E94632BCB1408F48DC0CA94D12CD0
:105570008FEFC81AD80AC80CD91CD6018E916D01BC
:10558000B70190E00E94632B8C149D04B1F758CFB3
:1055900061917191072E000C880B990B93CFD52C3C
:1055A000E894D4F82AE030E0853739F1F52DF97F19
:1055B000DF2E8037A9F058F48835A9F08F36D9F05E
:1055C000F701868197812F96E2E10C94492888376C
:1055D000B9F7D4FE02C06894D2F820E130E00DC0E3
:1055E0006894D4F8F6CF54FE03C02F2F2660D22E35
:1055F00020E132E002C028E030E0F801D7FE15C01B
:1056000041915191619171914C875D876E877F8740
:105610008F01A4016C857D858E859F850E94932BCB
:10562000C82EC818E894D7F863CF81919191AC0146
:1056300070E060E0E9CF52FC02C0A39475CFA39460
:10564000A39472CF852D867809F46ECFF6CFB7017B
:1056500080E290E00E94632BA394A414C0F3312C49
:1056600070CF342C3A18A41408F46BCFF8CF852DE2
:10567000867809F478CF8BE251FE80E257FC8DE208
:10568000B70190E06ECFB70180E390E00E94632BFA
:10569000BA9469CF8FEF9FEF96CFFC0105906150D0
:1056A00070400110D8F7809590958E0F9F1F089538
:1056B000FC016150704001900110D8F780959095E1
:1056C0008E0F9F1F08950F931F93CF93DF93182F73
:1056D000092FEB018B8181FD09C01FEF0FEF812F97
:1056E000902FDF91CF911F910F91089582FF14C0E9
:1056F0002E813F818C819D81281739073CF4E881F8
:10570000F981CF0101969983888310838E819F81CF
:1057100001969F838E83E3CFE885F985812F0995D4
:10572000892BA1F3DACFFA01AA27283051F12031D1
:1057300081F1E8946F936E7F6E5F7F4F8F4F9F4F25
:10574000AF4FB1E03ED0B4E03CD0670F781F891F67
:105750009A1FA11D680F791F8A1F911DA11D6A0F35
:10576000711D811D911DA11D20D009F468943F91E8
:105770002AE0269F11243019305D3193DEF6CF01E7
:105780000895462F4770405D4193B3E00FD0C9F7AD
:10579000F6CF462F4F70405D4A3318F0495D31FD1A
:1057A0004052419302D0A9F7EACFB4E0A69597956D
:1057B000879577956795BA95C9F700976105710543
:1057C00008959B01AC010A2E06945795479537958D
:1057D0002795BA95C9F7620F731F841F951FA01DE7
:1057E0000895F999FECF92BD81BDF89A992780B5A9
:1057F0000895A6E1B0E044E050E00C942B2CA8E121
:10580000B0E042E050E00C942B2C262FF999FECF0B
:1058100092BD81BDF89A019700B4021639F01FBA03
:1058200020BD0FB6F894FA9AF99A0FBE0895039620
:10583000272F0E94062C0E94052C252F0E94062C43
:10584000242F0C94062C0196272F0E94062C0C94D2
:10585000052CDC01CB01FC01F999FECF06C0F2BD9D
:10586000E1BDF89A319600B40D9241505040B8F71E
:105870000895052E97FB1EF400940E94502C57FDAE
:1058800007D00E946B2C07FC03D04EF40C94502CD4
:1058900050954095309521953F4F4F4F5F4F08955C
:1058A00090958095709561957F4F8F4F9F4F08958C
:1058B0000E948D2CA59F900DB49F900DA49F800DEC
:1058C000911D11240895B7FF0C94582C0E94582C58
:1058D000821B930B0895A1E21A2EAA1BBB1BFD018C
:1058E0000DC0AA1FBB1FEE1FFF1FA217B307E407BF
:1058F000F50720F0A21BB30BE40BF50B661F771F17
:10590000881F991F1A9469F76095709580959095F6
:105910009B01AC01BD01CF010895A29FB001B39FCF
:10592000C001A39F700D811D1124911DB29F700DA8
:10593000811D1124911D0895F894FFCF481670160B
:10594000081870160818A316C4160818C317D0171D
:10595000711868187E185E18631863185E1863184B
:1059600063189A186318A5186318631863186318E6
:1059700063185E18631863185E1863188C18631830
:105980006318B618B618B618B618B618B618B618FA
:10599000B618B618B018631871186518B61AE01A58
:1059A000E61AF11A001B0E1B1A1BD01BD61BDA1BA2
:1059B000E81BEC1BF01BF41BFA1B021C061C0A1C48
:1059C0000E1C1A1C1E1C221C261C2C1C4A1C341CBF
:1059D000DE1BE41B121C161CFE1B301C401C531C3F
:1059E000591C6D1C9A1CA11CA61CAB1CB01CB51C20
:1059F000BA1CBF1CC41CC91CCE1CD11CD61CD91C73
:0A5A0000DC1CDF1CE21CE51CE81CA6
:105A0A000100000001191A1B1C1D1E1F2021220162
:105A1A000201044905461248058A0CFD1101FF419D
:105A2A00542B424C454241545456414C3D25640046
:105A3A000001020202020606060909090909090FFC
:105A4A000F0F0F0F0F1515151819191919191919FB
:105A5A001919192324252525252525E200E900EA17
:105A6A0000B500B600B700CD008301CC008A0192D0
:105A7A000194012102230224022502260227022A76
:105A8A0002B300B4006F007000F7F6F5F4F1F0907D
:0A5A9A009192939596976667350088
:00000001FF
